{
  "contractName": "Evidence",
  "abi": [
    {
      "inputs": [
        {
          "internalType": "uint256",
          "name": "shardNumber",
          "type": "uint256"
        },
        {
          "internalType": "address",
          "name": "_validator",
          "type": "address"
        }
      ],
      "name": "addValidator",
      "outputs": [],
      "stateMutability": "nonpayable",
      "type": "function"
    },
    {
      "inputs": [],
      "name": "assignBlocks",
      "outputs": [],
      "stateMutability": "nonpayable",
      "type": "function"
    },
    {
      "anonymous": false,
      "inputs": [
        {
          "indexed": false,
          "internalType": "string",
          "name": "message",
          "type": "string"
        },
        {
          "indexed": false,
          "internalType": "uint256",
          "name": "caseId",
          "type": "uint256"
        }
      ],
      "name": "CaseCreated",
      "type": "event"
    },
    {
      "inputs": [
        {
          "internalType": "string",
          "name": "_description",
          "type": "string"
        }
      ],
      "name": "createCase",
      "outputs": [],
      "stateMutability": "nonpayable",
      "type": "function"
    },
    {
      "inputs": [],
      "name": "DPOS",
      "outputs": [],
      "stateMutability": "nonpayable",
      "type": "function"
    },
    {
      "anonymous": false,
      "inputs": [
        {
          "indexed": false,
          "internalType": "uint256[]",
          "name": "",
          "type": "uint256[]"
        }
      ],
      "name": "DPOS_Event",
      "type": "event"
    },
    {
      "anonymous": false,
      "inputs": [
        {
          "indexed": false,
          "internalType": "string",
          "name": "message",
          "type": "string"
        }
      ],
      "name": "EvidenceCreated",
      "type": "event"
    },
    {
      "inputs": [],
      "name": "getBlocks",
      "outputs": [],
      "stateMutability": "nonpayable",
      "type": "function"
    },
    {
      "inputs": [],
      "name": "getDocsCount",
      "outputs": [],
      "stateMutability": "nonpayable",
      "type": "function"
    },
    {
      "inputs": [
        {
          "internalType": "uint256",
          "name": "caseId",
          "type": "uint256"
        },
        {
          "internalType": "uint256",
          "name": "docId",
          "type": "uint256"
        },
        {
          "internalType": "string",
          "name": "baseAdd",
          "type": "string"
        }
      ],
      "name": "insertEvidence",
      "outputs": [],
      "stateMutability": "nonpayable",
      "type": "function"
    },
    {
      "inputs": [],
      "name": "interShard",
      "outputs": [],
      "stateMutability": "nonpayable",
      "type": "function"
    },
    {
      "anonymous": false,
      "inputs": [
        {
          "indexed": false,
          "internalType": "bool[]",
          "name": "",
          "type": "bool[]"
        }
      ],
      "name": "InterShard",
      "type": "event"
    },
    {
      "anonymous": false,
      "inputs": [
        {
          "indexed": false,
          "internalType": "uint256",
          "name": "shardNumber",
          "type": "uint256"
        },
        {
          "indexed": false,
          "internalType": "bytes32",
          "name": "shardHash",
          "type": "bytes32"
        }
      ],
      "name": "ShardHashUpdated",
      "type": "event"
    },
    {
      "anonymous": false,
      "inputs": [
        {
          "components": [
            {
              "internalType": "uint256",
              "name": "shardNo",
              "type": "uint256"
            },
            {
              "internalType": "bytes32",
              "name": "shardAddress",
              "type": "bytes32"
            },
            {
              "components": [
                {
                  "internalType": "uint256[]",
                  "name": "blockNo",
                  "type": "uint256[]"
                },
                {
                  "internalType": "uint256",
                  "name": "validatorNo",
                  "type": "uint256"
                },
                {
                  "internalType": "address",
                  "name": "validatorAddress",
                  "type": "address"
                }
              ],
              "internalType": "struct Evidence.validator[]",
              "name": "v",
              "type": "tuple[]"
            },
            {
              "internalType": "uint256",
              "name": "shardSize",
              "type": "uint256"
            }
          ],
          "indexed": false,
          "internalType": "struct Evidence.Shard[]",
          "name": "",
          "type": "tuple[]"
        }
      ],
      "name": "Shardss",
      "type": "event"
    },
    {
      "anonymous": false,
      "inputs": [
        {
          "indexed": false,
          "internalType": "uint256",
          "name": "",
          "type": "uint256"
        }
      ],
      "name": "noOfDOCS",
      "type": "event"
    },
    {
      "inputs": [
        {
          "internalType": "uint256",
          "name": "max",
          "type": "uint256"
        }
      ],
      "name": "random",
      "outputs": [
        {
          "internalType": "uint256",
          "name": "",
          "type": "uint256"
        }
      ],
      "stateMutability": "nonpayable",
      "type": "function"
    },
    {
      "inputs": [],
      "name": "rebalanceNodes",
      "outputs": [],
      "stateMutability": "nonpayable",
      "type": "function"
    },
    {
      "inputs": [
        {
          "internalType": "uint256",
          "name": "shardNumber",
          "type": "uint256"
        },
        {
          "internalType": "bytes32",
          "name": "shardHash",
          "type": "bytes32"
        }
      ],
      "name": "setShardHash",
      "outputs": [],
      "stateMutability": "nonpayable",
      "type": "function"
    },
    {
      "inputs": [
        {
          "internalType": "uint256",
          "name": "_shardCount",
          "type": "uint256"
        },
        {
          "internalType": "uint256",
          "name": "_shardSize",
          "type": "uint256"
        }
      ],
      "name": "setshardParameters",
      "outputs": [],
      "stateMutability": "nonpayable",
      "type": "function"
    },
    {
      "inputs": [
        {
          "internalType": "uint256",
          "name": "",
          "type": "uint256"
        }
      ],
      "name": "_map1",
      "outputs": [
        {
          "internalType": "uint256",
          "name": "",
          "type": "uint256"
        }
      ],
      "stateMutability": "view",
      "type": "function"
    },
    {
      "inputs": [
        {
          "internalType": "uint256",
          "name": "",
          "type": "uint256"
        }
      ],
      "name": "_map2",
      "outputs": [
        {
          "internalType": "uint256",
          "name": "",
          "type": "uint256"
        }
      ],
      "stateMutability": "view",
      "type": "function"
    },
    {
      "inputs": [],
      "name": "getArray",
      "outputs": [
        {
          "internalType": "uint256[][]",
          "name": "",
          "type": "uint256[][]"
        }
      ],
      "stateMutability": "view",
      "type": "function"
    },
    {
      "inputs": [
        {
          "internalType": "uint256",
          "name": "caseId",
          "type": "uint256"
        },
        {
          "internalType": "uint256",
          "name": "docId",
          "type": "uint256"
        }
      ],
      "name": "getBlockNumber",
      "outputs": [
        {
          "internalType": "uint256",
          "name": "",
          "type": "uint256"
        }
      ],
      "stateMutability": "view",
      "type": "function"
    },
    {
      "inputs": [
        {
          "internalType": "uint256",
          "name": "caseId",
          "type": "uint256"
        }
      ],
      "name": "getCaseInfo",
      "outputs": [
        {
          "internalType": "string",
          "name": "",
          "type": "string"
        },
        {
          "internalType": "uint256",
          "name": "",
          "type": "uint256"
        },
        {
          "internalType": "string",
          "name": "",
          "type": "string"
        },
        {
          "components": [
            {
              "internalType": "uint256",
              "name": "docId",
              "type": "uint256"
            },
            {
              "internalType": "string",
              "name": "baseAdd",
              "type": "string"
            },
            {
              "internalType": "uint256",
              "name": "blockNo",
              "type": "uint256"
            }
          ],
          "internalType": "struct Evidence.CaseInfo[]",
          "name": "",
          "type": "tuple[]"
        }
      ],
      "stateMutability": "view",
      "type": "function"
    },
    {
      "inputs": [
        {
          "internalType": "uint256",
          "name": "caseId",
          "type": "uint256"
        },
        {
          "internalType": "uint256",
          "name": "docId",
          "type": "uint256"
        }
      ],
      "name": "getEvidenceInfo",
      "outputs": [
        {
          "internalType": "uint256",
          "name": "",
          "type": "uint256"
        },
        {
          "internalType": "uint256",
          "name": "",
          "type": "uint256"
        },
        {
          "internalType": "string",
          "name": "",
          "type": "string"
        },
        {
          "internalType": "uint256",
          "name": "",
          "type": "uint256"
        }
      ],
      "stateMutability": "view",
      "type": "function"
    },
    {
      "inputs": [
        {
          "internalType": "uint256",
          "name": "shardNumber",
          "type": "uint256"
        }
      ],
      "name": "getShard",
      "outputs": [
        {
          "components": [
            {
              "internalType": "uint256",
              "name": "shardNo",
              "type": "uint256"
            },
            {
              "internalType": "bytes32",
              "name": "shardAddress",
              "type": "bytes32"
            },
            {
              "components": [
                {
                  "internalType": "uint256[]",
                  "name": "blockNo",
                  "type": "uint256[]"
                },
                {
                  "internalType": "uint256",
                  "name": "validatorNo",
                  "type": "uint256"
                },
                {
                  "internalType": "address",
                  "name": "validatorAddress",
                  "type": "address"
                }
              ],
              "internalType": "struct Evidence.validator[]",
              "name": "v",
              "type": "tuple[]"
            },
            {
              "internalType": "uint256",
              "name": "shardSize",
              "type": "uint256"
            }
          ],
          "internalType": "struct Evidence.Shard",
          "name": "",
          "type": "tuple"
        }
      ],
      "stateMutability": "view",
      "type": "function"
    },
    {
      "inputs": [
        {
          "internalType": "uint256",
          "name": "shardNumber",
          "type": "uint256"
        },
        {
          "internalType": "uint256",
          "name": "validatorNo",
          "type": "uint256"
        }
      ],
      "name": "getValidator",
      "outputs": [
        {
          "components": [
            {
              "internalType": "uint256[]",
              "name": "blockNo",
              "type": "uint256[]"
            },
            {
              "internalType": "uint256",
              "name": "validatorNo",
              "type": "uint256"
            },
            {
              "internalType": "address",
              "name": "validatorAddress",
              "type": "address"
            }
          ],
          "internalType": "struct Evidence.validator",
          "name": "",
          "type": "tuple"
        }
      ],
      "stateMutability": "view",
      "type": "function"
    },
    {
      "inputs": [
        {
          "internalType": "uint256",
          "name": "",
          "type": "uint256"
        }
      ],
      "name": "keys1",
      "outputs": [
        {
          "internalType": "uint256",
          "name": "",
          "type": "uint256"
        }
      ],
      "stateMutability": "view",
      "type": "function"
    },
    {
      "inputs": [
        {
          "internalType": "uint256",
          "name": "",
          "type": "uint256"
        }
      ],
      "name": "keys2",
      "outputs": [
        {
          "internalType": "uint256",
          "name": "",
          "type": "uint256"
        }
      ],
      "stateMutability": "view",
      "type": "function"
    },
    {
      "inputs": [
        {
          "internalType": "uint256",
          "name": "",
          "type": "uint256"
        }
      ],
      "name": "Names",
      "outputs": [
        {
          "internalType": "uint256",
          "name": "",
          "type": "uint256"
        }
      ],
      "stateMutability": "view",
      "type": "function"
    },
    {
      "inputs": [],
      "name": "noOfCases",
      "outputs": [
        {
          "internalType": "uint256",
          "name": "",
          "type": "uint256"
        }
      ],
      "stateMutability": "view",
      "type": "function"
    },
    {
      "inputs": [],
      "name": "noOfDocss",
      "outputs": [
        {
          "internalType": "uint256",
          "name": "",
          "type": "uint256"
        }
      ],
      "stateMutability": "view",
      "type": "function"
    },
    {
      "inputs": [],
      "name": "shardCount",
      "outputs": [
        {
          "internalType": "uint256",
          "name": "",
          "type": "uint256"
        }
      ],
      "stateMutability": "view",
      "type": "function"
    },
    {
      "inputs": [],
      "name": "shardSize",
      "outputs": [
        {
          "internalType": "uint256",
          "name": "",
          "type": "uint256"
        }
      ],
      "stateMutability": "view",
      "type": "function"
    }
  ],
  "bytecode": "60806040526000805560006001556000600b5534801561001e57600080fd5b50614d988061002e6000396000f3fe608060405234801561001057600080fd5b50600436106101a95760003560e01c806375db5ab0116100f9578063ccfaebe911610097578063d504ea1d11610071578063d504ea1d14610474578063e40821ef14610492578063e587f896146104c2578063f01a4e0e146104f2576101a9565b8063ccfaebe914610432578063d0d10af11461044e578063d38e0ae41461046a576101a9565b80639e8cb6bd116100d35780639e8cb6bd146103bb578063b863bd37146103c5578063b86a3197146103f5578063c30cd28f146103ff576101a9565b806375db5ab0146103755780637d743acc1461039357806396f338581461039d576101a9565b80634b561753116101665780635d73831f116101405780635d73831f146102d857806363b4118f1461030857806369246d87146103385780636943935e1461036b576101a9565b80634b561753146102945780634f5b7dc2146102b057806356046088146102ba576101a9565b806304e9c77a146101ae5780631d85fdac146101cc5780631f16a57b146101e85780632e276ce8146102185780633508e2671461024857806336d7215314610278575b600080fd5b6101b6610522565b6040516101c39190612978565b60405180910390f35b6101e660048036038101906101e19190612b19565b610528565b005b61020260048036038101906101fd9190612b88565b61071d565b60405161020f9190612e42565b60405180910390f35b610232600480360381019061022d9190612b88565b61091f565b60405161023f9190612978565b60405180910390f35b610262600480360381019061025d9190612b88565b610937565b60405161026f9190612978565b60405180910390f35b610292600480360381019061028d9190612e64565b61094f565b005b6102ae60048036038101906102a99190612ed0565b610a86565b005b6102b8610d11565b005b6102c2610e46565b6040516102cf9190612978565b60405180910390f35b6102f260048036038101906102ed9190612b88565b610e4c565b6040516102ff9190612978565b60405180910390f35b610322600480360381019061031d9190612e64565b610e70565b60405161032f9190612f60565b60405180910390f35b610352600480360381019061034d9190612e64565b6110ae565b6040516103629493929190613001565b60405180910390f35b6103736112e5565b005b61037d6117a4565b60405161038a9190612978565b60405180910390f35b61039b6117aa565b005b6103a5611b42565b6040516103b29190612978565b60405180910390f35b6103c3611b48565b005b6103df60048036038101906103da9190612b88565b611b83565b6040516103ec9190612978565b60405180910390f35b6103fd611be4565b005b61041960048036038101906104149190612b88565b611d62565b60405161042994939291906131a9565b60405180910390f35b61044c6004803603810190610447919061322f565b6120e2565b005b6104686004803603810190610463919061326f565b612227565b005b6104726122d2565b005b61047c612583565b604051610489919061337a565b60405180910390f35b6104ac60048036038101906104a79190612b88565b612622565b6040516104b99190612978565b60405180910390f35b6104dc60048036038101906104d79190612e64565b612646565b6040516104e99190612978565b60405180910390f35b61050c60048036038101906105079190612b88565b6126b1565b6040516105199190612978565b60405180910390f35b60035481565b6000831415801561054e5750826002600085815260200190815260200160002060000154145b156106e2576000821415801561058e5750816002600085815260200190815260200160002060030160008481526020019081526020016000206000015414155b156106a75781600260008581526020019081526020016000206003016000848152602001908152602001600020600001819055508060026000858152602001908152602001600020600301600084815260200190815260200160002060010190816105f991906135a8565b504360026000858152602001908152602001600020600301600084815260200190815260200160002060020181905550600260008481526020019081526020016000206001016000815480929190610650906136a9565b919050555060016000815480929190610668906136a9565b91905055507fc2e6db28773c295a1e98714e72df1006b3a1dfd413511c9af0b6075c6aeb78cf60405161069a9061373d565b60405180910390a16106dd565b7fc2e6db28773c295a1e98714e72df1006b3a1dfd413511c9af0b6075c6aeb78cf6040516106d4906137a9565b60405180910390a15b610718565b7fc2e6db28773c295a1e98714e72df1006b3a1dfd413511c9af0b6075c6aeb78cf60405161070f90613815565b60405180910390a15b505050565b6107256126c9565b60005b6005805490508110156108de57826005828154811061074a57610749613835565b5b906000526020600020906004020160000154036108cb576005818154811061077557610774613835565b5b9060005260206000209060040201604051806080016040529081600082015481526020016001820154815260200160028201805480602002602001604051908101604052809291908181526020016000905b828210156108b157838290600052602060002090600302016040518060600160405290816000820180548060200260200160405190810160405280929190818152602001828054801561083957602002820191906000526020600020905b815481526020019060010190808311610825575b50505050508152602001600182015481526020016002820160009054906101000a900473ffffffffffffffffffffffffffffffffffffffff1673ffffffffffffffffffffffffffffffffffffffff1673ffffffffffffffffffffffffffffffffffffffff1681525050815260200190600101906107c7565b50505050815260200160038201548152505091505061091a565b80806108d6906136a9565b915050610728565b506040517f08c379a0000000000000000000000000000000000000000000000000000000008152600401610911906138b0565b60405180910390fd5b919050565b600f6020528060005260406000206000915090505481565b60116020528060005260406000206000915090505481565b816003819055508060048190555060005b6003548110156109e957610997817fa0ea57091e7f1d8d0c29ae04029d50d67440988ddd1bba093ef9281745d2c08c60001b6120e2565b60005b6004548110156109d5576109c282739801689c36151683b789ec22fcd0b7fe9dbcc88e610a86565b80806109cd906136a9565b91505061099a565b5080806109e1906136a9565b915050610960565b506109f2610d11565b6109fa611be4565b7f11fbbb6b96d1631875e17b3ade9bba3ff6bc5d2408f7300064a970906a90466b6005604051610a2a9190613c6b565b60405180910390a1610a3a6117aa565b7f11fbbb6b96d1631875e17b3ade9bba3ff6bc5d2408f7300064a970906a90466b6005604051610a6a9190613c6b565b60405180910390a1610a7a6122d2565b610a826112e5565b5050565b6003548210610a9457600080fd5b60045460058381548110610aab57610aaa613835565b5b90600052602060002090600402016003015410610ac757600080fd5b610acf6126f4565b60058381548110610ae357610ae2613835565b5b90600052602060002090600402016002018190806001815401808255809150506001900390600052602060002090600302016000909190919091506000820151816000019080519060200190610b3a92919061272b565b506020820151816001015560408201518160020160006101000a81548173ffffffffffffffffffffffffffffffffffffffff021916908373ffffffffffffffffffffffffffffffffffffffff160217905550505060058381548110610ba257610ba1613835565b5b90600052602060002090600402016003015460058481548110610bc857610bc7613835565b5b906000526020600020906004020160020160058581548110610bed57610bec613835565b5b90600052602060002090600402016003015481548110610c1057610c0f613835565b5b9060005260206000209060030201600101819055508160058481548110610c3a57610c39613835565b5b906000526020600020906004020160020160058581548110610c5f57610c5e613835565b5b90600052602060002090600402016003015481548110610c8257610c81613835565b5b906000526020600020906003020160020160006101000a81548173ffffffffffffffffffffffffffffffffffffffff021916908373ffffffffffffffffffffffffffffffffffffffff16021790555060058381548110610ce557610ce4613835565b5b90600052602060002090600402016003016000815480929190610d07906136a9565b9190505550505050565b60606000600190505b6014811015610e4257600a82908060018154018082558091505060019003906000526020600020016000909190919091509080519060200190610d5e92919061272b565b506000600190505b6014811015610df3576000610d7b8383612646565b0315610df357600a6001600a80549050610d959190613c8d565b81548110610da657610da5613835565b5b90600052602060002001610dba8383612646565b90806001815401808255809150506001900390600052602060002001600090919091909150558080610deb906136a9565b915050610d66565b506000600a6001600a80549050610e0a9190613c8d565b81548110610e1b57610e1a613835565b5b90600052602060002001805490500315610e42578080610e3a906136a9565b915050610d1a565b5050565b60005481565b60108181548110610e5c57600080fd5b906000526020600020016000915090505481565b610e786126f4565b60005b60058054905081101561106c578360058281548110610e9d57610e9c613835565b5b906000526020600020906004020160000154036110595760005b60058281548110610ecb57610eca613835565b5b906000526020600020906004020160030154811015611057578360058381548110610ef957610ef8613835565b5b90600052602060002090600402016002018281548110610f1c57610f1b613835565b5b906000526020600020906003020160010154036110445760058281548110610f4757610f46613835565b5b90600052602060002090600402016002018181548110610f6a57610f69613835565b5b906000526020600020906003020160405180606001604052908160008201805480602002602001604051908101604052809291908181526020018280548015610fd257602002820191906000526020600020905b815481526020019060010190808311610fbe575b50505050508152602001600182015481526020016002820160009054906101000a900473ffffffffffffffffffffffffffffffffffffffff1673ffffffffffffffffffffffffffffffffffffffff1673ffffffffffffffffffffffffffffffffffffffff1681525050925050506110a8565b808061104f906136a9565b915050610eb7565b505b8080611064906136a9565b915050610e7b565b506040517f08c379a000000000000000000000000000000000000000000000000000000000815260040161109f906138b0565b60405180910390fd5b92915050565b600080606060008086141580156110da5750856002600088815260200190815260200160002060000154145b15611297576000851415801561111957508460026000888152602001908152602001600020600301600087815260200190815260200160002060000154145b1561124e57600260008781526020019081526020016000206000015460026000888152602001908152602001600020600301600087815260200190815260200160002060000154600260008981526020019081526020016000206003016000888152602001908152602001600020600101600260008a81526020019081526020016000206003016000898152602001908152602001600020600201548180546111c1906133cb565b80601f01602080910402602001604051908101604052809291908181526020018280546111ed906133cb565b801561123a5780601f1061120f5761010080835404028352916020019161123a565b820191906000526020600020905b81548152906001019060200180831161121d57829003601f168201915b5050505050915093509350935093506112dc565b60008060006040518060400160405280601381526020017f446f63494420646f65736e2774204578697374000000000000000000000000008152509093509350935093506112dc565b60008060006040518060400160405280601481526020017f43617365494420646f65736e27742045786973740000000000000000000000008152509093509350935093505b92959194509250565b60005b6001600a805490506112fa9190613c8d565b81101561138e57600a818154811061131557611314613835565b5b9060005260206000200180549050600f60006001846113349190613cc1565b81526020019081526020016000208190555060106001826113559190613cc1565b90806001815401808255809150506001900390600052602060002001600090919091909150558080611386906136a9565b9150506112e8565b5060005b6010805490508110156114d85760006001826113ae9190613cc1565b90505b6010805490508110156114c457600f6000601083815481106113d6576113d5613835565b5b9060005260206000200154815260200190815260200160002054600f60006010858154811061140857611407613835565b5b906000526020600020015481526020019081526020016000205410156114b15760006010838154811061143e5761143d613835565b5b906000526020600020015490506010828154811061145f5761145e613835565b5b90600052602060002001546010848154811061147e5761147d613835565b5b906000526020600020018190555080601083815481106114a1576114a0613835565b5b9060005260206000200181905550505b80806114bc906136a9565b9150506113b1565b5080806114d0906136a9565b915050611392565b50600060036010805490506114ed9190613d24565b90506000816010805490506115029190613c8d565b905060006001826115139190613cc1565b90505b601080549050811161155e5760128190806001815401808255809150506001900390600052602060002001600090919091909150558080611556906136a9565b915050611516565b5060005b818110156115c5576011600060018461157a87611b83565b6115849190613cc1565b61158e9190613cc1565b815260200190815260200160002060008154809291906115ad906136a9565b919050555080806115bd906136a9565b915050611562565b5060005b60128054905081101561170f5760006001826115e59190613cc1565b90505b6012805490508110156116fb57601160006012838154811061160d5761160c613835565b5b9060005260206000200154815260200190815260200160002054601160006012858154811061163f5761163e613835565b5b906000526020600020015481526020019081526020016000205410156116e85760006012838154811061167557611674613835565b5b906000526020600020015490506012828154811061169657611695613835565b5b9060005260206000200154601284815481106116b5576116b4613835565b5b906000526020600020018190555080601283815481106116d8576116d7613835565b5b9060005260206000200181905550505b80806116f3906136a9565b9150506115e8565b508080611707906136a9565b9150506115c9565b506000600190505b6001826117249190613cc1565b811015611767576012819080600181540180825580915050600190039060005260206000200160009091909190915055808061175f906136a9565b915050611717565b507fed7ea6b6963231db0d5be0c653c0f24ccb5f1a66c86b551e31736522a8ae7a3d60126040516117989190613dcb565b60405180910390a15050565b60015481565b60005b6005805490508110156119bd5760005b600582815481106117d1576117d0613835565b5b9060005260206000209060040201600301548110156119a9575b60016005838154811061180157611800613835565b5b9060005260206000209060040201600201828154811061182457611823613835565b5b906000526020600020906003020160000180549050111561199657600c6005838154811061185557611854613835565b5b9060005260206000209060040201600201828154811061187857611877613835565b5b906000526020600020906003020160000160016005858154811061189f5761189e613835565b5b906000526020600020906004020160020184815481106118c2576118c1613835565b5b9060005260206000209060030201600001805490506118e19190613c8d565b815481106118f2576118f1613835565b5b906000526020600020015490806001815401808255809150506001900390600052602060002001600090919091909150556005828154811061193757611936613835565b5b9060005260206000209060040201600201818154811061195a57611959613835565b5b906000526020600020906003020160000180548061197b5761197a613ded565b5b600190038181906000526020600020016000905590556117eb565b80806119a1906136a9565b9150506117bd565b5080806119b5906136a9565b9150506117ad565b5060005b600580549050811015611b3f5760005b600582815481106119e5576119e4613835565b5b906000526020600020906004020160030154811015611b2b57600060058381548110611a1457611a13613835565b5b90600052602060002090600402016002018281548110611a3757611a36613835565b5b90600052602060002090600302016000018054905003611b185760058281548110611a6557611a64613835565b5b90600052602060002090600402016002018181548110611a8857611a87613835565b5b9060005260206000209060030201600001600c6001600c80549050611aad9190613c8d565b81548110611abe57611abd613835565b5b90600052602060002001549080600181540180825580915050600190039060005260206000200160009091909190915055600c805480611b0157611b00613ded565b5b600190038181906000526020600020016000905590555b8080611b23906136a9565b9150506119d1565b508080611b37906136a9565b9150506119c1565b50565b60045481565b7f59d481530005a70eed1576c936f9fa3f4c8dc680306b72eba055a93272196e2c600154604051611b799190612978565b60405180910390a1565b600080824233600b54604051602001611b9e93929190613e85565b6040516020818303038152906040528051906020012060001c611bc19190613ec2565b9050600b6000815480929190611bd6906136a9565b919050555080915050919050565b60005b6001600a80549050611bf99190613c8d565b811015611d5f5760005b600a8281548110611c1757611c16613835565b5b9060005260206000200180549050811015611d4b5760005b600a811015611c4b578080611c43906136a9565b915050611c2f565b506000611c59600354611b83565b90506000611c8b60058381548110611c7457611c73613835565b5b906000526020600020906004020160030154611b83565b905060058281548110611ca157611ca0613835565b5b90600052602060002090600402016002018181548110611cc457611cc3613835565b5b9060005260206000209060030201600001600a8581548110611ce957611ce8613835565b5b906000526020600020018481548110611d0557611d04613835565b5b9060005260206000200154908060018154018082558091505060019003906000526020600020016000909190919091505550508080611d43906136a9565b915050611c03565b508080611d57906136a9565b915050611be7565b50565b6060600060608060008514158015611d8f5750846002600087815260200190815260200160002060000154145b15612083576000600260008781526020019081526020016000206001015403611df05760608581604051806060016040528060298152602001614d3a60299139919060405180602001604052806000815250909450945094509450506120db565b6000600260008781526020019081526020016000206001015467ffffffffffffffff811115611e2257611e216129ee565b5b604051908082528060200260200182016040528015611e5b57816020015b611e48612778565b815260200190600190039081611e405790505b5090506000600190505b60026000888152602001908152602001600020600101548111611f975760026000888152602001908152602001600020600301600082815260200190815260200160002060405180606001604052908160008201548152602001600182018054611ece906133cb565b80601f0160208091040260200160405190810160405280929190818152602001828054611efa906133cb565b8015611f475780601f10611f1c57610100808354040283529160200191611f47565b820191906000526020600020905b815481529060010190602001808311611f2a57829003601f168201915b5050505050815260200160028201548152505082600183611f689190613c8d565b81518110611f7957611f78613835565b5b60200260200101819052508080611f8f906136a9565b915050611e65565b508560026000888152602001908152602001600020600201826040518060400160405280601481526020017f5375636365737366756c6c792046657463686564000000000000000000000000815250929190818054611ff5906133cb565b80601f0160208091040260200160405190810160405280929190818152602001828054612021906133cb565b801561206e5780601f106120435761010080835404028352916020019161206e565b820191906000526020600020905b81548152906001019060200180831161205157829003601f168201915b505050505091509450945094509450506120db565b60606000816040518060400160405280600a81526020017f496e76616c696420494400000000000000000000000000000000000000000000815250919060405180602001604052806000815250909450945094509450505b9193509193565b60035482106120f057600080fd5b60056006908060018154018082558091505060019003906000526020600020906004020160009091909190915060008201548160000155600182015481600101556002820181600201908054612147929190612799565b50600382015481600301555050600060016005805490506121689190613c8d565b9050826005828154811061217f5761217e613835565b5b90600052602060002090600402016000018190555081600582815481106121a9576121a8613835565b5b9060005260206000209060040201600101819055506000600582815481106121d4576121d3613835565b5b9060005260206000209060040201600301819055507fa0b6b926435442e077ce48476b2457633f8f93c29bf5ba325741f615c778a258838360405161221a929190613f02565b60405180910390a1505050565b600080815480929190612239906136a9565b9190505550600054600260008054815260200190815260200160002060000181905550806002600080548152602001908152602001600020600201908161228091906135a8565b507f61db2bee1b6a5c4c35bc25d487944f36be7bd1e5eb0c771d4a4a9c8cc43175e96002600080548152602001908152602001600020600001546040516122c79190613f77565b60405180910390a150565b60005b6001600a805490506122e79190613c8d565b811015612548576000600d905060005b600a838154811061230b5761230a613835565b5b9060005260206000200180549050811015612470576000600a848154811061233657612335613835565b5b90600052602060002001828154811061235257612351613835565b5b9060005260206000200154905060005b60058054905081101561245b5760005b6005828154811061238657612385613835565b5b9060005260206000209060040201600301548110156124475782600583815481106123b4576123b3613835565b5b906000526020600020906004020160020182815481106123d7576123d6613835565b5b90600052602060002090600302016000016000815481106123fb576123fa613835565b5b90600052602060002001540361243457846000838152602001908152602001600020600081548092919061242e906136a9565b91905055505b808061243f906136a9565b915050612372565b508080612453906136a9565b915050612362565b50508080612468906136a9565b9150506122f7565b50600e600190806001815401808255809150506001900390600052602060002090602091828204019190069091909190916101000a81548160ff02191690831515021790555060005b6005805490508110156125335760058260008381526020019081526020016000205403612520576000600e84815481106124f6576124f5613835565b5b90600052602060002090602091828204019190066101000a81548160ff0219169083151502179055505b808061252b906136a9565b9150506124b9565b50508080612540906136a9565b9150506122d5565b507fc7aa9242b6859a41b4e940775b5c92c5994278919beaa767cea8a9b6458073cc600e6040516125799190614d17565b60405180910390a1565b6060600a805480602002602001604051908101604052809291908181526020016000905b828210156126195783829060005260206000200180548060200260200160405190810160405280929190818152602001828054801561260557602002820191906000526020600020905b8154815260200190600101908083116125f1575b5050505050815260200190600101906125a7565b50505050905090565b6012818154811061263257600080fd5b906000526020600020016000915090505481565b60008054831115801561266f575060026000848152602001908152602001600020600101548211155b156126a6576002600084815260200190815260200160002060030160008381526020019081526020016000206002015490506126ab565b600090505b92915050565b600d6020528060005260406000206000915090505481565b6040518060800160405280600081526020016000801916815260200160608152602001600081525090565b60405180606001604052806060815260200160008152602001600073ffffffffffffffffffffffffffffffffffffffff1681525090565b828054828255906000526020600020908101928215612767579160200282015b8281111561276657825182559160200191906001019061274b565b5b5090506127749190612879565b5090565b60405180606001604052806000815260200160608152602001600081525090565b8280548282559060005260206000209060030281019282156128685760005260206000209160030282015b8281111561286757828260008201816000019080546127e4929190612896565b50600182015481600101556002820160009054906101000a900473ffffffffffffffffffffffffffffffffffffffff168160020160006101000a81548173ffffffffffffffffffffffffffffffffffffffff021916908373ffffffffffffffffffffffffffffffffffffffff1602179055505050916003019190600301906127c4565b5b50905061287591906128e8565b5090565b5b8082111561289257600081600090555060010161287a565b5090565b8280548282559060005260206000209081019282156128d75760005260206000209182015b828111156128d65782548255916001019190600101906128bb565b5b5090506128e49190612879565b5090565b5b8082111561293a5760008082016000612902919061293e565b60018201600090556002820160006101000a81549073ffffffffffffffffffffffffffffffffffffffff0219169055506003016128e9565b5090565b508054600082559060005260206000209081019061295c9190612879565b50565b6000819050919050565b6129728161295f565b82525050565b600060208201905061298d6000830184612969565b92915050565b6000604051905090565b600080fd5b600080fd5b6129b08161295f565b81146129bb57600080fd5b50565b6000813590506129cd816129a7565b92915050565b600080fd5b600080fd5b6000601f19601f8301169050919050565b7f4e487b7100000000000000000000000000000000000000000000000000000000600052604160045260246000fd5b612a26826129dd565b810181811067ffffffffffffffff82111715612a4557612a446129ee565b5b80604052505050565b6000612a58612993565b9050612a648282612a1d565b919050565b600067ffffffffffffffff821115612a8457612a836129ee565b5b612a8d826129dd565b9050602081019050919050565b82818337600083830152505050565b6000612abc612ab784612a69565b612a4e565b905082815260208101848484011115612ad857612ad76129d8565b5b612ae3848285612a9a565b509392505050565b600082601f830112612b0057612aff6129d3565b5b8135612b10848260208601612aa9565b91505092915050565b600080600060608486031215612b3257612b3161299d565b5b6000612b40868287016129be565b9350506020612b51868287016129be565b925050604084013567ffffffffffffffff811115612b7257612b716129a2565b5b612b7e86828701612aeb565b9150509250925092565b600060208284031215612b9e57612b9d61299d565b5b6000612bac848285016129be565b91505092915050565b612bbe8161295f565b82525050565b6000819050919050565b612bd781612bc4565b82525050565b600081519050919050565b600082825260208201905092915050565b6000819050602082019050919050565b600081519050919050565b600082825260208201905092915050565b6000819050602082019050919050565b6000612c418383612bb5565b60208301905092915050565b6000602082019050919050565b6000612c6582612c09565b612c6f8185612c14565b9350612c7a83612c25565b8060005b83811015612cab578151612c928882612c35565b9750612c9d83612c4d565b925050600181019050612c7e565b5085935050505092915050565b600073ffffffffffffffffffffffffffffffffffffffff82169050919050565b6000612ce382612cb8565b9050919050565b612cf381612cd8565b82525050565b60006060830160008301518482036000860152612d168282612c5a565b9150506020830151612d2b6020860182612bb5565b506040830151612d3e6040860182612cea565b508091505092915050565b6000612d558383612cf9565b905092915050565b6000602082019050919050565b6000612d7582612bdd565b612d7f8185612be8565b935083602082028501612d9185612bf9565b8060005b85811015612dcd5784840389528151612dae8582612d49565b9450612db983612d5d565b925060208a01995050600181019050612d95565b50829750879550505050505092915050565b6000608083016000830151612df76000860182612bb5565b506020830151612e0a6020860182612bce565b5060408301518482036040860152612e228282612d6a565b9150506060830151612e376060860182612bb5565b508091505092915050565b60006020820190508181036000830152612e5c8184612ddf565b905092915050565b60008060408385031215612e7b57612e7a61299d565b5b6000612e89858286016129be565b9250506020612e9a858286016129be565b9150509250929050565b612ead81612cd8565b8114612eb857600080fd5b50565b600081359050612eca81612ea4565b92915050565b60008060408385031215612ee757612ee661299d565b5b6000612ef5858286016129be565b9250506020612f0685828601612ebb565b9150509250929050565b60006060830160008301518482036000860152612f2d8282612c5a565b9150506020830151612f426020860182612bb5565b506040830151612f556040860182612cea565b508091505092915050565b60006020820190508181036000830152612f7a8184612f10565b905092915050565b600081519050919050565b600082825260208201905092915050565b60005b83811015612fbc578082015181840152602081019050612fa1565b60008484015250505050565b6000612fd382612f82565b612fdd8185612f8d565b9350612fed818560208601612f9e565b612ff6816129dd565b840191505092915050565b60006080820190506130166000830187612969565b6130236020830186612969565b81810360408301526130358185612fc8565b90506130446060830184612969565b95945050505050565b600081519050919050565b600082825260208201905092915050565b6000819050602082019050919050565b600082825260208201905092915050565b600061309582612f82565b61309f8185613079565b93506130af818560208601612f9e565b6130b8816129dd565b840191505092915050565b60006060830160008301516130db6000860182612bb5565b50602083015184820360208601526130f3828261308a565b91505060408301516131086040860182612bb5565b508091505092915050565b600061311f83836130c3565b905092915050565b6000602082019050919050565b600061313f8261304d565b6131498185613058565b93508360208202850161315b85613069565b8060005b8581101561319757848403895281516131788582613113565b945061318383613127565b925060208a0199505060018101905061315f565b50829750879550505050505092915050565b600060808201905081810360008301526131c38187612fc8565b90506131d26020830186612969565b81810360408301526131e48185612fc8565b905081810360608301526131f88184613134565b905095945050505050565b61320c81612bc4565b811461321757600080fd5b50565b60008135905061322981613203565b92915050565b600080604083850312156132465761324561299d565b5b6000613254858286016129be565b92505060206132658582860161321a565b9150509250929050565b6000602082840312156132855761328461299d565b5b600082013567ffffffffffffffff8111156132a3576132a26129a2565b5b6132af84828501612aeb565b91505092915050565b600081519050919050565b600082825260208201905092915050565b6000819050602082019050919050565b60006132f08383612c5a565b905092915050565b6000602082019050919050565b6000613310826132b8565b61331a81856132c3565b93508360208202850161332c856132d4565b8060005b85811015613368578484038952815161334985826132e4565b9450613354836132f8565b925060208a01995050600181019050613330565b50829750879550505050505092915050565b600060208201905081810360008301526133948184613305565b905092915050565b7f4e487b7100000000000000000000000000000000000000000000000000000000600052602260045260246000fd5b600060028204905060018216806133e357607f821691505b6020821081036133f6576133f561339c565b5b50919050565b60008190508160005260206000209050919050565b60006020601f8301049050919050565b600082821b905092915050565b60006008830261345e7fffffffffffffffffffffffffffffffffffffffffffffffffffffffffffffffff82613421565b6134688683613421565b95508019841693508086168417925050509392505050565b6000819050919050565b60006134a56134a061349b8461295f565b613480565b61295f565b9050919050565b6000819050919050565b6134bf8361348a565b6134d36134cb826134ac565b84845461342e565b825550505050565b600090565b6134e86134db565b6134f38184846134b6565b505050565b5b818110156135175761350c6000826134e0565b6001810190506134f9565b5050565b601f82111561355c5761352d816133fc565b61353684613411565b81016020851015613545578190505b61355961355185613411565b8301826134f8565b50505b505050565b600082821c905092915050565b600061357f60001984600802613561565b1980831691505092915050565b6000613598838361356e565b9150826002028217905092915050565b6135b182612f82565b67ffffffffffffffff8111156135ca576135c96129ee565b5b6135d482546133cb565b6135df82828561351b565b600060209050601f8311600181146136125760008415613600578287015190505b61360a858261358c565b865550613672565b601f198416613620866133fc565b60005b8281101561364857848901518255600182019150602085019450602081019050613623565b868310156136655784890151613661601f89168261356e565b8355505b6001600288020188555050505b505050505050565b7f4e487b7100000000000000000000000000000000000000000000000000000000600052601160045260246000fd5b60006136b48261295f565b91507fffffffffffffffffffffffffffffffffffffffffffffffffffffffffffffffff82036136e6576136e561367a565b5b600182019050919050565b7f45766469656e6365204164646564205375636365737366756c6c790000000000600082015250565b6000613727601b83612f8d565b9150613732826136f1565b602082019050919050565b600060208201905081810360008301526137568161371a565b9050919050565b7f496e76616c696420446f63494400000000000000000000000000000000000000600082015250565b6000613793600d83612f8d565b915061379e8261375d565b602082019050919050565b600060208201905081810360008301526137c281613786565b9050919050565b7f496e76616c696420436173654944000000000000000000000000000000000000600082015250565b60006137ff600e83612f8d565b915061380a826137c9565b602082019050919050565b6000602082019050818103600083015261382e816137f2565b9050919050565b7f4e487b7100000000000000000000000000000000000000000000000000000000600052603260045260246000fd5b7f5368617264206e6f7420666f756e640000000000000000000000000000000000600082015250565b600061389a600f83612f8d565b91506138a582613864565b602082019050919050565b600060208201905081810360008301526138c98161388d565b9050919050565b600081549050919050565b600082825260208201905092915050565b60008190508160005260206000209050919050565b60008160001c9050919050565b6000819050919050565b600061392b61392683613901565b61390e565b9050919050565b6000819050919050565b600061394f61394a83613901565b613932565b9050919050565b600081549050919050565b60008190508160005260206000209050919050565b600081549050919050565b60008190508160005260206000209050919050565b60006139a28254613918565b9050919050565b6000600182019050919050565b60006139c182613976565b6139cb8185612c14565b93506139d683613981565b8060005b83811015613a0e576139eb82613996565b6139f58882612c35565b9750613a00836139a9565b9250506001810190506139da565b5085935050505092915050565b600073ffffffffffffffffffffffffffffffffffffffff82169050919050565b6000613a4e613a4983613901565b613a1b565b9050919050565b60006060830160008084018583036000870152613a7283826139b6565b92505060018401549050613a8581613918565b613a926020870182612bb5565b5060028401549050613aa381613a3b565b613ab06040870182612cea565b50819250505092915050565b6000613ac88383613a55565b905092915050565b6000600382019050919050565b6000613ae882613956565b613af28185612be8565b935083602082028501613b0485613961565b8060005b85811015613b3f57848403895281613b208582613abc565b9450613b2b83613ad0565b925060208a01995050600181019050613b08565b50829750879550505050505092915050565b6000608083016000808401549050613b6881613918565b613b756000870182612bb5565b5060018401549050613b868161393c565b613b936020870182612bce565b50600284018583036040870152613baa8382613add565b92505060038401549050613bbd81613918565b613bca6060870182612bb5565b50819250505092915050565b6000613be28383613b51565b905092915050565b6000600482019050919050565b6000613c02826138d0565b613c0c81856138db565b935083602082028501613c1e856138ec565b8060005b85811015613c5957848403895281613c3a8582613bd6565b9450613c4583613bea565b925060208a01995050600181019050613c22565b50829750879550505050505092915050565b60006020820190508181036000830152613c858184613bf7565b905092915050565b6000613c988261295f565b9150613ca38361295f565b9250828203905081811115613cbb57613cba61367a565b5b92915050565b6000613ccc8261295f565b9150613cd78361295f565b9250828201905080821115613cef57613cee61367a565b5b92915050565b7f4e487b7100000000000000000000000000000000000000000000000000000000600052601260045260246000fd5b6000613d2f8261295f565b9150613d3a8361295f565b925082613d4a57613d49613cf5565b5b828204905092915050565b600082825260208201905092915050565b6000613d7182613976565b613d7b8185613d55565b9350613d8683613981565b8060005b83811015613dbe57613d9b82613996565b613da58882612c35565b9750613db0836139a9565b925050600181019050613d8a565b5085935050505092915050565b60006020820190508181036000830152613de58184613d66565b905092915050565b7f4e487b7100000000000000000000000000000000000000000000000000000000600052603160045260246000fd5b6000819050919050565b613e37613e328261295f565b613e1c565b82525050565b60008160601b9050919050565b6000613e5582613e3d565b9050919050565b6000613e6782613e4a565b9050919050565b613e7f613e7a82612cd8565b613e5c565b82525050565b6000613e918286613e26565b602082019150613ea18285613e6e565b601482019150613eb18284613e26565b602082019150819050949350505050565b6000613ecd8261295f565b9150613ed88361295f565b925082613ee857613ee7613cf5565b5b828206905092915050565b613efc81612bc4565b82525050565b6000604082019050613f176000830185612969565b613f246020830184613ef3565b9392505050565b7f53756363657366756c6c79206372656174656420612043617365000000000000600082015250565b6000613f61601a83612f8d565b9150613f6c82613f2b565b602082019050919050565b60006040820190508181036000830152613f9081613f54565b9050613f9f6020830184612969565b92915050565b600081549050919050565b600082825260208201905092915050565b60008190508160005260206000209050919050565b60008115159050919050565b613feb81613fd6565b82525050565b600060ff82169050919050565b600061401161400c83613901565b613ff1565b9050919050565b60008160081c9050919050565b600061403861403383614018565b613ff1565b9050919050565b60008160101c9050919050565b600061405f61405a8361403f565b613ff1565b9050919050565b60008160181c9050919050565b600061408661408183614066565b613ff1565b9050919050565b60008160201c9050919050565b60006140ad6140a88361408d565b613ff1565b9050919050565b60008160281c9050919050565b60006140d46140cf836140b4565b613ff1565b9050919050565b60008160301c9050919050565b60006140fb6140f6836140db565b613ff1565b9050919050565b60008160381c9050919050565b600061412261411d83614102565b613ff1565b9050919050565b60008160401c9050919050565b600061414961414483614129565b613ff1565b9050919050565b60008160481c9050919050565b600061417061416b83614150565b613ff1565b9050919050565b60008160501c9050919050565b600061419761419283614177565b613ff1565b9050919050565b60008160581c9050919050565b60006141be6141b98361419e565b613ff1565b9050919050565b60008160601c9050919050565b60006141e56141e0836141c5565b613ff1565b9050919050565b60008160681c9050919050565b600061420c614207836141ec565b613ff1565b9050919050565b60008160701c9050919050565b600061423361422e83614213565b613ff1565b9050919050565b60008160781c9050919050565b600061425a6142558361423a565b613ff1565b9050919050565b60008160801c9050919050565b600061428161427c83614261565b613ff1565b9050919050565b60008160881c9050919050565b60006142a86142a383614288565b613ff1565b9050919050565b60008160901c9050919050565b60006142cf6142ca836142af565b613ff1565b9050919050565b60008160981c9050919050565b60006142f66142f1836142d6565b613ff1565b9050919050565b60008160a01c9050919050565b600061431d614318836142fd565b613ff1565b9050919050565b60008160a81c9050919050565b600061434461433f83614324565b613ff1565b9050919050565b60008160b01c9050919050565b600061436b6143668361434b565b613ff1565b9050919050565b60008160b81c9050919050565b600061439261438d83614372565b613ff1565b9050919050565b60008160c01c9050919050565b60006143b96143b483614399565b613ff1565b9050919050565b60008160c81c9050919050565b60006143e06143db836143c0565b613ff1565b9050919050565b60008160d01c9050919050565b6000614407614402836143e7565b613ff1565b9050919050565b60008160d81c9050919050565b600061442e6144298361440e565b613ff1565b9050919050565b60008160e01c9050919050565b600061445561445083614435565b613ff1565b9050919050565b60008160e81c9050919050565b600061447c6144778361445c565b613ff1565b9050919050565b60008160f01c9050919050565b60006144a361449e83614483565b613ff1565b9050919050565b60008160f81c9050919050565b60006144ca6144c5836144aa565b613ff1565b9050919050565b60006144dc82613fa5565b6144e68185613fb0565b9350836144f284613fc1565b600060011561481f575b8360016020038201101561481e57815461451e8861451983613ffe565b613fe2565b6020880197506145368861453183614025565b613fe2565b60208801975061454e886145498361404c565b613fe2565b6020880197506145668861456183614073565b613fe2565b60208801975061457e886145798361409a565b613fe2565b60208801975061459688614591836140c1565b613fe2565b6020880197506145ae886145a9836140e8565b613fe2565b6020880197506145c6886145c18361410f565b613fe2565b6020880197506145de886145d983614136565b613fe2565b6020880197506145f6886145f18361415d565b613fe2565b60208801975061460e8861460983614184565b613fe2565b60208801975061462688614621836141ab565b613fe2565b60208801975061463e88614639836141d2565b613fe2565b60208801975061465688614651836141f9565b613fe2565b60208801975061466e8861466983614220565b613fe2565b6020880197506146868861468183614247565b613fe2565b60208801975061469e886146998361426e565b613fe2565b6020880197506146b6886146b183614295565b613fe2565b6020880197506146ce886146c9836142bc565b613fe2565b6020880197506146e6886146e1836142e3565b613fe2565b6020880197506146fe886146f98361430a565b613fe2565b6020880197506147168861471183614331565b613fe2565b60208801975061472e8861472983614358565b613fe2565b602088019750614746886147418361437f565b613fe2565b60208801975061475e88614759836143a6565b613fe2565b60208801975061477688614771836143cd565b613fe2565b60208801975061478e88614789836143f4565b613fe2565b6020880197506147a6886147a18361441b565b613fe2565b6020880197506147be886147b983614442565b613fe2565b6020880197506147d6886147d183614469565b613fe2565b6020880197506147ee886147e983614490565b613fe2565b60208801975061480688614801836144b7565b613fe2565b602088019750600183019250506020810190506144fc565b5b600115614d0a5781548482101561484f576148428861483d83613ffe565b613fe2565b6020880197506001820191505b84821015614876576148698861486483614025565b613fe2565b6020880197506001820191505b8482101561489d576148908861488b8361404c565b613fe2565b6020880197506001820191505b848210156148c4576148b7886148b283614073565b613fe2565b6020880197506001820191505b848210156148eb576148de886148d98361409a565b613fe2565b6020880197506001820191505b848210156149125761490588614900836140c1565b613fe2565b6020880197506001820191505b848210156149395761492c88614927836140e8565b613fe2565b6020880197506001820191505b84821015614960576149538861494e8361410f565b613fe2565b6020880197506001820191505b848210156149875761497a8861497583614136565b613fe2565b6020880197506001820191505b848210156149ae576149a18861499c8361415d565b613fe2565b6020880197506001820191505b848210156149d5576149c8886149c383614184565b613fe2565b6020880197506001820191505b848210156149fc576149ef886149ea836141ab565b613fe2565b6020880197506001820191505b84821015614a2357614a1688614a11836141d2565b613fe2565b6020880197506001820191505b84821015614a4a57614a3d88614a38836141f9565b613fe2565b6020880197506001820191505b84821015614a7157614a6488614a5f83614220565b613fe2565b6020880197506001820191505b84821015614a9857614a8b88614a8683614247565b613fe2565b6020880197506001820191505b84821015614abf57614ab288614aad8361426e565b613fe2565b6020880197506001820191505b84821015614ae657614ad988614ad483614295565b613fe2565b6020880197506001820191505b84821015614b0d57614b0088614afb836142bc565b613fe2565b6020880197506001820191505b84821015614b3457614b2788614b22836142e3565b613fe2565b6020880197506001820191505b84821015614b5b57614b4e88614b498361430a565b613fe2565b6020880197506001820191505b84821015614b8257614b7588614b7083614331565b613fe2565b6020880197506001820191505b84821015614ba957614b9c88614b9783614358565b613fe2565b6020880197506001820191505b84821015614bd057614bc388614bbe8361437f565b613fe2565b6020880197506001820191505b84821015614bf757614bea88614be5836143a6565b613fe2565b6020880197506001820191505b84821015614c1e57614c1188614c0c836143cd565b613fe2565b6020880197506001820191505b84821015614c4557614c3888614c33836143f4565b613fe2565b6020880197506001820191505b84821015614c6c57614c5f88614c5a8361441b565b613fe2565b6020880197506001820191505b84821015614c9357614c8688614c8183614442565b613fe2565b6020880197506001820191505b84821015614cba57614cad88614ca883614469565b613fe2565b6020880197506001820191505b84821015614ce157614cd488614ccf83614490565b613fe2565b6020880197506001820191505b84821015614d0857614cfb88614cf6836144b7565b613fe2565b6020880197506001820191505b505b8694505050505092915050565b60006020820190508181036000830152614d3181846144d1565b90509291505056fe43617365204578697374206275742045766964656e63657320617265206e6f742075706c6f61646564a2646970667358221220016bdbc9b8960ed826c580a5130681c7bd6f0261bd27c2fbe858fc56feec0d0764736f6c63430008120033",
  "deployedBytecode": "0x608060405234801561001057600080fd5b50600436106101a95760003560e01c806375db5ab0116100f9578063ccfaebe911610097578063d504ea1d11610071578063d504ea1d14610474578063e40821ef14610492578063e587f896146104c2578063f01a4e0e146104f2576101a9565b8063ccfaebe914610432578063d0d10af11461044e578063d38e0ae41461046a576101a9565b80639e8cb6bd116100d35780639e8cb6bd146103bb578063b863bd37146103c5578063b86a3197146103f5578063c30cd28f146103ff576101a9565b806375db5ab0146103755780637d743acc1461039357806396f338581461039d576101a9565b80634b561753116101665780635d73831f116101405780635d73831f146102d857806363b4118f1461030857806369246d87146103385780636943935e1461036b576101a9565b80634b561753146102945780634f5b7dc2146102b057806356046088146102ba576101a9565b806304e9c77a146101ae5780631d85fdac146101cc5780631f16a57b146101e85780632e276ce8146102185780633508e2671461024857806336d7215314610278575b600080fd5b6101b6610522565b6040516101c39190613c59565b60405180910390f35b6101e660048036036101e19190810190612937565b610528565b005b61020260048036036101fd919081019061285a565b610718565b60405161020f9190613c15565b60405180910390f35b610232600480360361022d919081019061285a565b61090a565b60405161023f9190613c59565b60405180910390f35b610262600480360361025d919081019061285a565b610922565b60405161026f9190613c59565b60405180910390f35b610292600480360361028d91908101906128fb565b61093a565b005b6102ae60048036036102a99190810190612883565b610a6b565b005b6102b8610cad565b005b6102c2610dc6565b6040516102cf9190613c59565b60405180910390f35b6102f260048036036102ed919081019061285a565b610dcc565b6040516102ff9190613c59565b60405180910390f35b610322600480360361031d91908101906128fb565b610ded565b60405161032f9190613c37565b60405180910390f35b610352600480360361034d91908101906128fb565b610ffd565b6040516103629493929190613c9d565b60405180910390f35b610373611256565b005b61037d61163d565b60405161038a9190613c59565b60405180910390f35b61039b611643565b005b6103a5611946565b6040516103b29190613c59565b60405180910390f35b6103c361194c565b005b6103df60048036036103da919081019061285a565b611987565b6040516103ec9190613c59565b60405180910390f35b6103fd6119e0565b005b6104196004803603610414919081019061285a565b611b25565b6040516104299493929190613b0d565b60405180910390f35b61044c600480360361044791908101906128bf565b611e9a565b005b61046860048036036104639190810190612819565b611fc4565b005b610472612070565b005b61047c6122d0565b6040516104899190613a85565b60405180910390f35b6104ac60048036036104a7919081019061285a565b61236f565b6040516104b99190613c59565b60405180910390f35b6104dc60048036036104d791908101906128fb565b612390565b6040516104e99190613c59565b60405180910390f35b61050c6004803603610507919081019061285a565b6123fb565b6040516105199190613c59565b60405180910390f35b60035481565b6000831415801561054e5750826002600085815260200190815260200160002060000154145b156106dd576000821415801561058e5750816002600085815260200190815260200160002060030160008481526020019081526020016000206000015414155b156106a2578160026000858152602001908152602001600020600301600084815260200190815260200160002060000181905550806002600085815260200190815260200160002060030160008481526020019081526020016000206001019080519060200190610600929190612413565b50436002600085815260200190815260200160002060030160008481526020019081526020016000206002018190555060026000848152602001908152602001600020600101600081548092919060010191905055506001600081548092919060010191905055507fc2e6db28773c295a1e98714e72df1006b3a1dfd413511c9af0b6075c6aeb78cf60405161069590613ba7565b60405180910390a16106d8565b7fc2e6db28773c295a1e98714e72df1006b3a1dfd413511c9af0b6075c6aeb78cf6040516106cf90613b67565b60405180910390a15b610713565b7fc2e6db28773c295a1e98714e72df1006b3a1dfd413511c9af0b6075c6aeb78cf60405161070a90613b87565b60405180910390a15b505050565b610720612493565b60008090505b6005805490508110156108c957826005828154811061074157fe5b90600052602060002090600402016000015414156108bc576005818154811061076657fe5b9060005260206000209060040201604051806080016040529081600082015481526020016001820154815260200160028201805480602002602001604051908101604052809291908181526020016000905b828210156108a257838290600052602060002090600302016040518060600160405290816000820180548060200260200160405190810160405280929190818152602001828054801561082a57602002820191906000526020600020905b815481526020019060010190808311610816575b50505050508152602001600182015481526020016002820160009054906101000a900473ffffffffffffffffffffffffffffffffffffffff1673ffffffffffffffffffffffffffffffffffffffff1673ffffffffffffffffffffffffffffffffffffffff1681525050815260200190600101906107b8565b505050508152602001600382015481525050915050610905565b8080600101915050610726565b506040517f08c379a00000000000000000000000000000000000000000000000000000000081526004016108fc90613bf5565b60405180910390fd5b919050565b600f6020528060005260406000206000915090505481565b60116020528060005260406000206000915090505481565b816003819055508060048190555060008090505b6003548110156109ce57610985817fa0ea57091e7f1d8d0c29ae04029d50d67440988ddd1bba093ef9281745d2c08c60001b611e9a565b60008090505b6004548110156109c0576109b382739801689c36151683b789ec22fcd0b7fe9dbcc88e610a6b565b808060010191505061098b565b50808060010191505061094e565b506109d7610cad565b6109df6119e0565b7f11fbbb6b96d1631875e17b3ade9bba3ff6bc5d2408f7300064a970906a90466b6005604051610a0f9190613ac9565b60405180910390a1610a1f611643565b7f11fbbb6b96d1631875e17b3ade9bba3ff6bc5d2408f7300064a970906a90466b6005604051610a4f9190613ac9565b60405180910390a1610a5f612070565b610a67611256565b5050565b6003548210610a7957600080fd5b60045460058381548110610a8957fe5b90600052602060002090600402016003015410610aa557600080fd5b610aad6124be565b60058381548110610aba57fe5b906000526020600020906004020160020181908060018154018082558091505090600182039060005260206000209060030201600090919290919091506000820151816000019080519060200190610b139291906124f5565b506020820151816001015560408201518160020160006101000a81548173ffffffffffffffffffffffffffffffffffffffff021916908373ffffffffffffffffffffffffffffffffffffffff16021790555050505060058381548110610b7557fe5b90600052602060002090600402016003015460058481548110610b9457fe5b906000526020600020906004020160020160058581548110610bb257fe5b90600052602060002090600402016003015481548110610bce57fe5b9060005260206000209060030201600101819055508160058481548110610bf157fe5b906000526020600020906004020160020160058581548110610c0f57fe5b90600052602060002090600402016003015481548110610c2b57fe5b906000526020600020906003020160020160006101000a81548173ffffffffffffffffffffffffffffffffffffffff021916908373ffffffffffffffffffffffffffffffffffffffff16021790555060058381548110610c8757fe5b906000526020600020906004020160030160008154809291906001019190505550505050565b60606000600190505b6014811015610dc257600a829080600181540180825580915050906001820390600052602060002001600090919290919091509080519060200190610cfc929190612542565b50506000600190505b6014811015610d84576000610d1a8383612390565b1415610d2557610d84565b600a6001600a805490500381548110610d3a57fe5b90600052602060002001610d4e8383612390565b90806001815401808255809150509060018203906000526020600020016000909192909190915055508080600101915050610d05565b506000600a6001600a805490500381548110610d9c57fe5b90600052602060002001805490501415610db557610dc2565b8080600101915050610cb6565b5050565b60005481565b60108181548110610dd957fe5b906000526020600020016000915090505481565b610df56124be565b60008090505b600580549050811015610fbb578360058281548110610e1657fe5b9060005260206000209060040201600001541415610fae5760008090505b60058281548110610e4157fe5b906000526020600020906004020160030154811015610fac578360058381548110610e6857fe5b90600052602060002090600402016002018281548110610e8457fe5b9060005260206000209060030201600101541415610f9f5760058281548110610ea957fe5b90600052602060002090600402016002018181548110610ec557fe5b906000526020600020906003020160405180606001604052908160008201805480602002602001604051908101604052809291908181526020018280548015610f2d57602002820191906000526020600020905b815481526020019060010190808311610f19575b50505050508152602001600182015481526020016002820160009054906101000a900473ffffffffffffffffffffffffffffffffffffffff1673ffffffffffffffffffffffffffffffffffffffff1673ffffffffffffffffffffffffffffffffffffffff168152505092505050610ff7565b8080600101915050610e34565b505b8080600101915050610dfb565b506040517f08c379a0000000000000000000000000000000000000000000000000000000008152600401610fee90613bf5565b60405180910390fd5b92915050565b600080606060008086141580156110295750856002600088815260200190815260200160002060000154145b156111ff576000851415801561106857508460026000888152602001908152602001600020600301600087815260200190815260200160002060000154145b156111ad57600260008781526020019081526020016000206000015460026000888152602001908152602001600020600301600087815260200190815260200160002060000154600260008981526020019081526020016000206003016000888152602001908152602001600020600101600260008a8152602001908152602001600020600301600089815260200190815260200160002060020154818054600181600116156101000203166002900480601f0160208091040260200160405190810160405280929190818152602001828054600181600116156101000203166002900480156111995780601f1061116e57610100808354040283529160200191611199565b820191906000526020600020905b81548152906001019060200180831161117c57829003601f168201915b50505050509150935093509350935061124d565b60008060008292508191506040518060400160405280601381526020017f446f63494420646f65736e27742045786973740000000000000000000000000081525090809050935093509350935061124d565b60008060008292508191506040518060400160405280601481526020017f43617365494420646f65736e27742045786973740000000000000000000000008152509080905093509350935093505b92959194509250565b60008090505b6001600a80549050038110156112dd57600a818154811061127957fe5b9060005260206000200180549050600f6000600184018152602001908152602001600020819055506010600182019080600181540180825580915050906001820390600052602060002001600090919290919091505550808060010191505061125c565b5060008090505b6010805490508110156113eb5760006001820190505b6010805490508110156113dd57600f60006010838154811061131857fe5b9060005260206000200154815260200190815260200160002054600f60006010858154811061134357fe5b906000526020600020015481526020019081526020016000205410156113d05760006010838154811061137257fe5b906000526020600020015490506010828154811061138c57fe5b9060005260206000200154601084815481106113a457fe5b906000526020600020018190555080601083815481106113c057fe5b9060005260206000200181905550505b80806001019150506112fa565b5080806001019150506112e4565b5060006003601080549050816113fd57fe5b04905060008160108054905003905060006001820190505b601080549050811161145a5760128190806001815401808255809150509060018203906000526020600020016000909192909190915055508080600101915050611415565b5060008090505b818110156114a6576011600060018461147987611987565b01018152602001908152602001600020600081548092919060010191905055508080600101915050611461565b5060008090505b6012805490508110156115b45760006001820190505b6012805490508110156115a65760116000601283815481106114e157fe5b9060005260206000200154815260200190815260200160002054601160006012858154811061150c57fe5b906000526020600020015481526020019081526020016000205410156115995760006012838154811061153b57fe5b906000526020600020015490506012828154811061155557fe5b90600052602060002001546012848154811061156d57fe5b9060005260206000200181905550806012838154811061158957fe5b9060005260206000200181905550505b80806001019150506114c3565b5080806001019150506114ad565b506000600190505b6001820181101561160057601281908060018154018082558091505090600182039060005260206000200160009091929091909150555080806001019150506115bc565b507fed7ea6b6963231db0d5be0c653c0f24ccb5f1a66c86b551e31736522a8ae7a3d60126040516116319190613aeb565b60405180910390a15050565b60015481565b60008090505b6005805490508110156117fd5760008090505b6005828154811061166957fe5b9060005260206000209060040201600301548110156117ef575b60016005838154811061169257fe5b906000526020600020906004020160020182815481106116ae57fe5b90600052602060002090600302016000018054905011156117e257600c600583815481106116d857fe5b906000526020600020906004020160020182815481106116f457fe5b906000526020600020906003020160000160016005858154811061171457fe5b9060005260206000209060040201600201848154811061173057fe5b906000526020600020906003020160000180549050038154811061175057fe5b906000526020600020015490806001815401808255809150509060018203906000526020600020016000909192909190915055506005828154811061179157fe5b906000526020600020906004020160020181815481106117ad57fe5b90600052602060002090600302016000018054806117c757fe5b60019003818190600052602060002001600090559055611683565b808060010191505061165c565b508080600101915050611649565b5060008090505b6005805490508110156119435760008090505b6005828154811061182457fe5b9060005260206000209060040201600301548110156119355760006005838154811061184c57fe5b9060005260206000209060040201600201828154811061186857fe5b9060005260206000209060030201600001805490501415611928576005828154811061189057fe5b906000526020600020906004020160020181815481106118ac57fe5b9060005260206000209060030201600001600c6001600c8054905003815481106118d257fe5b90600052602060002001549080600181540180825580915050906001820390600052602060002001600090919290919091505550600c80548061191157fe5b600190038181906000526020600020016000905590555b8080600101915050611817565b508080600101915050611804565b50565b60045481565b7f59d481530005a70eed1576c936f9fa3f4c8dc680306b72eba055a93272196e2c60015460405161197d9190613c59565b60405180910390a1565b600080824233600b546040516020016119a293929190613a48565b6040516020818303038152906040528051906020012060001c816119c257fe5b069050600b6000815480929190600101919050555080915050919050565b60008090505b6001600a8054905003811015611b225760008090505b600a8281548110611a0957fe5b9060005260206000200180549050811015611b145760008090505b600a811015611a3a578080600101915050611a24565b506000611a48600354611987565b90506000611a7360058381548110611a5c57fe5b906000526020600020906004020160030154611987565b905060058281548110611a8257fe5b90600052602060002090600402016002018181548110611a9e57fe5b9060005260206000209060030201600001600a8581548110611abc57fe5b906000526020600020018481548110611ad157fe5b90600052602060002001549080600181540180825580915050906001820390600052602060002001600090919290919091505550505080806001019150506119fc565b5080806001019150506119e6565b50565b6060600060608060008514158015611b525750846002600087815260200190815260200160002060000154145b15611e3857600060026000878152602001908152602001600020600101541415611bb457606085816040518060600160405280602981526020016145f26029913991906040518060200160405280600081525090945094509450945050611e93565b60606002600087815260200190815260200160002060010154604051908082528060200260200182016040528015611c0657816020015b611bf361258f565b815260200190600190039081611beb5790505b5090506000600190505b60026000888152602001908152602001600020600101548111611d3c5760026000888152602001908152602001600020600301600082815260200190815260200160002060405180606001604052908160008201548152602001600182018054600181600116156101000203166002900480601f016020809104026020016040519081016040528092919081815260200182805460018160011615610100020316600290048015611d025780601f10611cd757610100808354040283529160200191611d02565b820191906000526020600020905b815481529060010190602001808311611ce557829003601f168201915b50505050508152602001600282015481525050826001830381518110611d2457fe5b60200260200101819052508080600101915050611c10565b508560026000888152602001908152602001600020600201826040518060400160405280601481526020017f5375636365737366756c6c792046657463686564000000000000000000000000815250929190818054600181600116156101000203166002900480601f016020809104026020016040519081016040528092919081815260200182805460018160011615610100020316600290048015611e235780601f10611df857610100808354040283529160200191611e23565b820191906000526020600020905b815481529060010190602001808311611e0657829003601f168201915b50505050509150945094509450945050611e93565b60606000816040518060400160405280600a81526020017f496e76616c696420494400000000000000000000000000000000000000000000815250919081915060405180602001604052806000815250909450945094509450505b9193509193565b6003548210611ea857600080fd5b600560069080600181540180825580915050906001820390600052602060002090600402016000909192909190915060008201548160000155600182015481600101556002820181600201908054611f019291906125b0565b5060038201548160030155505050600060016005805490500390508260058281548110611f2a57fe5b9060005260206000209060040201600001819055508160058281548110611f4d57fe5b906000526020600020906004020160010181905550600060058281548110611f7157fe5b9060005260206000209060040201600301819055507fa0b6b926435442e077ce48476b2457633f8f93c29bf5ba325741f615c778a2588383604051611fb7929190613c74565b60405180910390a1505050565b6000808154809291906001019190505550600054600260008054815260200190815260200160002060000181905550806002600080548152602001908152602001600020600201908051906020019061201e929190612413565b507f61db2bee1b6a5c4c35bc25d487944f36be7bd1e5eb0c771d4a4a9c8cc43175e96002600080548152602001908152602001600020600001546040516120659190613bc7565b60405180910390a150565b60008090505b6001600a8054905003811015612295576000600d905060008090505b600a838154811061209f57fe5b90600052602060002001805490508110156121c9576000600a84815481106120c357fe5b9060005260206000200182815481106120d857fe5b9060005260206000200154905060008090505b6005805490508110156121ba5760008090505b6005828154811061210b57fe5b9060005260206000209060040201600301548110156121ac57826005838154811061213257fe5b9060005260206000209060040201600201828154811061214e57fe5b906000526020600020906003020160000160008154811061216b57fe5b9060005260206000200154141561219f57846000838152602001908152602001600020600081548092919060010191905055505b80806001019150506120fe565b5080806001019150506120eb565b50508080600101915050612092565b50600e6001908060018154018082558091505090600182039060005260206000209060209182820401919006909192909190916101000a81548160ff0219169083151502179055505060008090505b600580549050811015612286576005826000838152602001908152602001600020541415612279576000600e848154811061224f57fe5b90600052602060002090602091828204019190066101000a81548160ff0219169083151502179055505b8080600101915050612218565b50508080600101915050612076565b507fc7aa9242b6859a41b4e940775b5c92c5994278919beaa767cea8a9b6458073cc600e6040516122c69190613aa7565b60405180910390a1565b6060600a805480602002602001604051908101604052809291908181526020016000905b828210156123665783829060005260206000200180548060200260200160405190810160405280929190818152602001828054801561235257602002820191906000526020600020905b81548152602001906001019080831161233e575b5050505050815260200190600101906122f4565b50505050905090565b6012818154811061237c57fe5b906000526020600020016000915090505481565b6000805483111580156123b9575060026000848152602001908152602001600020600101548211155b156123f0576002600084815260200190815260200160002060030160008381526020019081526020016000206002015490506123f5565b600090505b92915050565b600d6020528060005260406000206000915090505481565b828054600181600116156101000203166002900490600052602060002090601f016020900481019282601f1061245457805160ff1916838001178555612482565b82800160010185558215612482579182015b82811115612481578251825591602001919060010190612466565b5b50905061248f9190612690565b5090565b6040518060800160405280600081526020016000801916815260200160608152602001600081525090565b60405180606001604052806060815260200160008152602001600073ffffffffffffffffffffffffffffffffffffffff1681525090565b828054828255906000526020600020908101928215612531579160200282015b82811115612530578251825591602001919060010190612515565b5b50905061253e9190612690565b5090565b82805482825590600052602060002090810192821561257e579160200282015b8281111561257d578251825591602001919060010190612562565b5b50905061258b9190612690565b5090565b60405180606001604052806000815260200160608152602001600081525090565b82805482825590600052602060002090600302810192821561267f5760005260206000209160030282015b8281111561267e57828260008201816000019080546125fb9291906126b5565b50600182015481600101556002820160009054906101000a900473ffffffffffffffffffffffffffffffffffffffff168160020160006101000a81548173ffffffffffffffffffffffffffffffffffffffff021916908373ffffffffffffffffffffffffffffffffffffffff1602179055505050916003019190600301906125db565b5b50905061268c9190612707565b5090565b6126b291905b808211156126ae576000816000905550600101612696565b5090565b90565b8280548282559060005260206000209081019282156126f65760005260206000209182015b828111156126f55782548255916001019190600101906126da565b5b5090506127039190612690565b5090565b61276291905b8082111561275e57600080820160006127269190612765565b60018201600090556002820160006101000a81549073ffffffffffffffffffffffffffffffffffffffff02191690555060030161270d565b5090565b90565b50805460008255906000526020600020908101906127839190612690565b50565b600081359050612795816145ac565b92915050565b6000813590506127aa816145c3565b92915050565b600082601f8301126127c157600080fd5b81356127d46127cf82613d16565b613ce9565b915080825260208301602083018583830111156127f057600080fd5b6127fb838284613fdd565b50505092915050565b600081359050612813816145da565b92915050565b60006020828403121561282b57600080fd5b600082013567ffffffffffffffff81111561284557600080fd5b612851848285016127b0565b91505092915050565b60006020828403121561286c57600080fd5b600061287a84828501612804565b91505092915050565b6000806040838503121561289657600080fd5b60006128a485828601612804565b92505060206128b585828601612786565b9150509250929050565b600080604083850312156128d257600080fd5b60006128e085828601612804565b92505060206128f18582860161279b565b9150509250929050565b6000806040838503121561290e57600080fd5b600061291c85828601612804565b925050602061292d85828601612804565b9150509250929050565b60008060006060848603121561294c57600080fd5b600061295a86828701612804565b935050602061296b86828701612804565b925050604084013567ffffffffffffffff81111561298857600080fd5b612994868287016127b0565b9150509250925092565b60006129aa83836134cd565b905092915050565b60006129be83836137d4565b905092915050565b60006129d28383613887565b905092915050565b60006129e6838361395c565b905092915050565b60006129fa83836139ac565b905092915050565b6000612a0e8383613a13565b60208301905092915050565b612a2b612a2682613f8b565b6143ad565b82525050565b612a3a81613f79565b82525050565b6000612a4b82613dd6565b612a558185613e9f565b935083602082028501612a6785613d42565b8060005b85811015612aa35784840389528151612a84858261299e565b9450612a8f83613e44565b925060208a01995050600181019050612a6b565b50829750879550505050505092915050565b6000612ac082613de1565b612aca8185613eb0565b935083612ad684613d52565b6000600115612e03575b83600160200382011015612e02578154612b0288612afd83614039565b6135f5565b602088019750612b1a88612b158361418b565b6135f5565b602088019750612b3288612b2d836142a9565b6135f5565b602088019750612b4a88612b45836142f7565b6135f5565b602088019750612b6288612b5d83614311565b6135f5565b602088019750612b7a88612b758361432b565b6135f5565b602088019750612b9288612b8d83614345565b6135f5565b602088019750612baa88612ba58361435f565b6135f5565b602088019750612bc288612bbd83614379565b6135f5565b602088019750612bda88612bd583614393565b6135f5565b602088019750612bf288612bed83614087565b6135f5565b602088019750612c0a88612c05836140a1565b6135f5565b602088019750612c2288612c1d836140bb565b6135f5565b602088019750612c3a88612c35836140d5565b6135f5565b602088019750612c5288612c4d836140ef565b6135f5565b602088019750612c6a88612c6583614109565b6135f5565b602088019750612c8288612c7d83614123565b6135f5565b602088019750612c9a88612c958361413d565b6135f5565b602088019750612cb288612cad83614157565b6135f5565b602088019750612cca88612cc583614171565b6135f5565b602088019750612ce288612cdd836141a5565b6135f5565b602088019750612cfa88612cf5836141bf565b6135f5565b602088019750612d1288612d0d836141d9565b6135f5565b602088019750612d2a88612d25836141f3565b6135f5565b602088019750612d4288612d3d8361420d565b6135f5565b602088019750612d5a88612d5583614227565b6135f5565b602088019750612d7288612d6d83614241565b6135f5565b602088019750612d8a88612d858361425b565b6135f5565b602088019750612da288612d9d83614275565b6135f5565b602088019750612dba88612db58361428f565b6135f5565b602088019750612dd288612dcd836142c3565b6135f5565b602088019750612dea88612de5836142dd565b6135f5565b60208801975060018301925050602081019050612ae0565b5b6001156132ee57815484821015612e3357612e2688612e2183614039565b6135f5565b6020880197506001820191505b84821015612e5a57612e4d88612e488361418b565b6135f5565b6020880197506001820191505b84821015612e8157612e7488612e6f836142a9565b6135f5565b6020880197506001820191505b84821015612ea857612e9b88612e96836142f7565b6135f5565b6020880197506001820191505b84821015612ecf57612ec288612ebd83614311565b6135f5565b6020880197506001820191505b84821015612ef657612ee988612ee48361432b565b6135f5565b6020880197506001820191505b84821015612f1d57612f1088612f0b83614345565b6135f5565b6020880197506001820191505b84821015612f4457612f3788612f328361435f565b6135f5565b6020880197506001820191505b84821015612f6b57612f5e88612f5983614379565b6135f5565b6020880197506001820191505b84821015612f9257612f8588612f8083614393565b6135f5565b6020880197506001820191505b84821015612fb957612fac88612fa783614087565b6135f5565b6020880197506001820191505b84821015612fe057612fd388612fce836140a1565b6135f5565b6020880197506001820191505b8482101561300757612ffa88612ff5836140bb565b6135f5565b6020880197506001820191505b8482101561302e576130218861301c836140d5565b6135f5565b6020880197506001820191505b848210156130555761304888613043836140ef565b6135f5565b6020880197506001820191505b8482101561307c5761306f8861306a83614109565b6135f5565b6020880197506001820191505b848210156130a3576130968861309183614123565b6135f5565b6020880197506001820191505b848210156130ca576130bd886130b88361413d565b6135f5565b6020880197506001820191505b848210156130f1576130e4886130df83614157565b6135f5565b6020880197506001820191505b848210156131185761310b8861310683614171565b6135f5565b6020880197506001820191505b8482101561313f576131328861312d836141a5565b6135f5565b6020880197506001820191505b848210156131665761315988613154836141bf565b6135f5565b6020880197506001820191505b8482101561318d576131808861317b836141d9565b6135f5565b6020880197506001820191505b848210156131b4576131a7886131a2836141f3565b6135f5565b6020880197506001820191505b848210156131db576131ce886131c98361420d565b6135f5565b6020880197506001820191505b84821015613202576131f5886131f083614227565b6135f5565b6020880197506001820191505b848210156132295761321c8861321783614241565b6135f5565b6020880197506001820191505b84821015613250576132438861323e8361425b565b6135f5565b6020880197506001820191505b848210156132775761326a8861326583614275565b6135f5565b6020880197506001820191505b8482101561329e576132918861328c8361428f565b6135f5565b6020880197506001820191505b848210156132c5576132b8886132b3836142c3565b6135f5565b6020880197506001820191505b848210156132ec576132df886132da836142dd565b6135f5565b6020880197506001820191505b505b8694505050505092915050565b600061330682613dec565b6133108185613ec1565b93508360208202850161332285613d67565b8060005b8581101561335e578484038952815161333f85826129b2565b945061334a83613e51565b925060208a01995050600181019050613326565b50829750879550505050505092915050565b600061337b82613df7565b6133858185613ed2565b93508360208202850161339785613d77565b8060005b858110156133d2578484038952816133b385826129c6565b94506133be83613e5e565b925060208a0199505060018101905061339b565b50829750879550505050505092915050565b60006133ef82613e02565b6133f98185613ee3565b93508360208202850161340b85613d8c565b8060005b85811015613447578484038952815161342885826129da565b945061343383613e6b565b925060208a0199505060018101905061340f565b50829750879550505050505092915050565b600061346482613e0d565b61346e8185613ee3565b93508360208202850161348085613d9c565b8060005b858110156134bb5784840389528161349c85826129ee565b94506134a783613e78565b925060208a01995050600181019050613484565b50829750879550505050505092915050565b60006134d882613e18565b6134e28185613ef4565b93506134ed83613db1565b8060005b8381101561351e5781516135058882612a02565b975061351083613e85565b9250506001810190506134f1565b5085935050505092915050565b600061353682613e23565b6135408185613ef4565b935061354b83613dc1565b8060005b8381101561358357613560826143db565b61356a8882612a02565b975061357583613e92565b92505060018101905061354f565b5085935050505092915050565b600061359b82613e23565b6135a58185613f05565b93506135b083613dc1565b8060005b838110156135e8576135c5826143db565b6135cf8882612a02565b97506135da83613e92565b9250506001810190506135b4565b5085935050505092915050565b6135fe81613f9d565b82525050565b61360d81613fa9565b82525050565b61361c81613fa9565b82525050565b600061362d82613e39565b6136378185613f27565b9350613647818560208601613fec565b613650816143ee565b840191505092915050565b600061366682613e2e565b6136708185613f16565b9350613680818560208601613fec565b613689816143ee565b840191505092915050565b60006136a1600d83613f27565b91507f496e76616c696420446f634944000000000000000000000000000000000000006000830152602082019050919050565b60006136e1600e83613f27565b91507f496e76616c6964204361736549440000000000000000000000000000000000006000830152602082019050919050565b6000613721601b83613f27565b91507f45766469656e6365204164646564205375636365737366756c6c7900000000006000830152602082019050919050565b6000613761601a83613f27565b91507f53756363657366756c6c792063726561746564206120436173650000000000006000830152602082019050919050565b60006137a1600f83613f27565b91507f5368617264206e6f7420666f756e6400000000000000000000000000000000006000830152602082019050919050565b60006060830160008301516137ec6000860182613a13565b5060208301518482036020860152613804828261365b565b91505060408301516138196040860182613a13565b508091505092915050565b600060808301600083015161383c6000860182613a13565b50602083015161384f6020860182613604565b506040830151848203604086015261386782826133e4565b915050606083015161387c6060860182613a13565b508091505092915050565b600060808301600080840154905061389e8161406d565b6138ab6000870182613a13565b50600184015490506138bc81614053565b6138c96020870182613604565b506002840185830360408701526138e08382613459565b925050600384015490506138f38161406d565b6139006060870182613a13565b50819250505092915050565b6000606083016000830151848203600086015261392982826134cd565b915050602083015161393e6020860182613a13565b5060408301516139516040860182612a31565b508091505092915050565b6000606083016000830151848203600086015261397982826134cd565b915050602083015161398e6020860182613a13565b5060408301516139a16040860182612a31565b508091505092915050565b600060608301600080840185830360008701526139c9838261352b565b925050600184015490506139dc8161406d565b6139e96020870182613a13565b50600284015490506139fa8161401f565b613a076040870182612a31565b50819250505092915050565b613a1c81613fd3565b82525050565b613a2b81613fd3565b82525050565b613a42613a3d82613fd3565b6143d1565b82525050565b6000613a548286613a31565b602082019150613a648285612a1a565b601482019150613a748284613a31565b602082019150819050949350505050565b60006020820190508181036000830152613a9f8184612a40565b905092915050565b60006020820190508181036000830152613ac18184612ab5565b905092915050565b60006020820190508181036000830152613ae38184613370565b905092915050565b60006020820190508181036000830152613b058184613590565b905092915050565b60006080820190508181036000830152613b278187613622565b9050613b366020830186613a22565b8181036040830152613b488185613622565b90508181036060830152613b5c81846132fb565b905095945050505050565b60006020820190508181036000830152613b8081613694565b9050919050565b60006020820190508181036000830152613ba0816136d4565b9050919050565b60006020820190508181036000830152613bc081613714565b9050919050565b60006040820190508181036000830152613be081613754565b9050613bef6020830184613a22565b92915050565b60006020820190508181036000830152613c0e81613794565b9050919050565b60006020820190508181036000830152613c2f8184613824565b905092915050565b60006020820190508181036000830152613c51818461390c565b905092915050565b6000602082019050613c6e6000830184613a22565b92915050565b6000604082019050613c896000830185613a22565b613c966020830184613613565b9392505050565b6000608082019050613cb26000830187613a22565b613cbf6020830186613a22565b8181036040830152613cd18185613622565b9050613ce06060830184613a22565b95945050505050565b6000604051905081810181811067ffffffffffffffff82111715613d0c57600080fd5b8060405250919050565b600067ffffffffffffffff821115613d2d57600080fd5b601f19601f8301169050602081019050919050565b6000819050602082019050919050565b60008190508160005260206000209050919050565b6000819050602082019050919050565b60008190508160005260206000209050919050565b6000819050602082019050919050565b60008190508160005260206000209050919050565b6000819050602082019050919050565b60008190508160005260206000209050919050565b600081519050919050565b600081549050919050565b600081519050919050565b600081549050919050565b600081519050919050565b600081549050919050565b600081519050919050565b600081549050919050565b600081519050919050565b600081519050919050565b6000602082019050919050565b6000602082019050919050565b6000600482019050919050565b6000602082019050919050565b6000600382019050919050565b6000602082019050919050565b6000600182019050919050565b600082825260208201905092915050565b600082825260208201905092915050565b600082825260208201905092915050565b600082825260208201905092915050565b600082825260208201905092915050565b600082825260208201905092915050565b600082825260208201905092915050565b600082825260208201905092915050565b600082825260208201905092915050565b600073ffffffffffffffffffffffffffffffffffffffff82169050919050565b600060ff82169050919050565b6000819050919050565b6000819050919050565b6000613f8482613fb3565b9050919050565b6000613f9682613fb3565b9050919050565b60008115159050919050565b6000819050919050565b600073ffffffffffffffffffffffffffffffffffffffff82169050919050565b6000819050919050565b82818337600083830152505050565b60005b8381101561400a578082015181840152602081019050613fef565b83811115614019576000848401525b50505050565b600061403261402d8361440c565b613f38565b9050919050565b600061404c6140478361440c565b613f58565b9050919050565b60006140666140618361440c565b613f65565b9050919050565b600061408061407b8361440c565b613f6f565b9050919050565b600061409a61409583614578565b613f58565b9050919050565b60006140b46140af83614585565b613f58565b9050919050565b60006140ce6140c98361459f565b613f58565b9050919050565b60006140e86140e383614419565b613f58565b9050919050565b60006141026140fd83614426565b613f58565b9050919050565b600061411c61411783614433565b613f58565b9050919050565b600061413661413183614440565b613f58565b9050919050565b600061415061414b8361444d565b613f58565b9050919050565b600061416a6141658361445a565b613f58565b9050919050565b600061418461417f83614467565b613f58565b9050919050565b600061419e61419983614592565b613f58565b9050919050565b60006141b86141b383614474565b613f58565b9050919050565b60006141d26141cd83614481565b613f58565b9050919050565b60006141ec6141e78361449b565b613f58565b9050919050565b6000614206614201836144a8565b613f58565b9050919050565b600061422061421b836144b5565b613f58565b9050919050565b600061423a614235836144c2565b613f58565b9050919050565b600061425461424f836144cf565b613f58565b9050919050565b600061426e614269836144dc565b613f58565b9050919050565b6000614288614283836144e9565b613f58565b9050919050565b60006142a261429d836144f6565b613f58565b9050919050565b60006142bc6142b78361448e565b613f58565b9050919050565b60006142d66142d183614503565b613f58565b9050919050565b60006142f06142eb83614510565b613f58565b9050919050565b600061430a6143058361451d565b613f58565b9050919050565b600061432461431f8361452a565b613f58565b9050919050565b600061433e61433983614537565b613f58565b9050919050565b600061435861435383614544565b613f58565b9050919050565b600061437261436d83614551565b613f58565b9050919050565b600061438c6143878361455e565b613f58565b9050919050565b60006143a66143a18361456b565b613f58565b9050919050565b60006143b8826143bf565b9050919050565b60006143ca826143ff565b9050919050565b6000819050919050565b60006143e7825461406d565b9050919050565b6000601f19601f8301169050919050565b60008160601b9050919050565b60008160001c9050919050565b60008160681c9050919050565b60008160701c9050919050565b60008160781c9050919050565b60008160801c9050919050565b60008160881c9050919050565b60008160901c9050919050565b60008160981c9050919050565b60008160a01c9050919050565b60008160a81c9050919050565b60008160101c9050919050565b60008160b01c9050919050565b60008160b81c9050919050565b60008160c01c9050919050565b60008160c81c9050919050565b60008160d01c9050919050565b60008160d81c9050919050565b60008160e01c9050919050565b60008160e81c9050919050565b60008160f01c9050919050565b60008160f81c9050919050565b60008160181c9050919050565b60008160201c9050919050565b60008160281c9050919050565b60008160301c9050919050565b60008160381c9050919050565b60008160401c9050919050565b60008160481c9050919050565b60008160501c9050919050565b60008160581c9050919050565b60008160081c9050919050565b60008160601c9050919050565b6145b581613f79565b81146145c057600080fd5b50565b6145cc81613fa9565b81146145d757600080fd5b50565b6145e381613fd3565b81146145ee57600080fd5b5056fe43617365204578697374206275742045766964656e63657320617265206e6f742075706c6f61646564a365627a7a72315820dc8fc2374b5bbc1abf2c5f9827c570c89166709428555932b3ac8b83b03af1f86c6578706572696d656e74616cf564736f6c63430005100040",
  "source": "// SPDX-License-Identifier: UNLICENSED\r\npragma solidity >=0.5.0 <=0.9.0;\r\npragma experimental ABIEncoderV2;\r\n\r\ncontract Evidence {\r\n   uint public noOfCases=0;\r\n   uint public noOfDocss=0;\r\n//    constructor ()public{\r\n//       noOfCases=0;\r\n//    }\r\n   struct CaseInfo{\r\n      uint docId;\r\n      string baseAdd;\r\n      uint blockNo;\r\n   }\r\n   struct Case{\r\n      uint caseId;\r\n      uint noOfDocs;\r\n      string description;\r\n      mapping(uint => CaseInfo) allDocs;\r\n   }\r\n   \r\n\r\n   mapping(uint => Case) allCases;\r\n\r\n   event CaseCreated(\r\n        string message,\r\n        uint caseId\r\n   );\r\n\r\n   function createCase(string memory _description)public{\r\n      noOfCases++;\r\n      allCases[noOfCases].caseId=noOfCases;\r\n      allCases[noOfCases].description=_description;\r\n      emit  CaseCreated(\"Succesfully created a Case\",allCases[noOfCases].caseId);\r\n   }\r\n   \r\n   event EvidenceCreated(\r\n        string message\r\n   );\r\n\r\n   function insertEvidence(uint caseId,uint docId,string memory baseAdd)public {\r\n      if(caseId!=0 && allCases[caseId].caseId==caseId){\r\n         if(docId!=0 && allCases[caseId].allDocs[docId].docId!=docId){\r\n            // if(bytes(baseAdd).length==0){\r\n            //    emit EvidenceCreated(\"Cannot create empty Evidence\");\r\n            // }\r\n            allCases[caseId].allDocs[docId].docId=docId;\r\n            allCases[caseId].allDocs[docId].baseAdd=baseAdd;\r\n            allCases[caseId].allDocs[docId].blockNo=block.number;\r\n            allCases[caseId].noOfDocs++;\r\n            noOfDocss++;\r\n            emit EvidenceCreated(\"Evdience Added Successfully\");\r\n         }\r\n         else{\r\n            emit EvidenceCreated(\"Invalid DocID\");\r\n         }\r\n      }\r\n      else{\r\n         emit EvidenceCreated(\"Invalid CaseID\");\r\n      }\r\n   }\r\n\r\n   function getEvidenceInfo(uint caseId,uint docId) public view returns(uint,uint,string memory,uint){\r\n      if(caseId!=0 && allCases[caseId].caseId==caseId){\r\n         if(docId!=0 && allCases[caseId].allDocs[docId].docId==docId){\r\n               return (allCases[caseId].caseId,\r\n            allCases[caseId].allDocs[docId].docId,  \r\n            allCases[caseId].allDocs[docId].baseAdd,\r\n            allCases[caseId].allDocs[docId].blockNo\r\n            );\r\n         }\r\n         else{\r\n            return(0,0,\"DocID doesn't Exist\",0);\r\n         }\r\n      }\r\n      else{\r\n         return(0,0,\"CaseID doesn't Exist\",0);\r\n      }\r\n      \r\n   }\r\n\r\n\r\n   function getCaseInfo(uint caseId) public view returns(string memory,uint,string memory,CaseInfo[] memory){\r\n      if(caseId!=0 && allCases[caseId].caseId==caseId){\r\n         if(allCases[caseId].noOfDocs==0){\r\n            CaseInfo[] memory M;\r\n            return(\"Case Exist but Evidences are not uploaded\",caseId,\"\",M);\r\n         }\r\n         CaseInfo[] memory m=new CaseInfo[](allCases[caseId].noOfDocs);\r\n         for(uint i = 1; i <=allCases[caseId].noOfDocs; i++) {\r\n               m[i-1] = allCases[caseId].allDocs[i];\r\n         }\r\n         return(\"Successfully Fetched\",caseId,allCases[caseId].description,m);\r\n      }\r\n      else{\r\n         CaseInfo[] memory m;\r\n         return(\"Invalid ID\",0,\"\",m);\r\n      }\r\n   } \r\n\r\n   function getBlockNumber(uint caseId, uint docId) public view returns (uint) {\r\n      if(caseId<= noOfCases && docId<=allCases[caseId].noOfDocs)\r\n            return allCases[caseId].allDocs[docId].blockNo;\r\n      return 0;\r\n   }\r\n\r\n   event noOfDOCS(uint);\r\n   function getDocsCount() public {\r\n      emit  noOfDOCS(noOfDocss);\r\n   }\r\n\r\n\r\n\r\n\r\n   uint public shardCount;\r\n    uint public shardSize;\r\n\r\n    struct validator{\r\n        uint [] blockNo;\r\n        uint validatorNo;\r\n        address validatorAddress;\r\n    }\r\n\r\n    struct Shard{\r\n        uint shardNo;\r\n        bytes32 shardAddress;\r\n        validator[] v;\r\n        uint shardSize;\r\n    } \r\n\r\n    Shard[] s;\r\n\r\n    event ShardHashUpdated(uint shardNumber, bytes32 shardHash);\r\n    event Shardss(Shard []);\r\n\r\n    Shard ss;\r\n    function setShardHash(uint shardNumber, bytes32 shardHash) public {\r\n        require(shardNumber < shardCount);\r\n        s.push(ss);\r\n        uint index = s.length - 1;\r\n        s[index].shardNo = shardNumber;\r\n        s[index].shardAddress = shardHash;\r\n        s[index].shardSize = 0;\r\n        emit ShardHashUpdated(shardNumber, shardHash);\r\n    }\r\n\r\n    function addValidator(uint shardNumber, address _validator) public {\r\n        require(shardNumber < shardCount);\r\n        require(s[shardNumber].shardSize < shardSize);\r\n        //validator memory vv= validator([],s[shardNumber].shardSize, _validator);\r\n        validator memory vv;\r\n        s[shardNumber].v.push(vv);\r\n        s[shardNumber].v[s[shardNumber].shardSize].validatorNo=s[shardNumber].shardSize;\r\n        s[shardNumber].v[s[shardNumber].shardSize].validatorAddress=_validator;\r\n        s[shardNumber].shardSize++;\r\n    }\r\n\r\n    function getShard(uint256 shardNumber) public view returns (Shard memory) {\r\n        for (uint i = 0; i < s.length; i++) {\r\n            if (s[i].shardNo == shardNumber) {\r\n                return s[i];\r\n            }\r\n        }\r\n        revert(\"Shard not found\");\r\n    }\r\n\r\n    function getValidator(uint256 shardNumber,uint validatorNo) public view returns (validator memory) {\r\n        for (uint i = 0; i < s.length; i++) {\r\n            if (s[i].shardNo == shardNumber) {\r\n                for (uint j = 0; j < s[i].shardSize; j++)\r\n                {\r\n                    if(s[i].v[j].validatorNo == validatorNo)\r\n                        return s[i].v[j];\r\n                }\r\n            }\r\n        }\r\n        revert(\"Shard not found\");\r\n    }\r\n\r\n    // function isValidator(address validator, uint shardNumber) public view returns (bool) {\r\n    //     address[] memory validators = shardValidators[shardNumber];\r\n    //     for (uint i = 0; i < validators.length; i++) {\r\n    //         if (validators[i] == validator) {\r\n    //             return true;\r\n    //         }\r\n    //     }\r\n    //     return false;\r\n    // }\r\n\r\n     uint [][]  _map;\r\n    \r\n    function getBlocks() public{\r\n        uint [] memory m;\r\n        for(uint i=1;i<20;i++){\r\n            _map.push(m);\r\n            for(uint j=1;j<20;j++){\r\n                if(getBlockNumber(i,j)==0)\r\n                    break;\r\n                _map[_map.length-1].push(getBlockNumber(i,j));\r\n                //_map[i][j] = i*10+j;\r\n                // _map[i-1][j-1] = e.getBlockNumber(i,j);\r\n            }\r\n            if(_map[_map.length-1].length==0)\r\n                break;\r\n        }\r\n    }\r\n\r\n    function getArray() public view returns (uint[][] memory) {\r\n        return _map;\r\n    }\r\n\r\n    uint private nonce = 0;\r\n\r\n    function random(uint max) public returns (uint) {\r\n        uint randomnumber = uint(keccak256(abi.encodePacked(block.timestamp, msg.sender, nonce))) % max;\r\n        nonce++;\r\n        return randomnumber;\r\n    } \r\n\r\n    function assignBlocks() public  {\r\n        \r\n        for(uint i=0;i<_map.length-1;i++){\r\n            for(uint j=0;j<_map[i].length;j++){\r\n                // if(e.getBlockNumber(i,j)==0)\r\n                    // break;\r\n                // _map[i][j] = e.getBlockNumber(i,j);\r\n                for(uint k=0;k<10;k++)\r\n                {\r\n\r\n                }\r\n                uint shardNo=random(shardCount);\r\n                uint vNo=random(s[shardNo].shardSize);\r\n                \r\n                s[shardNo].v[vNo].blockNo.push(_map[i][j]);\r\n\r\n            }\r\n        }\r\n    }\r\n\r\n    uint []  array;\r\n    function rebalanceNodes() public {\r\n        \r\n        for(uint i=0;i<s.length;i++)\r\n        {\r\n            for(uint j=0;j<s[i].shardSize;j++)\r\n            {\r\n                while(s[i].v[j].blockNo.length>1)\r\n                {\r\n                    array.push(s[i].v[j].blockNo[s[i].v[j].blockNo.length-1]);\r\n                    s[i].v[j].blockNo.pop();\r\n                }\r\n            }\r\n        }\r\n\r\n        for(uint i=0;i<s.length;i++)\r\n        {\r\n            for(uint j=0;j<s[i].shardSize;j++)\r\n            {\r\n                if(s[i].v[j].blockNo.length==0)\r\n                {\r\n                    s[i].v[j].blockNo.push(array[array.length-1]);\r\n                    array.pop();\r\n                }\r\n            }\r\n        }\r\n    }\r\n\r\n    mapping (uint => uint) public Names;\r\n\r\n    bool []b;\r\n    event InterShard(bool []);\r\n    function interShard() public{\r\n       for(uint i=0;i<_map.length-1;i++){\r\n            mapping (uint => uint) storage l= Names;\r\n                for(uint j=0;j<_map[i].length;j++){\r\n                    uint k=_map[i][j];\r\n\r\n                    for(uint w=0;w<s.length;w++)\r\n                    {\r\n                        for(uint x=0;x<s[w].shardSize;x++)\r\n                        {\r\n                            if(s[w].v[x].blockNo[0]==k)\r\n                            {\r\n                                l[w]++;\r\n                            }\r\n                        }\r\n                    }\r\n                }\r\n            b.push(true);\r\n            for(uint w=0;w<s.length;w++)\r\n            {\r\n                if(l[w]==5)\r\n                {\r\n                    b[i]=false;\r\n                }\r\n            }\r\n       }\r\n       emit InterShard(b);\r\n    }\r\n\r\n     mapping(uint => uint) public _map1;\r\n     uint[] public keys1;\r\n     mapping(uint => uint) public _map2;\r\n     uint[] public keys2;\r\n\r\n    event DPOS_Event(uint []);\r\n    function DPOS() public{\r\n\r\n        for(uint i=0;i<_map.length-1;i++){\r\n            _map1[i+1]=_map[i].length;\r\n            keys1.push(i+1);\r\n        }\r\n\r\n        for (uint i = 0; i < keys1.length; i++) {\r\n            for (uint j = i + 1; j < keys1.length; j++) {\r\n                if (_map1[keys1[i]] < _map1[keys1[j]]) {\r\n                    uint temp = keys1[i];\r\n                    keys1[i] = keys1[j];\r\n                    keys1[j] = temp;\r\n                }\r\n            }\r\n        }\r\n\r\n        uint candidates=keys1.length/3;\r\n        uint voters=keys1.length-candidates;\r\n\r\n        for(uint i=voters+1;i<=keys1.length;i++)\r\n        {\r\n            keys2.push(i);\r\n        }\r\n\r\n        for(uint i=0;i<voters;i++)\r\n        {\r\n            _map2[random(candidates)+voters+1]++;\r\n        }\r\n\r\n        for (uint i = 0; i < keys2.length; i++) {\r\n            for (uint j = i + 1; j < keys2.length; j++) {\r\n                if (_map2[keys2[i]] < _map2[keys2[j]]) {\r\n                    uint temp = keys2[i];\r\n                    keys2[i] = keys2[j];\r\n                    keys2[j] = temp;\r\n                }\r\n            }\r\n        }\r\n\r\n        for(uint i=1;i<voters+1;i++)\r\n        {\r\n            keys2.push(i);\r\n        }\r\n\r\n        emit DPOS_Event(keys2);\r\n    }\r\n\r\n    function setshardParameters(uint _shardCount, uint _shardSize) public{\r\n        shardCount = _shardCount;\r\n        shardSize = _shardSize;\r\n        for(uint i=0;i<shardCount;i++){\r\n            setShardHash(i, 0xa0ea57091e7f1d8d0c29ae04029d50d67440988ddd1bba093ef9281745d2c08c);\r\n            for(uint j=0;j<shardSize;j++){\r\n                addValidator(i, 0x9801689c36151683B789Ec22Fcd0b7fe9DBCc88e);\r\n            }\r\n        }\r\n        getBlocks();\r\n        assignBlocks();\r\n        emit Shardss(s);\r\n        rebalanceNodes();\r\n        emit Shardss(s);\r\n        interShard();\r\n        DPOS();\r\n    }\r\n\r\n}",
  "sourcePath": "C:\\Mini project\\Block-Chain-Minor-Project\\frontend\\contracts\\evidence.sol",
  "compiler": {
    "name": "solc",
    "version": "0.5.16+commit.9c3226ce.Emscripten.clang"
  },
  "schemaVersion": "3.4.10",
  "updatedAt": "2023-05-02T10:55:20.449Z",
  "networkType": "ethereum",
  "devdoc": {
    "methods": {}
  },
  "userdoc": {
    "methods": {}
  }
}