{
  "contractName": "Evidence",
  "abi": [
    {
      "anonymous": false,
      "inputs": [
        {
          "indexed": false,
          "internalType": "string",
          "name": "message",
          "type": "string"
        },
        {
          "indexed": false,
          "internalType": "uint256",
          "name": "caseId",
          "type": "uint256"
        }
      ],
      "name": "CaseCreated",
      "type": "event"
    },
    {
      "anonymous": false,
      "inputs": [
        {
          "indexed": false,
          "internalType": "string",
          "name": "message",
          "type": "string"
        }
      ],
      "name": "EvidenceCreated",
      "type": "event"
    },
    {
      "constant": false,
      "inputs": [
        {
          "internalType": "string",
          "name": "_description",
          "type": "string"
        }
      ],
      "name": "createCase",
      "outputs": [],
      "payable": false,
      "stateMutability": "nonpayable",
      "type": "function"
    },
    {
      "constant": false,
      "inputs": [
        {
          "internalType": "uint256",
          "name": "caseId",
          "type": "uint256"
        },
        {
          "internalType": "uint256",
          "name": "docId",
          "type": "uint256"
        },
        {
          "internalType": "string",
          "name": "baseAdd",
          "type": "string"
        }
      ],
      "name": "insertEvidence",
      "outputs": [],
      "payable": false,
      "stateMutability": "nonpayable",
      "type": "function"
    },
    {
      "constant": true,
      "inputs": [
        {
          "internalType": "uint256",
          "name": "caseId",
          "type": "uint256"
        },
        {
          "internalType": "uint256",
          "name": "docId",
          "type": "uint256"
        }
      ],
      "name": "getEvidenceInfo",
      "outputs": [
        {
          "internalType": "uint256",
          "name": "",
          "type": "uint256"
        },
        {
          "internalType": "uint256",
          "name": "",
          "type": "uint256"
        },
        {
          "internalType": "string",
          "name": "",
          "type": "string"
        },
        {
          "internalType": "uint256",
          "name": "",
          "type": "uint256"
        }
      ],
      "payable": false,
      "stateMutability": "view",
      "type": "function"
    },
    {
      "constant": true,
      "inputs": [
        {
          "internalType": "uint256",
          "name": "caseId",
          "type": "uint256"
        }
      ],
      "name": "getCaseInfo",
      "outputs": [
        {
          "internalType": "string",
          "name": "",
          "type": "string"
        },
        {
          "internalType": "uint256",
          "name": "",
          "type": "uint256"
        },
        {
          "internalType": "string",
          "name": "",
          "type": "string"
        },
        {
          "components": [
            {
              "internalType": "uint256",
              "name": "docId",
              "type": "uint256"
            },
            {
              "internalType": "string",
              "name": "baseAdd",
              "type": "string"
            },
            {
              "internalType": "uint256",
              "name": "blockNo",
              "type": "uint256"
            }
          ],
          "internalType": "struct Evidence.CaseInfo[]",
          "name": "",
          "type": "tuple[]"
        }
      ],
      "payable": false,
      "stateMutability": "view",
      "type": "function"
    },
    {
      "constant": true,
      "inputs": [
        {
          "internalType": "uint256",
          "name": "caseId",
          "type": "uint256"
        },
        {
          "internalType": "uint256",
          "name": "docId",
          "type": "uint256"
        }
      ],
      "name": "getBlockNumber",
      "outputs": [
        {
          "internalType": "uint256",
          "name": "",
          "type": "uint256"
        }
      ],
      "payable": false,
      "stateMutability": "view",
      "type": "function"
    }
  ],
  "bytecode": "0x60806040526000805534801561001457600080fd5b5061118b806100246000396000f3fe608060405234801561001057600080fd5b50600436106100575760003560e01c80631d85fdac1461005c57806369246d8714610078578063c30cd28f146100ab578063d0d10af1146100de578063e587f896146100fa575b600080fd5b61007660048036036100719190810190610bc2565b61012a565b005b610092600480360361008d9190810190610b86565b610308565b6040516100a29493929190610f95565b60405180910390f35b6100c560048036036100c09190810190610b5d565b610561565b6040516100d59493929190610e92565b60405180910390f35b6100f860048036036100f39190810190610b1c565b6108d6565b005b610114600480360361010f9190810190610b86565b610982565b6040516101219190610f7a565b60405180910390f35b600083141580156101505750826001600085815260200190815260200160002060000154145b156102cd57600082141580156101905750816001600085815260200190815260200160002060030160008481526020019081526020016000206000015414155b156102925781600160008581526020019081526020016000206003016000848152602001908152602001600020600001819055508060016000858152602001908152602001600020600301600084815260200190815260200160002060010190805190602001906102029291906109ed565b50436001600085815260200190815260200160002060030160008481526020019081526020016000206002018190555060016000848152602001908152602001600020600101600081548092919060010191905055507fc2e6db28773c295a1e98714e72df1006b3a1dfd413511c9af0b6075c6aeb78cf60405161028590610f2c565b60405180910390a16102c8565b7fc2e6db28773c295a1e98714e72df1006b3a1dfd413511c9af0b6075c6aeb78cf6040516102bf90610eec565b60405180910390a15b610303565b7fc2e6db28773c295a1e98714e72df1006b3a1dfd413511c9af0b6075c6aeb78cf6040516102fa90610f0c565b60405180910390a15b505050565b600080606060008086141580156103345750856001600088815260200190815260200160002060000154145b1561050a576000851415801561037357508460016000888152602001908152602001600020600301600087815260200190815260200160002060000154145b156104b857600160008781526020019081526020016000206000015460016000888152602001908152602001600020600301600087815260200190815260200160002060000154600160008981526020019081526020016000206003016000888152602001908152602001600020600101600160008a8152602001908152602001600020600301600089815260200190815260200160002060020154818054600181600116156101000203166002900480601f0160208091040260200160405190810160405280929190818152602001828054600181600116156101000203166002900480156104a45780601f10610479576101008083540402835291602001916104a4565b820191906000526020600020905b81548152906001019060200180831161048757829003601f168201915b505050505091509350935093509350610558565b60008060008292508191506040518060400160405280601381526020017f446f63494420646f65736e277420457869737400000000000000000000000000815250908090509350935093509350610558565b60008060008292508191506040518060400160405280601481526020017f43617365494420646f65736e27742045786973740000000000000000000000008152509080905093509350935093505b92959194509250565b606060006060806000851415801561058e5750846001600087815260200190815260200160002060000154145b15610874576000600160008781526020019081526020016000206001015414156105f0576060858160405180606001604052806029815260200161112060299139919060405180602001604052806000815250909450945094509450506108cf565b6060600160008781526020019081526020016000206001015460405190808252806020026020018201604052801561064257816020015b61062f610a6d565b8152602001906001900390816106275790505b5090506000600190505b600160008881526020019081526020016000206001015481116107785760016000888152602001908152602001600020600301600082815260200190815260200160002060405180606001604052908160008201548152602001600182018054600181600116156101000203166002900480601f01602080910402602001604051908101604052809291908181526020018280546001816001161561010002031660029004801561073e5780601f106107135761010080835404028352916020019161073e565b820191906000526020600020905b81548152906001019060200180831161072157829003601f168201915b5050505050815260200160028201548152505082600183038151811061076057fe5b6020026020010181905250808060010191505061064c565b508560016000888152602001908152602001600020600201826040518060400160405280601481526020017f5375636365737366756c6c792046657463686564000000000000000000000000815250929190818054600181600116156101000203166002900480601f01602080910402602001604051908101604052809291908181526020018280546001816001161561010002031660029004801561085f5780601f106108345761010080835404028352916020019161085f565b820191906000526020600020905b81548152906001019060200180831161084257829003601f168201915b505050505091509450945094509450506108cf565b60606000816040518060400160405280600a81526020017f496e76616c696420494400000000000000000000000000000000000000000000815250919081915060405180602001604052806000815250909450945094509450505b9193509193565b600080815480929190600101919050555060005460016000805481526020019081526020016000206000018190555080600160008054815260200190815260200160002060020190805190602001906109309291906109ed565b507f61db2bee1b6a5c4c35bc25d487944f36be7bd1e5eb0c771d4a4a9c8cc43175e96001600080548152602001908152602001600020600001546040516109779190610f4c565b60405180910390a150565b6000805483111580156109ab575060016000848152602001908152602001600020600101548211155b156109e2576001600084815260200190815260200160002060030160008381526020019081526020016000206002015490506109e7565b600090505b92915050565b828054600181600116156101000203166002900490600052602060002090601f016020900481019282601f10610a2e57805160ff1916838001178555610a5c565b82800160010185558215610a5c579182015b82811115610a5b578251825591602001919060010190610a40565b5b509050610a699190610a8e565b5090565b60405180606001604052806000815260200160608152602001600081525090565b610ab091905b80821115610aac576000816000905550600101610a94565b5090565b90565b600082601f830112610ac457600080fd5b8135610ad7610ad28261100e565b610fe1565b91508082526020830160208301858383011115610af357600080fd5b610afe8382846110b5565b50505092915050565b600081359050610b1681611108565b92915050565b600060208284031215610b2e57600080fd5b600082013567ffffffffffffffff811115610b4857600080fd5b610b5484828501610ab3565b91505092915050565b600060208284031215610b6f57600080fd5b6000610b7d84828501610b07565b91505092915050565b60008060408385031215610b9957600080fd5b6000610ba785828601610b07565b9250506020610bb885828601610b07565b9150509250929050565b600080600060608486031215610bd757600080fd5b6000610be586828701610b07565b9350506020610bf686828701610b07565b925050604084013567ffffffffffffffff811115610c1357600080fd5b610c1f86828701610ab3565b9150509250925092565b6000610c358383610e24565b905092915050565b6000610c488261104a565b610c528185611078565b935083602082028501610c648561103a565b8060005b85811015610ca05784840389528151610c818582610c29565b9450610c8c8361106b565b925060208a01995050600181019050610c68565b50829750879550505050505092915050565b6000610cbd82611060565b610cc7818561109a565b9350610cd78185602086016110c4565b610ce0816110f7565b840191505092915050565b6000610cf682611055565b610d008185611089565b9350610d108185602086016110c4565b610d19816110f7565b840191505092915050565b6000610d31600d8361109a565b91507f496e76616c696420446f634944000000000000000000000000000000000000006000830152602082019050919050565b6000610d71600e8361109a565b91507f496e76616c6964204361736549440000000000000000000000000000000000006000830152602082019050919050565b6000610db1601b8361109a565b91507f45766469656e6365204164646564205375636365737366756c6c7900000000006000830152602082019050919050565b6000610df1601a8361109a565b91507f53756363657366756c6c792063726561746564206120436173650000000000006000830152602082019050919050565b6000606083016000830151610e3c6000860182610e74565b5060208301518482036020860152610e548282610ceb565b9150506040830151610e696040860182610e74565b508091505092915050565b610e7d816110ab565b82525050565b610e8c816110ab565b82525050565b60006080820190508181036000830152610eac8187610cb2565b9050610ebb6020830186610e83565b8181036040830152610ecd8185610cb2565b90508181036060830152610ee18184610c3d565b905095945050505050565b60006020820190508181036000830152610f0581610d24565b9050919050565b60006020820190508181036000830152610f2581610d64565b9050919050565b60006020820190508181036000830152610f4581610da4565b9050919050565b60006040820190508181036000830152610f6581610de4565b9050610f746020830184610e83565b92915050565b6000602082019050610f8f6000830184610e83565b92915050565b6000608082019050610faa6000830187610e83565b610fb76020830186610e83565b8181036040830152610fc98185610cb2565b9050610fd86060830184610e83565b95945050505050565b6000604051905081810181811067ffffffffffffffff8211171561100457600080fd5b8060405250919050565b600067ffffffffffffffff82111561102557600080fd5b601f19601f8301169050602081019050919050565b6000819050602082019050919050565b600081519050919050565b600081519050919050565b600081519050919050565b6000602082019050919050565b600082825260208201905092915050565b600082825260208201905092915050565b600082825260208201905092915050565b6000819050919050565b82818337600083830152505050565b60005b838110156110e25780820151818401526020810190506110c7565b838111156110f1576000848401525b50505050565b6000601f19601f8301169050919050565b611111816110ab565b811461111c57600080fd5b5056fe43617365204578697374206275742045766964656e63657320617265206e6f742075706c6f61646564a365627a7a72315820abfc665795a78e7d4bdee84ba47508e435d26540e6d7a52d9e8602af99d5acd86c6578706572696d656e74616cf564736f6c63430005100040",
  "source": "// SPDX-License-Identifier: UNLICENSED\r\npragma solidity >=0.5.0 <=0.9.0;\r\npragma experimental ABIEncoderV2;\r\n\r\ncontract Evidence {\r\n   uint noOfCases=0;\r\n//    constructor ()public{\r\n//       noOfCases=0;\r\n//    }\r\n   struct CaseInfo{\r\n      uint docId;\r\n      string baseAdd;\r\n      uint blockNo;\r\n   }\r\n   struct Case{\r\n      uint caseId;\r\n      uint noOfDocs;\r\n      string description;\r\n      mapping(uint => CaseInfo) allDocs;\r\n   }\r\n   \r\n\r\n   mapping(uint => Case) allCases;\r\n\r\n   event CaseCreated(\r\n        string message,\r\n        uint caseId\r\n   );\r\n\r\n   function createCase(string memory _description)public{\r\n      noOfCases++;\r\n      allCases[noOfCases].caseId=noOfCases;\r\n      allCases[noOfCases].description=_description;\r\n      emit  CaseCreated(\"Succesfully created a Case\",allCases[noOfCases].caseId);\r\n   }\r\n   \r\n   event EvidenceCreated(\r\n        string message\r\n   );\r\n\r\n   function insertEvidence(uint caseId,uint docId,string memory baseAdd)public {\r\n      if(caseId!=0 && allCases[caseId].caseId==caseId){\r\n         if(docId!=0 && allCases[caseId].allDocs[docId].docId!=docId){\r\n            // if(bytes(baseAdd).length==0){\r\n            //    emit EvidenceCreated(\"Cannot create empty Evidence\");\r\n            // }\r\n            allCases[caseId].allDocs[docId].docId=docId;\r\n            allCases[caseId].allDocs[docId].baseAdd=baseAdd;\r\n            allCases[caseId].allDocs[docId].blockNo=block.number;\r\n            allCases[caseId].noOfDocs++;\r\n            emit EvidenceCreated(\"Evdience Added Successfully\");\r\n         }\r\n         else{\r\n            emit EvidenceCreated(\"Invalid DocID\");\r\n         }\r\n      }\r\n      else{\r\n         emit EvidenceCreated(\"Invalid CaseID\");\r\n      }\r\n   }\r\n\r\n   function getEvidenceInfo(uint caseId,uint docId) public view returns(uint,uint,string memory,uint){\r\n      if(caseId!=0 && allCases[caseId].caseId==caseId){\r\n         if(docId!=0 && allCases[caseId].allDocs[docId].docId==docId){\r\n               return (allCases[caseId].caseId,\r\n            allCases[caseId].allDocs[docId].docId,  \r\n            allCases[caseId].allDocs[docId].baseAdd,\r\n            allCases[caseId].allDocs[docId].blockNo\r\n            );\r\n         }\r\n         else{\r\n            return(0,0,\"DocID doesn't Exist\",0);\r\n         }\r\n      }\r\n      else{\r\n         return(0,0,\"CaseID doesn't Exist\",0);\r\n      }\r\n      \r\n   }\r\n\r\n\r\n   function getCaseInfo(uint caseId) public view returns(string memory,uint,string memory,CaseInfo[] memory){\r\n      if(caseId!=0 && allCases[caseId].caseId==caseId){\r\n         if(allCases[caseId].noOfDocs==0){\r\n            CaseInfo[] memory M;\r\n            return(\"Case Exist but Evidences are not uploaded\",caseId,\"\",M);\r\n         }\r\n         CaseInfo[] memory m=new CaseInfo[](allCases[caseId].noOfDocs);\r\n         for(uint i = 1; i <=allCases[caseId].noOfDocs; i++) {\r\n               m[i-1] = allCases[caseId].allDocs[i];\r\n         }\r\n         return(\"Successfully Fetched\",caseId,allCases[caseId].description,m);\r\n      }\r\n      else{\r\n         CaseInfo[] memory m;\r\n         return(\"Invalid ID\",0,\"\",m);\r\n      }\r\n   } \r\n\r\n   function getBlockNumber(uint caseId, uint docId) public view returns (uint) {\r\n      if(caseId<= noOfCases && docId<=allCases[caseId].noOfDocs)\r\n            return allCases[caseId].allDocs[docId].blockNo;\r\n      return 0;\r\n   }\r\n\r\n\r\n}",
  "sourcePath": "C:\\Mini project\\Block-Chain-Minor-Project\\frontend\\contracts\\evidence.sol",
  "compiler": {
    "name": "solc",
    "version": "0.5.16+commit.9c3226ce.Emscripten.clang"
  },
  "schemaVersion": "3.4.10",
  "updatedAt": "2023-05-01T14:29:52.816Z",
  "networkType": "ethereum",
  "devdoc": {
    "methods": {}
  },
  "userdoc": {
    "methods": {}
  }
}