{
  "contractName": "Evidence",
  "abi": [
    {
      "inputs": [],
      "payable": false,
      "stateMutability": "nonpayable",
      "type": "constructor"
    },
    {
      "anonymous": false,
      "inputs": [
        {
          "indexed": false,
          "internalType": "string",
          "name": "message",
          "type": "string"
        },
        {
          "indexed": false,
          "internalType": "uint256",
          "name": "caseId",
          "type": "uint256"
        }
      ],
      "name": "CaseCreated",
      "type": "event"
    },
    {
      "anonymous": false,
      "inputs": [
        {
          "indexed": false,
          "internalType": "string",
          "name": "message",
          "type": "string"
        }
      ],
      "name": "EvidenceCreated",
      "type": "event"
    },
    {
      "constant": false,
      "inputs": [
        {
          "internalType": "string",
          "name": "_description",
          "type": "string"
        }
      ],
      "name": "createCase",
      "outputs": [],
      "payable": false,
      "stateMutability": "nonpayable",
      "type": "function"
    },
    {
      "constant": false,
      "inputs": [
        {
          "internalType": "uint256",
          "name": "caseId",
          "type": "uint256"
        },
        {
          "internalType": "uint256",
          "name": "docId",
          "type": "uint256"
        },
        {
          "internalType": "string",
          "name": "baseAdd",
          "type": "string"
        }
      ],
      "name": "insertEvidence",
      "outputs": [],
      "payable": false,
      "stateMutability": "nonpayable",
      "type": "function"
    },
    {
      "constant": true,
      "inputs": [
        {
          "internalType": "uint256",
          "name": "caseId",
          "type": "uint256"
        },
        {
          "internalType": "uint256",
          "name": "docId",
          "type": "uint256"
        }
      ],
      "name": "getEvidenceInfo",
      "outputs": [
        {
          "internalType": "uint256",
          "name": "",
          "type": "uint256"
        },
        {
          "internalType": "uint256",
          "name": "",
          "type": "uint256"
        },
        {
          "internalType": "string",
          "name": "",
          "type": "string"
        }
      ],
      "payable": false,
      "stateMutability": "view",
      "type": "function"
    },
    {
      "constant": true,
      "inputs": [
        {
          "internalType": "uint256",
          "name": "caseId",
          "type": "uint256"
        }
      ],
      "name": "getCaseInfo",
      "outputs": [
        {
          "internalType": "string",
          "name": "",
          "type": "string"
        },
        {
          "internalType": "uint256",
          "name": "",
          "type": "uint256"
        },
        {
          "internalType": "string",
          "name": "",
          "type": "string"
        },
        {
          "components": [
            {
              "internalType": "uint256",
              "name": "docId",
              "type": "uint256"
            },
            {
              "internalType": "string",
              "name": "baseAdd",
              "type": "string"
            },
            {
              "internalType": "uint256",
              "name": "blockNo",
              "type": "uint256"
            }
          ],
          "internalType": "struct Evidence.CaseInfo[]",
          "name": "",
          "type": "tuple[]"
        }
      ],
      "payable": false,
      "stateMutability": "view",
      "type": "function"
    }
  ],
  "bytecode": "0x608060405234801561001057600080fd5b506000808190555061107b806100276000396000f3fe608060405234801561001057600080fd5b506004361061004c5760003560e01c80631d85fdac1461005157806369246d871461006d578063c30cd28f1461009f578063d0d10af1146100d2575b600080fd5b61006b60048036036100669190810190610adb565b6100ee565b005b61008760048036036100829190810190610a9f565b6102cc565b60405161009693929190610e93565b60405180910390f35b6100b960048036036100b49190810190610a76565b6104e5565b6040516100c99493929190610dab565b60405180910390f35b6100ec60048036036100e79190810190610a35565b61085a565b005b600083141580156101145750826001600085815260200190815260200160002060000154145b1561029157600082141580156101545750816001600085815260200190815260200160002060030160008481526020019081526020016000206000015414155b156102565781600160008581526020019081526020016000206003016000848152602001908152602001600020600001819055508060016000858152602001908152602001600020600301600084815260200190815260200160002060010190805190602001906101c6929190610906565b50436001600085815260200190815260200160002060030160008481526020019081526020016000206002018190555060016000848152602001908152602001600020600101600081548092919060010191905055507fc2e6db28773c295a1e98714e72df1006b3a1dfd413511c9af0b6075c6aeb78cf60405161024990610e45565b60405180910390a161028c565b7fc2e6db28773c295a1e98714e72df1006b3a1dfd413511c9af0b6075c6aeb78cf60405161028390610e05565b60405180910390a15b6102c7565b7fc2e6db28773c295a1e98714e72df1006b3a1dfd413511c9af0b6075c6aeb78cf6040516102be90610e25565b60405180910390a15b505050565b6000806060600085141580156102f75750846001600087815260200190815260200160002060000154145b15610498576000841415801561033657508360016000878152602001908152602001600020600301600086815260200190815260200160002060000154145b1561044e57600160008681526020019081526020016000206000015460016000878152602001908152602001600020600301600086815260200190815260200160002060000154600160008881526020019081526020016000206003016000878152602001908152602001600020600101808054600181600116156101000203166002900480601f01602080910402602001604051908101604052809291908181526020018280546001816001161561010002031660029004801561043c5780601f106104115761010080835404028352916020019161043c565b820191906000526020600020905b81548152906001019060200180831161041f57829003601f168201915b505050505090509250925092506104de565b6000808191508090506040518060400160405280601381526020017f446f63494420646f65736e2774204578697374000000000000000000000000008152509250925092506104de565b6000808191508090506040518060400160405280601481526020017f43617365494420646f65736e27742045786973740000000000000000000000008152509250925092505b9250925092565b60606000606080600085141580156105125750846001600087815260200190815260200160002060000154145b156107f85760006001600087815260200190815260200160002060010154141561057457606085816040518060600160405280602981526020016110106029913991906040518060200160405280600081525090945094509450945050610853565b606060016000878152602001908152602001600020600101546040519080825280602002602001820160405280156105c657816020015b6105b3610986565b8152602001906001900390816105ab5790505b5090506000600190505b600160008881526020019081526020016000206001015481116106fc5760016000888152602001908152602001600020600301600082815260200190815260200160002060405180606001604052908160008201548152602001600182018054600181600116156101000203166002900480601f0160208091040260200160405190810160405280929190818152602001828054600181600116156101000203166002900480156106c25780601f10610697576101008083540402835291602001916106c2565b820191906000526020600020905b8154815290600101906020018083116106a557829003601f168201915b505050505081526020016002820154815250508260018303815181106106e457fe5b602002602001018190525080806001019150506105d0565b508560016000888152602001908152602001600020600201826040518060400160405280601481526020017f5375636365737366756c6c792046657463686564000000000000000000000000815250929190818054600181600116156101000203166002900480601f0160208091040260200160405190810160405280929190818152602001828054600181600116156101000203166002900480156107e35780601f106107b8576101008083540402835291602001916107e3565b820191906000526020600020905b8154815290600101906020018083116107c657829003601f168201915b50505050509150945094509450945050610853565b60606000816040518060400160405280600a81526020017f496e76616c696420494400000000000000000000000000000000000000000000815250919081915060405180602001604052806000815250909450945094509450505b9193509193565b600080815480929190600101919050555060005460016000805481526020019081526020016000206000018190555080600160008054815260200190815260200160002060020190805190602001906108b4929190610906565b507f61db2bee1b6a5c4c35bc25d487944f36be7bd1e5eb0c771d4a4a9c8cc43175e96001600080548152602001908152602001600020600001546040516108fb9190610e65565b60405180910390a150565b828054600181600116156101000203166002900490600052602060002090601f016020900481019282601f1061094757805160ff1916838001178555610975565b82800160010185558215610975579182015b82811115610974578251825591602001919060010190610959565b5b50905061098291906109a7565b5090565b60405180606001604052806000815260200160608152602001600081525090565b6109c991905b808211156109c55760008160009055506001016109ad565b5090565b90565b600082601f8301126109dd57600080fd5b81356109f06109eb82610efe565b610ed1565b91508082526020830160208301858383011115610a0c57600080fd5b610a17838284610fa5565b50505092915050565b600081359050610a2f81610ff8565b92915050565b600060208284031215610a4757600080fd5b600082013567ffffffffffffffff811115610a6157600080fd5b610a6d848285016109cc565b91505092915050565b600060208284031215610a8857600080fd5b6000610a9684828501610a20565b91505092915050565b60008060408385031215610ab257600080fd5b6000610ac085828601610a20565b9250506020610ad185828601610a20565b9150509250929050565b600080600060608486031215610af057600080fd5b6000610afe86828701610a20565b9350506020610b0f86828701610a20565b925050604084013567ffffffffffffffff811115610b2c57600080fd5b610b38868287016109cc565b9150509250925092565b6000610b4e8383610d3d565b905092915050565b6000610b6182610f3a565b610b6b8185610f68565b935083602082028501610b7d85610f2a565b8060005b85811015610bb95784840389528151610b9a8582610b42565b9450610ba583610f5b565b925060208a01995050600181019050610b81565b50829750879550505050505092915050565b6000610bd682610f50565b610be08185610f8a565b9350610bf0818560208601610fb4565b610bf981610fe7565b840191505092915050565b6000610c0f82610f45565b610c198185610f79565b9350610c29818560208601610fb4565b610c3281610fe7565b840191505092915050565b6000610c4a600d83610f8a565b91507f496e76616c696420446f634944000000000000000000000000000000000000006000830152602082019050919050565b6000610c8a600e83610f8a565b91507f496e76616c6964204361736549440000000000000000000000000000000000006000830152602082019050919050565b6000610cca601b83610f8a565b91507f45766469656e6365204164646564205375636365737366756c6c7900000000006000830152602082019050919050565b6000610d0a601a83610f8a565b91507f53756363657366756c6c792063726561746564206120436173650000000000006000830152602082019050919050565b6000606083016000830151610d556000860182610d8d565b5060208301518482036020860152610d6d8282610c04565b9150506040830151610d826040860182610d8d565b508091505092915050565b610d9681610f9b565b82525050565b610da581610f9b565b82525050565b60006080820190508181036000830152610dc58187610bcb565b9050610dd46020830186610d9c565b8181036040830152610de68185610bcb565b90508181036060830152610dfa8184610b56565b905095945050505050565b60006020820190508181036000830152610e1e81610c3d565b9050919050565b60006020820190508181036000830152610e3e81610c7d565b9050919050565b60006020820190508181036000830152610e5e81610cbd565b9050919050565b60006040820190508181036000830152610e7e81610cfd565b9050610e8d6020830184610d9c565b92915050565b6000606082019050610ea86000830186610d9c565b610eb56020830185610d9c565b8181036040830152610ec78184610bcb565b9050949350505050565b6000604051905081810181811067ffffffffffffffff82111715610ef457600080fd5b8060405250919050565b600067ffffffffffffffff821115610f1557600080fd5b601f19601f8301169050602081019050919050565b6000819050602082019050919050565b600081519050919050565b600081519050919050565b600081519050919050565b6000602082019050919050565b600082825260208201905092915050565b600082825260208201905092915050565b600082825260208201905092915050565b6000819050919050565b82818337600083830152505050565b60005b83811015610fd2578082015181840152602081019050610fb7565b83811115610fe1576000848401525b50505050565b6000601f19601f8301169050919050565b61100181610f9b565b811461100c57600080fd5b5056fe43617365204578697374206275742045766964656e63657320617265206e6f742075706c6f61646564a365627a7a7231582010dd778e164e71e7bec6f2b6fe81cadb4bcbd81274f2babb585fbe1a030a4a7e6c6578706572696d656e74616cf564736f6c63430005100040",
  "source": "// SPDX-License-Identifier: UNLICENSED\npragma solidity >=0.5.0 <=0.9.0;\npragma experimental ABIEncoderV2;\n\ncontract Evidence {\n   uint noOfCases;\n   constructor ()public{\n      noOfCases=0;\n   }\n   struct CaseInfo{\n      uint docId;\n      string baseAdd;\n      uint blockNo;\n   }\n   struct Case{\n      uint caseId;\n      uint noOfDocs;\n      string description;\n      mapping(uint => CaseInfo) allDocs;\n   }\n   \n\n   mapping(uint => Case) allCases;\n\n   event CaseCreated(\n        string message,\n        uint caseId\n   );\n\n   function createCase(string memory _description)public{\n      noOfCases++;\n      allCases[noOfCases].caseId=noOfCases;\n      allCases[noOfCases].description=_description;\n      emit  CaseCreated(\"Succesfully created a Case\",allCases[noOfCases].caseId);\n   }\n   \n   event EvidenceCreated(\n        string message\n   );\n\n   function insertEvidence(uint caseId,uint docId,string memory baseAdd)public {\n      if(caseId!=0 && allCases[caseId].caseId==caseId){\n         if(docId!=0 && allCases[caseId].allDocs[docId].docId!=docId){\n            // if(bytes(baseAdd).length==0){\n            //    emit EvidenceCreated(\"Cannot create empty Evidence\");\n            // }\n            allCases[caseId].allDocs[docId].docId=docId;\n            allCases[caseId].allDocs[docId].baseAdd=baseAdd;\n            allCases[caseId].allDocs[docId].blockNo=block.number;\n            allCases[caseId].noOfDocs++;\n            emit EvidenceCreated(\"Evdience Added Successfully\");\n         }\n         else{\n            emit EvidenceCreated(\"Invalid DocID\");\n         }\n      }\n      else{\n         emit EvidenceCreated(\"Invalid CaseID\");\n      }\n   }\n\n   function getEvidenceInfo(uint caseId,uint docId) public view returns(uint,uint,string memory){\n      if(caseId!=0 && allCases[caseId].caseId==caseId){\n         if(docId!=0 && allCases[caseId].allDocs[docId].docId==docId){\n               return (allCases[caseId].caseId,\n            allCases[caseId].allDocs[docId].docId,  \n            allCases[caseId].allDocs[docId].baseAdd);\n         }\n         else{\n            return(0,0,\"DocID doesn't Exist\");\n         }\n      }\n      else{\n         return(0,0,\"CaseID doesn't Exist\");\n      }\n      \n   }\n\n\n   function getCaseInfo(uint caseId) public view returns(string memory,uint,string memory,CaseInfo[] memory){\n      if(caseId!=0 && allCases[caseId].caseId==caseId){\n         if(allCases[caseId].noOfDocs==0){\n            CaseInfo[] memory M;\n            return(\"Case Exist but Evidences are not uploaded\",caseId,\"\",M);\n         }\n         CaseInfo[] memory m=new CaseInfo[](allCases[caseId].noOfDocs);\n         for(uint i = 1; i <=allCases[caseId].noOfDocs; i++) {\n               m[i-1] = allCases[caseId].allDocs[i];\n         }\n         return(\"Successfully Fetched\",caseId,allCases[caseId].description,m);\n      }\n      else{\n         CaseInfo[] memory m;\n         return(\"Invalid ID\",0,\"\",m);\n      }\n   } \n}\n\n",
  "sourcePath": "C:\\Mini project\\Block-Chain-Minor-Project\\frontend\\contracts\\evidence.sol",
  "compiler": {
    "name": "solc",
    "version": "0.5.16+commit.9c3226ce.Emscripten.clang"
  },
  "schemaVersion": "3.4.10",
  "updatedAt": "2023-05-01T10:52:43.575Z",
  "networkType": "ethereum",
  "devdoc": {
    "methods": {}
  },
  "userdoc": {
    "methods": {}
  }
}