{
  "contractName": "Sharding",
  "abi": [
    {
      "anonymous": false,
      "inputs": [
        {
          "indexed": false,
          "internalType": "uint256",
          "name": "shardNumber",
          "type": "uint256"
        },
        {
          "indexed": false,
          "internalType": "bytes32",
          "name": "shardHash",
          "type": "bytes32"
        }
      ],
      "name": "ShardHashUpdated",
      "type": "event"
    },
    {
      "anonymous": false,
      "inputs": [
        {
          "components": [
            {
              "internalType": "uint256",
              "name": "shardNo",
              "type": "uint256"
            },
            {
              "internalType": "bytes32",
              "name": "shardAddress",
              "type": "bytes32"
            },
            {
              "components": [
                {
                  "internalType": "uint256[]",
                  "name": "blockNo",
                  "type": "uint256[]"
                },
                {
                  "internalType": "uint256",
                  "name": "validatorNo",
                  "type": "uint256"
                },
                {
                  "internalType": "address",
                  "name": "validatorAddress",
                  "type": "address"
                }
              ],
              "internalType": "struct Sharding.validator[]",
              "name": "v",
              "type": "tuple[]"
            },
            {
              "internalType": "uint256",
              "name": "shardSize",
              "type": "uint256"
            }
          ],
          "indexed": false,
          "internalType": "struct Sharding.Shard[]",
          "name": "",
          "type": "tuple[]"
        }
      ],
      "name": "Shardss",
      "type": "event"
    },
    {
      "constant": true,
      "inputs": [
        {
          "internalType": "uint256",
          "name": "",
          "type": "uint256"
        }
      ],
      "name": "Names",
      "outputs": [
        {
          "internalType": "uint256",
          "name": "",
          "type": "uint256"
        }
      ],
      "payable": false,
      "stateMutability": "view",
      "type": "function"
    },
    {
      "constant": true,
      "inputs": [
        {
          "internalType": "uint256",
          "name": "",
          "type": "uint256"
        }
      ],
      "name": "_map1",
      "outputs": [
        {
          "internalType": "uint256",
          "name": "",
          "type": "uint256"
        }
      ],
      "payable": false,
      "stateMutability": "view",
      "type": "function"
    },
    {
      "constant": true,
      "inputs": [
        {
          "internalType": "uint256",
          "name": "",
          "type": "uint256"
        }
      ],
      "name": "_map2",
      "outputs": [
        {
          "internalType": "uint256",
          "name": "",
          "type": "uint256"
        }
      ],
      "payable": false,
      "stateMutability": "view",
      "type": "function"
    },
    {
      "constant": true,
      "inputs": [
        {
          "internalType": "uint256",
          "name": "",
          "type": "uint256"
        }
      ],
      "name": "keys1",
      "outputs": [
        {
          "internalType": "uint256",
          "name": "",
          "type": "uint256"
        }
      ],
      "payable": false,
      "stateMutability": "view",
      "type": "function"
    },
    {
      "constant": true,
      "inputs": [
        {
          "internalType": "uint256",
          "name": "",
          "type": "uint256"
        }
      ],
      "name": "keys2",
      "outputs": [
        {
          "internalType": "uint256",
          "name": "",
          "type": "uint256"
        }
      ],
      "payable": false,
      "stateMutability": "view",
      "type": "function"
    },
    {
      "constant": true,
      "inputs": [],
      "name": "shardCount",
      "outputs": [
        {
          "internalType": "uint256",
          "name": "",
          "type": "uint256"
        }
      ],
      "payable": false,
      "stateMutability": "view",
      "type": "function"
    },
    {
      "constant": true,
      "inputs": [],
      "name": "shardSize",
      "outputs": [
        {
          "internalType": "uint256",
          "name": "",
          "type": "uint256"
        }
      ],
      "payable": false,
      "stateMutability": "view",
      "type": "function"
    },
    {
      "constant": false,
      "inputs": [
        {
          "internalType": "uint256",
          "name": "shardNumber",
          "type": "uint256"
        },
        {
          "internalType": "bytes32",
          "name": "shardHash",
          "type": "bytes32"
        }
      ],
      "name": "setShardHash",
      "outputs": [],
      "payable": false,
      "stateMutability": "nonpayable",
      "type": "function"
    },
    {
      "constant": false,
      "inputs": [
        {
          "internalType": "uint256",
          "name": "shardNumber",
          "type": "uint256"
        },
        {
          "internalType": "address",
          "name": "_validator",
          "type": "address"
        }
      ],
      "name": "addValidator",
      "outputs": [],
      "payable": false,
      "stateMutability": "nonpayable",
      "type": "function"
    },
    {
      "constant": true,
      "inputs": [
        {
          "internalType": "uint256",
          "name": "shardNumber",
          "type": "uint256"
        }
      ],
      "name": "getShard",
      "outputs": [
        {
          "components": [
            {
              "internalType": "uint256",
              "name": "shardNo",
              "type": "uint256"
            },
            {
              "internalType": "bytes32",
              "name": "shardAddress",
              "type": "bytes32"
            },
            {
              "components": [
                {
                  "internalType": "uint256[]",
                  "name": "blockNo",
                  "type": "uint256[]"
                },
                {
                  "internalType": "uint256",
                  "name": "validatorNo",
                  "type": "uint256"
                },
                {
                  "internalType": "address",
                  "name": "validatorAddress",
                  "type": "address"
                }
              ],
              "internalType": "struct Sharding.validator[]",
              "name": "v",
              "type": "tuple[]"
            },
            {
              "internalType": "uint256",
              "name": "shardSize",
              "type": "uint256"
            }
          ],
          "internalType": "struct Sharding.Shard",
          "name": "",
          "type": "tuple"
        }
      ],
      "payable": false,
      "stateMutability": "view",
      "type": "function"
    },
    {
      "constant": true,
      "inputs": [
        {
          "internalType": "uint256",
          "name": "shardNumber",
          "type": "uint256"
        },
        {
          "internalType": "uint256",
          "name": "validatorNo",
          "type": "uint256"
        }
      ],
      "name": "getValidator",
      "outputs": [
        {
          "components": [
            {
              "internalType": "uint256[]",
              "name": "blockNo",
              "type": "uint256[]"
            },
            {
              "internalType": "uint256",
              "name": "validatorNo",
              "type": "uint256"
            },
            {
              "internalType": "address",
              "name": "validatorAddress",
              "type": "address"
            }
          ],
          "internalType": "struct Sharding.validator",
          "name": "",
          "type": "tuple"
        }
      ],
      "payable": false,
      "stateMutability": "view",
      "type": "function"
    },
    {
      "constant": false,
      "inputs": [],
      "name": "getBlocks",
      "outputs": [],
      "payable": false,
      "stateMutability": "nonpayable",
      "type": "function"
    },
    {
      "constant": true,
      "inputs": [],
      "name": "getArray",
      "outputs": [
        {
          "internalType": "uint256[][]",
          "name": "",
          "type": "uint256[][]"
        }
      ],
      "payable": false,
      "stateMutability": "view",
      "type": "function"
    },
    {
      "constant": false,
      "inputs": [
        {
          "internalType": "uint256",
          "name": "max",
          "type": "uint256"
        }
      ],
      "name": "random",
      "outputs": [
        {
          "internalType": "uint256",
          "name": "",
          "type": "uint256"
        }
      ],
      "payable": false,
      "stateMutability": "nonpayable",
      "type": "function"
    },
    {
      "constant": false,
      "inputs": [],
      "name": "assignBlocks",
      "outputs": [],
      "payable": false,
      "stateMutability": "nonpayable",
      "type": "function"
    },
    {
      "constant": false,
      "inputs": [],
      "name": "rebalanceNodes",
      "outputs": [],
      "payable": false,
      "stateMutability": "nonpayable",
      "type": "function"
    },
    {
      "constant": false,
      "inputs": [],
      "name": "interShard",
      "outputs": [
        {
          "internalType": "bool[]",
          "name": "",
          "type": "bool[]"
        }
      ],
      "payable": false,
      "stateMutability": "nonpayable",
      "type": "function"
    },
    {
      "constant": false,
      "inputs": [],
      "name": "DPOS",
      "outputs": [
        {
          "internalType": "uint256[]",
          "name": "",
          "type": "uint256[]"
        }
      ],
      "payable": false,
      "stateMutability": "nonpayable",
      "type": "function"
    },
    {
      "constant": false,
      "inputs": [
        {
          "internalType": "uint256",
          "name": "_shardCount",
          "type": "uint256"
        },
        {
          "internalType": "uint256",
          "name": "_shardSize",
          "type": "uint256"
        }
      ],
      "name": "setshardParameters",
      "outputs": [],
      "payable": false,
      "stateMutability": "nonpayable",
      "type": "function"
    }
  ],
  "bytecode": "0x6080604052600060085534801561001557600080fd5b506128a5806100256000396000f3fe608060405234801561001057600080fd5b50600436106101215760003560e01c80636943935e116100ad578063ccfaebe911610071578063ccfaebe9146102f6578063d38e0ae414610312578063d504ea1d14610330578063e40821ef1461034e578063f01a4e0e1461037e57610121565b80636943935e146102765780637d743acc1461029457806396f338581461029e578063b863bd37146102bc578063b86a3197146102ec57610121565b806336d72153116100f457806336d72153146101d45780634b561753146101f05780634f5b7dc21461020c5780635d73831f1461021657806363b4118f1461024657610121565b806304e9c77a146101265780631f16a57b146101445780632e276ce8146101745780633508e267146101a4575b600080fd5b61012e6103ae565b60405161013b91906124d2565b60405180910390f35b61015e60048036036101599190810190611c44565b6103b4565b60405161016b919061248e565b60405180910390f35b61018e60048036036101899190810190611c44565b6105a6565b60405161019b91906124d2565b60405180910390f35b6101be60048036036101b99190810190611c44565b6105be565b6040516101cb91906124d2565b60405180910390f35b6101ee60048036036101e99190810190611ce5565b6105d6565b005b61020a60048036036102059190810190611c6d565b6106f7565b005b610214610939565b005b610230600480360361022b9190810190611c44565b610a07565b60405161023d91906124d2565b60405180910390f35b610260600480360361025b9190810190611ce5565b610a28565b60405161026d91906124b0565b60405180910390f35b61027e610c38565b60405161028b919061244c565b60405180910390f35b61029c611037565b005b6102a661133a565b6040516102b391906124d2565b60405180910390f35b6102d660048036036102d19190810190611c44565b611340565b6040516102e391906124d2565b60405180910390f35b6102f4611399565b005b610310600480360361030b9190810190611ca9565b6114be565b005b61031a6115e8565b6040516103279190612408565b60405180910390f35b61033861185b565b60405161034591906123e6565b60405180910390f35b61036860048036036103639190810190611c44565b6118fa565b60405161037591906124d2565b60405180910390f35b61039860048036036103939190810190611c44565b61191b565b6040516103a591906124d2565b60405180910390f35b60005481565b6103bc611933565b60008090505b6002805490508110156105655782600282815481106103dd57fe5b9060005260206000209060040201600001541415610558576002818154811061040257fe5b9060005260206000209060040201604051806080016040529081600082015481526020016001820154815260200160028201805480602002602001604051908101604052809291908181526020016000905b8282101561053e5783829060005260206000209060030201604051806060016040529081600082018054806020026020016040519081016040528092919081815260200182805480156104c657602002820191906000526020600020905b8154815260200190600101908083116104b2575b50505050508152602001600182015481526020016002820160009054906101000a900473ffffffffffffffffffffffffffffffffffffffff1673ffffffffffffffffffffffffffffffffffffffff1673ffffffffffffffffffffffffffffffffffffffff168152505081526020019060010190610454565b5050505081526020016003820154815250509150506105a1565b80806001019150506103c2565b506040517f08c379a00000000000000000000000000000000000000000000000000000000081526004016105989061246e565b60405180910390fd5b919050565b600c6020528060005260406000206000915090505481565b600e6020528060005260406000206000915090505481565b816000819055508060018190555060008090505b60005481101561066a57610621817fa0ea57091e7f1d8d0c29ae04029d50d67440988ddd1bba093ef9281745d2c08c60001b6114be565b60008090505b60015481101561065c5761064f82739801689c36151683b789ec22fcd0b7fe9dbcc88e6106f7565b8080600101915050610627565b5080806001019150506105ea565b50610673610939565b61067b611399565b7f11fbbb6b96d1631875e17b3ade9bba3ff6bc5d2408f7300064a970906a90466b60026040516106ab919061242a565b60405180910390a16106bb611037565b7f11fbbb6b96d1631875e17b3ade9bba3ff6bc5d2408f7300064a970906a90466b60026040516106eb919061242a565b60405180910390a15050565b600054821061070557600080fd5b6001546002838154811061071557fe5b9060005260206000209060040201600301541061073157600080fd5b61073961195e565b6002838154811061074657fe5b90600052602060002090600402016002018190806001815401808255809150509060018203906000526020600020906003020160009091929091909150600082015181600001908051906020019061079f929190611995565b506020820151816001015560408201518160020160006101000a81548173ffffffffffffffffffffffffffffffffffffffff021916908373ffffffffffffffffffffffffffffffffffffffff1602179055505050506002838154811061080157fe5b9060005260206000209060040201600301546002848154811061082057fe5b90600052602060002090600402016002016002858154811061083e57fe5b9060005260206000209060040201600301548154811061085a57fe5b906000526020600020906003020160010181905550816002848154811061087d57fe5b90600052602060002090600402016002016002858154811061089b57fe5b906000526020600020906004020160030154815481106108b757fe5b906000526020600020906003020160020160006101000a81548173ffffffffffffffffffffffffffffffffffffffff021916908373ffffffffffffffffffffffffffffffffffffffff1602179055506002838154811061091357fe5b906000526020600020906004020160030160008154809291906001019190505550505050565b60606000600190505b6003811015610a035760078290806001815401808255809150509060018203906000526020600020016000909192909190915090805190602001906109889291906119e2565b50506000600190505b60038110156109f5576007600160078054905003815481106109af57fe5b9060005260206000200181600a84020190806001815401808255809150509060018203906000526020600020016000909192909190915055508080600101915050610991565b508080600101915050610942565b5050565b600d8181548110610a1457fe5b906000526020600020016000915090505481565b610a3061195e565b60008090505b600280549050811015610bf6578360028281548110610a5157fe5b9060005260206000209060040201600001541415610be95760008090505b60028281548110610a7c57fe5b906000526020600020906004020160030154811015610be7578360028381548110610aa357fe5b90600052602060002090600402016002018281548110610abf57fe5b9060005260206000209060030201600101541415610bda5760028281548110610ae457fe5b90600052602060002090600402016002018181548110610b0057fe5b906000526020600020906003020160405180606001604052908160008201805480602002602001604051908101604052809291908181526020018280548015610b6857602002820191906000526020600020905b815481526020019060010190808311610b54575b50505050508152602001600182015481526020016002820160009054906101000a900473ffffffffffffffffffffffffffffffffffffffff1673ffffffffffffffffffffffffffffffffffffffff1673ffffffffffffffffffffffffffffffffffffffff168152505092505050610c32565b8080600101915050610a6f565b505b8080600101915050610a36565b506040517f08c379a0000000000000000000000000000000000000000000000000000000008152600401610c299061246e565b60405180910390fd5b92915050565b606060008090505b6005811015610cba5760078181548110610c5657fe5b9060005260206000200180549050600c600060018401815260200190815260200160002081905550600d6001820190806001815401808255809150509060018203906000526020600020016000909192909190915055508080600101915050610c40565b5060008090505b600d80549050811015610dc85760006001820190505b600d80549050811015610dba57600c6000600d8381548110610cf557fe5b9060005260206000200154815260200190815260200160002054600c6000600d8581548110610d2057fe5b90600052602060002001548152602001908152602001600020541015610dad576000600d8381548110610d4f57fe5b90600052602060002001549050600d8281548110610d6957fe5b9060005260206000200154600d8481548110610d8157fe5b906000526020600020018190555080600d8381548110610d9d57fe5b9060005260206000200181905550505b8080600101915050610cd7565b508080600101915050610cc1565b5060006003600d8054905081610dda57fe5b049050600081600d8054905003905060006001820190505b600d80549050811015610e3857600f8190806001815401808255809150509060018203906000526020600020016000909192909190915055508080600101915050610df2565b5060008090505b81811015610e8457600e6000600184610e5787611340565b01018152602001908152602001600020600081548092919060010191905055508080600101915050610e3f565b5060008090505b600f80549050811015610f925760006001820190505b600f80549050811015610f8457600e6000600f8381548110610ebf57fe5b9060005260206000200154815260200190815260200160002054600e6000600f8581548110610eea57fe5b90600052602060002001548152602001908152602001600020541015610f77576000600f8381548110610f1957fe5b90600052602060002001549050600f8281548110610f3357fe5b9060005260206000200154600f8481548110610f4b57fe5b906000526020600020018190555080600f8381548110610f6757fe5b9060005260206000200181905550505b8080600101915050610ea1565b508080600101915050610e8b565b506000600190505b60018201811015610fde57600f8190806001815401808255809150509060018203906000526020600020016000909192909190915055508080600101915050610f9a565b50600f80548060200260200160405190810160405280929190818152602001828054801561102b57602002820191906000526020600020905b815481526020019060010190808311611017575b50505050509250505090565b60008090505b6002805490508110156111f15760008090505b6002828154811061105d57fe5b9060005260206000209060040201600301548110156111e3575b60016002838154811061108657fe5b906000526020600020906004020160020182815481106110a257fe5b90600052602060002090600302016000018054905011156111d6576009600283815481106110cc57fe5b906000526020600020906004020160020182815481106110e857fe5b906000526020600020906003020160000160016002858154811061110857fe5b9060005260206000209060040201600201848154811061112457fe5b906000526020600020906003020160000180549050038154811061114457fe5b906000526020600020015490806001815401808255809150509060018203906000526020600020016000909192909190915055506002828154811061118557fe5b906000526020600020906004020160020181815481106111a157fe5b90600052602060002090600302016000018054806111bb57fe5b60019003818190600052602060002001600090559055611077565b8080600101915050611050565b50808060010191505061103d565b5060008090505b6002805490508110156113375760008090505b6002828154811061121857fe5b9060005260206000209060040201600301548110156113295760006002838154811061124057fe5b9060005260206000209060040201600201828154811061125c57fe5b906000526020600020906003020160000180549050141561131c576002828154811061128457fe5b906000526020600020906004020160020181815481106112a057fe5b90600052602060002090600302016000016009600160098054905003815481106112c657fe5b90600052602060002001549080600181540180825580915050906001820390600052602060002001600090919290919091505550600980548061130557fe5b600190038181906000526020600020016000905590555b808060010191505061120b565b5080806001019150506111f8565b50565b60015481565b60008082423360085460405160200161135b939291906123a9565b6040516020818303038152906040528051906020012060001c8161137b57fe5b06905060086000815480929190600101919050555080915050919050565b60008090505b60028110156114bb5760008090505b60028110156114ad5760008090505b600a8110156113d35780806001019150506113bd565b5060006113e1600054611340565b9050600061140c600283815481106113f557fe5b906000526020600020906004020160030154611340565b90506002828154811061141b57fe5b9060005260206000209060040201600201818154811061143757fe5b90600052602060002090600302016000016007858154811061145557fe5b90600052602060002001848154811061146a57fe5b90600052602060002001549080600181540180825580915050906001820390600052602060002001600090919290919091505550505080806001019150506113ae565b50808060010191505061139f565b50565b60005482106114cc57600080fd5b600260039080600181540180825580915050906001820390600052602060002090600402016000909192909190915060008201548160000155600182015481600101556002820181600201908054611525929190611a2f565b506003820154816003015550505060006001600280549050039050826002828154811061154e57fe5b906000526020600020906004020160000181905550816002828154811061157157fe5b90600052602060002090600402016001018190555060006002828154811061159557fe5b9060005260206000209060040201600301819055507fa0b6b926435442e077ce48476b2457633f8f93c29bf5ba325741f615c778a25883836040516115db9291906124ed565b60405180910390a1505050565b606060008090505b60058110156117df576000600a905060008090505b60058110156117235760006007848154811061161d57fe5b90600052602060002001828154811061163257fe5b9060005260206000200154905060008090505b6002805490508110156117145760008090505b6002828154811061166557fe5b90600052602060002090600402016003015481101561170657826002838154811061168c57fe5b906000526020600020906004020160020182815481106116a857fe5b90600052602060002090600302016000016000815481106116c557fe5b906000526020600020015414156116f957846000838152602001908152602001600020600081548092919060010191905055505b8080600101915050611658565b508080600101915050611645565b50508080600101915050611605565b506001600b838154811061173357fe5b90600052602060002090602091828204019190066101000a81548160ff02191690831515021790555060008090505b6002805490508110156117d05760058260008381526020019081526020016000205414156117c3576000600b828154811061179957fe5b90600052602060002090602091828204019190066101000a81548160ff0219169083151502179055505b8080600101915050611762565b505080806001019150506115f0565b50600b80548060200260200160405190810160405280929190818152602001828054801561185157602002820191906000526020600020906000905b82829054906101000a900460ff1615158152602001906001019060208260000104928301926001038202915080841161181b5790505b5050505050905090565b60606007805480602002602001604051908101604052809291908181526020016000905b828210156118f1578382906000526020600020018054806020026020016040519081016040528092919081815260200182805480156118dd57602002820191906000526020600020905b8154815260200190600101908083116118c9575b50505050508152602001906001019061187f565b50505050905090565b600f818154811061190757fe5b906000526020600020016000915090505481565b600a6020528060005260406000206000915090505481565b6040518060800160405280600081526020016000801916815260200160608152602001600081525090565b60405180606001604052806060815260200160008152602001600073ffffffffffffffffffffffffffffffffffffffff1681525090565b8280548282559060005260206000209081019282156119d1579160200282015b828111156119d05782518255916020019190600101906119b5565b5b5090506119de9190611b0f565b5090565b828054828255906000526020600020908101928215611a1e579160200282015b82811115611a1d578251825591602001919060010190611a02565b5b509050611a2b9190611b0f565b5090565b828054828255906000526020600020906003028101928215611afe5760005260206000209160030282015b82811115611afd5782826000820181600001908054611a7a929190611b34565b50600182015481600101556002820160009054906101000a900473ffffffffffffffffffffffffffffffffffffffff168160020160006101000a81548173ffffffffffffffffffffffffffffffffffffffff021916908373ffffffffffffffffffffffffffffffffffffffff160217905550505091600301919060030190611a5a565b5b509050611b0b9190611b86565b5090565b611b3191905b80821115611b2d576000816000905550600101611b15565b5090565b90565b828054828255906000526020600020908101928215611b755760005260206000209182015b82811115611b74578254825591600101919060010190611b59565b5b509050611b829190611b0f565b5090565b611be191905b80821115611bdd5760008082016000611ba59190611be4565b60018201600090556002820160006101000a81549073ffffffffffffffffffffffffffffffffffffffff021916905550600301611b8c565b5090565b90565b5080546000825590600052602060002090810190611c029190611b0f565b50565b600081359050611c148161281d565b92915050565b600081359050611c2981612834565b92915050565b600081359050611c3e8161284b565b92915050565b600060208284031215611c5657600080fd5b6000611c6484828501611c2f565b91505092915050565b60008060408385031215611c8057600080fd5b6000611c8e85828601611c2f565b9250506020611c9f85828601611c05565b9150509250929050565b60008060408385031215611cbc57600080fd5b6000611cca85828601611c2f565b9250506020611cdb85828601611c1a565b9150509250929050565b60008060408385031215611cf857600080fd5b6000611d0685828601611c2f565b9250506020611d1785828601611c2f565b9150509250929050565b6000611d2d8383612055565b905092915050565b6000611d418383612118565b60208301905092915050565b6000611d5983836121e8565b905092915050565b6000611d6d83836122bd565b905092915050565b6000611d81838361230d565b905092915050565b6000611d958383612374565b60208301905092915050565b611db2611dad82612722565b6127c2565b82525050565b611dc181612710565b82525050565b6000611dd2826125a5565b611ddc8185612665565b935083602082028501611dee85612516565b8060005b85811015611e2a5784840389528151611e0b8582611d21565b9450611e16836125fd565b925060208a01995050600181019050611df2565b50829750879550505050505092915050565b6000611e47826125b0565b611e518185612676565b9350611e5c83612526565b8060005b83811015611e8d578151611e748882611d35565b9750611e7f8361260a565b925050600181019050611e60565b5085935050505092915050565b6000611ea5826125bb565b611eaf8185612687565b935083602082028501611ec185612536565b8060005b85811015611efc57848403895281611edd8582611d4d565b9450611ee883612617565b925060208a01995050600181019050611ec5565b50829750879550505050505092915050565b6000611f19826125c6565b611f238185612698565b935083602082028501611f358561254b565b8060005b85811015611f715784840389528151611f528582611d61565b9450611f5d83612624565b925060208a01995050600181019050611f39565b50829750879550505050505092915050565b6000611f8e826125d1565b611f988185612698565b935083602082028501611faa8561255b565b8060005b85811015611fe557848403895281611fc68582611d75565b9450611fd183612631565b925060208a01995050600181019050611fae565b50829750879550505050505092915050565b6000612002826125e7565b61200c81856126ba565b935061201783612580565b8060005b8381101561204857815161202f8882611d89565b975061203a8361264b565b92505060018101905061201b565b5085935050505092915050565b6000612060826125dc565b61206a81856126a9565b935061207583612570565b8060005b838110156120a657815161208d8882611d89565b97506120988361263e565b925050600181019050612079565b5085935050505092915050565b60006120be826125f2565b6120c881856126a9565b93506120d383612590565b8060005b8381101561210b576120e8826127f0565b6120f28882611d89565b97506120fd83612658565b9250506001810190506120d7565b5085935050505092915050565b61212181612734565b82525050565b61213081612740565b82525050565b61213f81612740565b82525050565b6000612152600f836126cb565b91507f5368617264206e6f7420666f756e6400000000000000000000000000000000006000830152602082019050919050565b600060808301600083015161219d6000860182612374565b5060208301516121b06020860182612127565b50604083015184820360408601526121c88282611f0e565b91505060608301516121dd6060860182612374565b508091505092915050565b60006080830160008084015490506121ff816127a8565b61220c6000870182612374565b506001840154905061221d8161278e565b61222a6020870182612127565b506002840185830360408701526122418382611f83565b92505060038401549050612254816127a8565b6122616060870182612374565b50819250505092915050565b6000606083016000830151848203600086015261228a8282612055565b915050602083015161229f6020860182612374565b5060408301516122b26040860182611db8565b508091505092915050565b600060608301600083015184820360008601526122da8282612055565b91505060208301516122ef6020860182612374565b5060408301516123026040860182611db8565b508091505092915050565b6000606083016000808401858303600087015261232a83826120b3565b9250506001840154905061233d816127a8565b61234a6020870182612374565b506002840154905061235b81612774565b6123686040870182611db8565b50819250505092915050565b61237d8161276a565b82525050565b61238c8161276a565b82525050565b6123a361239e8261276a565b6127e6565b82525050565b60006123b58286612392565b6020820191506123c58285611da1565b6014820191506123d58284612392565b602082019150819050949350505050565b600060208201905081810360008301526124008184611dc7565b905092915050565b600060208201905081810360008301526124228184611e3c565b905092915050565b600060208201905081810360008301526124448184611e9a565b905092915050565b600060208201905081810360008301526124668184611ff7565b905092915050565b6000602082019050818103600083015261248781612145565b9050919050565b600060208201905081810360008301526124a88184612185565b905092915050565b600060208201905081810360008301526124ca818461226d565b905092915050565b60006020820190506124e76000830184612383565b92915050565b60006040820190506125026000830185612383565b61250f6020830184612136565b9392505050565b6000819050602082019050919050565b6000819050602082019050919050565b60008190508160005260206000209050919050565b6000819050602082019050919050565b60008190508160005260206000209050919050565b6000819050602082019050919050565b6000819050602082019050919050565b60008190508160005260206000209050919050565b600081519050919050565b600081519050919050565b600081549050919050565b600081519050919050565b600081549050919050565b600081519050919050565b600081519050919050565b600081549050919050565b6000602082019050919050565b6000602082019050919050565b6000600482019050919050565b6000602082019050919050565b6000600382019050919050565b6000602082019050919050565b6000602082019050919050565b6000600182019050919050565b600082825260208201905092915050565b600082825260208201905092915050565b600082825260208201905092915050565b600082825260208201905092915050565b600082825260208201905092915050565b600082825260208201905092915050565b600082825260208201905092915050565b600073ffffffffffffffffffffffffffffffffffffffff82169050919050565b6000819050919050565b6000819050919050565b600061271b8261274a565b9050919050565b600061272d8261274a565b9050919050565b60008115159050919050565b6000819050919050565b600073ffffffffffffffffffffffffffffffffffffffff82169050919050565b6000819050919050565b600061278761278283612810565b6126dc565b9050919050565b60006127a161279c83612810565b6126fc565b9050919050565b60006127bb6127b683612810565b612706565b9050919050565b60006127cd826127d4565b9050919050565b60006127df82612803565b9050919050565b6000819050919050565b60006127fc82546127a8565b9050919050565b60008160601b9050919050565b60008160001c9050919050565b61282681612710565b811461283157600080fd5b50565b61283d81612740565b811461284857600080fd5b50565b6128548161276a565b811461285f57600080fd5b5056fea365627a7a723158208eb0a156b151fd233d28ce766466c0be68cbb738dd566ae05392e9b80dfa701e6c6578706572696d656e74616cf564736f6c63430005100040",
  "source": "// SPDX-License-Identifier: UNLICENSED\r\npragma solidity >=0.5.0 <=0.9.0;\r\npragma experimental ABIEncoderV2;\r\n\r\nimport \"./evidence.sol\";\r\n\r\ncontract Sharding {\r\n\r\n    uint public shardCount;\r\n    uint public shardSize;\r\n\r\n    struct validator{\r\n        uint [] blockNo;\r\n        uint validatorNo;\r\n        address validatorAddress;\r\n    }\r\n\r\n    struct Shard{\r\n        uint shardNo;\r\n        bytes32 shardAddress;\r\n        validator[] v;\r\n        uint shardSize;\r\n    } \r\n\r\n    Shard[] s;\r\n\r\n    event ShardHashUpdated(uint shardNumber, bytes32 shardHash);\r\n    event Shardss(Shard []);\r\n\r\n    \r\n\r\n    Shard ss;\r\n    function setShardHash(uint shardNumber, bytes32 shardHash) public {\r\n        require(shardNumber < shardCount);\r\n        s.push(ss);\r\n        uint index = s.length - 1;\r\n        s[index].shardNo = shardNumber;\r\n        s[index].shardAddress = shardHash;\r\n        s[index].shardSize = 0;\r\n        emit ShardHashUpdated(shardNumber, shardHash);\r\n    }\r\n\r\n\r\n    function addValidator(uint shardNumber, address _validator) public {\r\n        require(shardNumber < shardCount);\r\n        require(s[shardNumber].shardSize < shardSize);\r\n        //validator memory vv= validator([],s[shardNumber].shardSize, _validator);\r\n        validator memory vv;\r\n        s[shardNumber].v.push(vv);\r\n        s[shardNumber].v[s[shardNumber].shardSize].validatorNo=s[shardNumber].shardSize;\r\n        s[shardNumber].v[s[shardNumber].shardSize].validatorAddress=_validator;\r\n        s[shardNumber].shardSize++;\r\n    }\r\n\r\n    \r\n\r\n    function getShard(uint256 shardNumber) public view returns (Shard memory) {\r\n        for (uint i = 0; i < s.length; i++) {\r\n            if (s[i].shardNo == shardNumber) {\r\n                return s[i];\r\n            }\r\n        }\r\n        revert(\"Shard not found\");\r\n    }\r\n\r\n    function getValidator(uint256 shardNumber,uint validatorNo) public view returns (validator memory) {\r\n        for (uint i = 0; i < s.length; i++) {\r\n            if (s[i].shardNo == shardNumber) {\r\n                for (uint j = 0; j < s[i].shardSize; j++)\r\n                {\r\n                    if(s[i].v[j].validatorNo == validatorNo)\r\n                        return s[i].v[j];\r\n                }\r\n            }\r\n        }\r\n        revert(\"Shard not found\");\r\n    }\r\n\r\n    // function isValidator(address validator, uint shardNumber) public view returns (bool) {\r\n    //     address[] memory validators = shardValidators[shardNumber];\r\n    //     for (uint i = 0; i < validators.length; i++) {\r\n    //         if (validators[i] == validator) {\r\n    //             return true;\r\n    //         }\r\n    //     }\r\n    //     return false;\r\n    // }\r\n\r\n     uint [][]  _map;\r\n    \r\n    //Evidence e=new Evidence();\r\n    function getBlocks() public{\r\n        uint [] memory m;\r\n        for(uint i=1;i<3;i++){\r\n            _map.push(m);\r\n            for(uint j=1;j<3;j++){\r\n                // if(e.getBlockNumber(i,j)==0)\r\n                    // break;\r\n                // _map[i][j] = e.getBlockNumber(i,j);\r\n                //_map[i][j] = i*10+j;\r\n                _map[_map.length-1].push(i*10+j);\r\n            }\r\n        }\r\n    }\r\n\r\n    function getArray() public view returns (uint[][] memory) {\r\n        return _map;\r\n    }\r\n\r\n    \r\n    // function random(uint max) public view returns (uint) {\r\n    //     return uint(keccak256(abi.encodePacked(block.timestamp, block.difficulty))) % max;\r\n    // }\r\n\r\n    uint private nonce = 0;\r\n\r\n    function random(uint max) public returns (uint) {\r\n        uint randomnumber = uint(keccak256(abi.encodePacked(block.timestamp, msg.sender, nonce))) % max;\r\n        nonce++;\r\n        return randomnumber;\r\n    } \r\n\r\n    function assignBlocks() public  {\r\n        \r\n        for(uint i=0;i<2;i++){\r\n            for(uint j=0;j<2;j++){\r\n                // if(e.getBlockNumber(i,j)==0)\r\n                    // break;\r\n                // _map[i][j] = e.getBlockNumber(i,j);\r\n                for(uint k=0;k<10;k++)\r\n                {\r\n\r\n                }\r\n                uint shardNo=random(shardCount);\r\n                uint vNo=random(s[shardNo].shardSize);\r\n                \r\n                s[shardNo].v[vNo].blockNo.push(_map[i][j]);\r\n\r\n            }\r\n        }\r\n    }\r\n\r\n    uint []  array;\r\n    function rebalanceNodes() public {\r\n        \r\n        for(uint i=0;i<s.length;i++)\r\n        {\r\n            for(uint j=0;j<s[i].shardSize;j++)\r\n            {\r\n                while(s[i].v[j].blockNo.length>1)\r\n                {\r\n                    array.push(s[i].v[j].blockNo[s[i].v[j].blockNo.length-1]);\r\n                    s[i].v[j].blockNo.pop();\r\n                }\r\n            }\r\n        }\r\n\r\n        for(uint i=0;i<s.length;i++)\r\n        {\r\n            for(uint j=0;j<s[i].shardSize;j++)\r\n            {\r\n                if(s[i].v[j].blockNo.length==0)\r\n                {\r\n                    //array.push(s[i].v[j].blockNo[s[i].v[j].blockNo.length-1])\r\n                    s[i].v[j].blockNo.push(array[array.length-1]);\r\n                    array.pop();\r\n                }\r\n            }\r\n        }\r\n    \r\n    }\r\n\r\n     mapping (uint => uint) public Names;\r\n\r\n       bool []b;\r\n    function interShard() public returns (bool []memory){\r\n       for(uint i=0;i<5;i++){\r\n            mapping (uint => uint) storage l= Names;\r\n                for(uint j=0;j<5;j++){\r\n                    uint k=_map[i][j];\r\n\r\n                    for(uint i=0;i<s.length;i++)\r\n                    {\r\n                        for(uint j=0;j<s[i].shardSize;j++)\r\n                        {\r\n                            if(s[i].v[j].blockNo[0]==k)\r\n                            {\r\n                                l[i]++;\r\n                            }\r\n                        }\r\n                    }\r\n            }\r\n            b[i]=true;\r\n            for(uint i=0;i<s.length;i++)\r\n            {\r\n                if(l[i]==5)\r\n                {\r\n                    b[i]=false;\r\n                }\r\n            }\r\n       }\r\n       return b;\r\n\r\n    }\r\n\r\n     mapping(uint => uint) public _map1;\r\n     uint[] public keys1;\r\n     mapping(uint => uint) public _map2;\r\n     uint[] public keys2;\r\n\r\n    function DPOS() public returns(uint[] memory) {\r\n\r\n        for(uint i=0;i<5;i++){\r\n            _map1[i+1]=_map[i].length;\r\n            keys1.push(i+1);\r\n        }\r\n\r\n        for (uint i = 0; i < keys1.length; i++) {\r\n            for (uint j = i + 1; j < keys1.length; j++) {\r\n                if (_map1[keys1[i]] < _map1[keys1[j]]) {\r\n                    uint temp = keys1[i];\r\n                    keys1[i] = keys1[j];\r\n                    keys1[j] = temp;\r\n                }\r\n            }\r\n        }\r\n\r\n        uint candidates=keys1.length/3;\r\n        uint voters=keys1.length-candidates;\r\n\r\n        for(uint i=voters+1;i<keys1.length;i++)\r\n        {\r\n            keys2.push(i);\r\n        }\r\n\r\n        for(uint i=0;i<voters;i++)\r\n        {\r\n            _map2[random(candidates)+voters+1]++;\r\n        }\r\n\r\n        for (uint i = 0; i < keys2.length; i++) {\r\n            for (uint j = i + 1; j < keys2.length; j++) {\r\n                if (_map2[keys2[i]] < _map2[keys2[j]]) {\r\n                    uint temp = keys2[i];\r\n                    keys2[i] = keys2[j];\r\n                    keys2[j] = temp;\r\n                }\r\n            }\r\n        }\r\n\r\n        for(uint i=1;i<voters+1;i++)\r\n        {\r\n            keys2.push(i);\r\n        }\r\n\r\n        return keys2;    \r\n    }\r\n\r\n    function setshardParameters(uint _shardCount, uint _shardSize) public{\r\n        shardCount = _shardCount;\r\n        shardSize = _shardSize;\r\n        for(uint i=0;i<shardCount;i++){\r\n            setShardHash(i, 0xa0ea57091e7f1d8d0c29ae04029d50d67440988ddd1bba093ef9281745d2c08c);\r\n            for(uint j=0;j<shardSize;j++){\r\n                addValidator(i, 0x9801689c36151683B789Ec22Fcd0b7fe9DBCc88e);\r\n            }\r\n        }\r\n        getBlocks();\r\n        assignBlocks();\r\n        emit Shardss(s);\r\n        rebalanceNodes();\r\n        emit Shardss(s);\r\n    }\r\n}",
  "sourcePath": "C:\\Mini project\\Block-Chain-Minor-Project\\frontend\\contracts\\sharding.sol",
  "compiler": {
    "name": "solc",
    "version": "0.5.16+commit.9c3226ce.Emscripten.clang"
  },
  "schemaVersion": "3.4.10",
  "updatedAt": "2023-05-01T14:29:52.846Z",
  "networkType": "ethereum",
  "devdoc": {
    "methods": {}
  },
  "userdoc": {
    "methods": {}
  }
}