{
  "contractName": "userStorage",
  "abi": [
    {
      "anonymous": false,
      "inputs": [
        {
          "indexed": false,
          "internalType": "string",
          "name": "message",
          "type": "string"
        }
      ],
      "name": "appendChain",
      "type": "event"
    },
    {
      "anonymous": false,
      "inputs": [
        {
          "indexed": false,
          "internalType": "string",
          "name": "message",
          "type": "string"
        }
      ],
      "name": "createCaseInfo",
      "type": "event"
    },
    {
      "anonymous": false,
      "inputs": [
        {
          "indexed": false,
          "internalType": "string",
          "name": "message",
          "type": "string"
        },
        {
          "indexed": false,
          "internalType": "uint256",
          "name": "",
          "type": "uint256"
        }
      ],
      "name": "createUser",
      "type": "event"
    },
    {
      "anonymous": false,
      "inputs": [
        {
          "indexed": false,
          "internalType": "string",
          "name": "message",
          "type": "string"
        }
      ],
      "name": "transferOwnerShipInfo",
      "type": "event"
    },
    {
      "constant": true,
      "inputs": [],
      "name": "noOfUsers",
      "outputs": [
        {
          "internalType": "uint256",
          "name": "",
          "type": "uint256"
        }
      ],
      "payable": false,
      "stateMutability": "view",
      "type": "function"
    },
    {
      "constant": false,
      "inputs": [
        {
          "internalType": "string",
          "name": "_name",
          "type": "string"
        },
        {
          "internalType": "string",
          "name": "_role",
          "type": "string"
        },
        {
          "internalType": "uint256",
          "name": "_age",
          "type": "uint256"
        },
        {
          "internalType": "string",
          "name": "_password",
          "type": "string"
        },
        {
          "internalType": "string",
          "name": "_email",
          "type": "string"
        }
      ],
      "name": "register",
      "outputs": [],
      "payable": false,
      "stateMutability": "nonpayable",
      "type": "function"
    },
    {
      "constant": true,
      "inputs": [
        {
          "internalType": "uint256",
          "name": "_id",
          "type": "uint256"
        },
        {
          "internalType": "string",
          "name": "_email",
          "type": "string"
        },
        {
          "internalType": "string",
          "name": "_password",
          "type": "string"
        }
      ],
      "name": "login",
      "outputs": [
        {
          "internalType": "string",
          "name": "",
          "type": "string"
        }
      ],
      "payable": false,
      "stateMutability": "view",
      "type": "function"
    },
    {
      "constant": true,
      "inputs": [
        {
          "internalType": "uint256",
          "name": "_id",
          "type": "uint256"
        }
      ],
      "name": "getUserDetails",
      "outputs": [
        {
          "components": [
            {
              "internalType": "uint256",
              "name": "id",
              "type": "uint256"
            },
            {
              "internalType": "string",
              "name": "name",
              "type": "string"
            },
            {
              "internalType": "string",
              "name": "role",
              "type": "string"
            },
            {
              "internalType": "uint256",
              "name": "age",
              "type": "uint256"
            },
            {
              "internalType": "string",
              "name": "password",
              "type": "string"
            },
            {
              "internalType": "string",
              "name": "email",
              "type": "string"
            },
            {
              "internalType": "uint256[]",
              "name": "createdCases",
              "type": "uint256[]"
            },
            {
              "internalType": "uint256[]",
              "name": "onChainCases",
              "type": "uint256[]"
            },
            {
              "internalType": "uint256[]",
              "name": "ownershipCases",
              "type": "uint256[]"
            }
          ],
          "internalType": "struct userStorage.User",
          "name": "",
          "type": "tuple"
        }
      ],
      "payable": false,
      "stateMutability": "view",
      "type": "function"
    },
    {
      "constant": true,
      "inputs": [
        {
          "internalType": "uint256",
          "name": "_id",
          "type": "uint256"
        }
      ],
      "name": "getCreatedCases",
      "outputs": [
        {
          "internalType": "uint256[]",
          "name": "",
          "type": "uint256[]"
        }
      ],
      "payable": false,
      "stateMutability": "view",
      "type": "function"
    },
    {
      "constant": true,
      "inputs": [
        {
          "internalType": "uint256",
          "name": "_id",
          "type": "uint256"
        }
      ],
      "name": "getOnChainCases",
      "outputs": [
        {
          "internalType": "uint256[]",
          "name": "",
          "type": "uint256[]"
        }
      ],
      "payable": false,
      "stateMutability": "view",
      "type": "function"
    },
    {
      "constant": true,
      "inputs": [
        {
          "internalType": "uint256",
          "name": "_id",
          "type": "uint256"
        }
      ],
      "name": "getOwnershipCases",
      "outputs": [
        {
          "internalType": "uint256[]",
          "name": "",
          "type": "uint256[]"
        }
      ],
      "payable": false,
      "stateMutability": "view",
      "type": "function"
    },
    {
      "constant": false,
      "inputs": [
        {
          "internalType": "uint256",
          "name": "_senderId",
          "type": "uint256"
        },
        {
          "internalType": "uint256",
          "name": "_receiverId",
          "type": "uint256"
        },
        {
          "internalType": "uint256",
          "name": "_caseId",
          "type": "uint256"
        }
      ],
      "name": "appendIntoChain",
      "outputs": [],
      "payable": false,
      "stateMutability": "nonpayable",
      "type": "function"
    },
    {
      "constant": false,
      "inputs": [
        {
          "internalType": "uint256",
          "name": "_id",
          "type": "uint256"
        },
        {
          "internalType": "uint256",
          "name": "_caseId",
          "type": "uint256"
        }
      ],
      "name": "createCase",
      "outputs": [],
      "payable": false,
      "stateMutability": "nonpayable",
      "type": "function"
    },
    {
      "constant": false,
      "inputs": [
        {
          "internalType": "uint256",
          "name": "_senderId",
          "type": "uint256"
        },
        {
          "internalType": "uint256",
          "name": "_receiverId",
          "type": "uint256"
        },
        {
          "internalType": "uint256",
          "name": "_caseId",
          "type": "uint256"
        }
      ],
      "name": "transferOwnerShip",
      "outputs": [],
      "payable": false,
      "stateMutability": "nonpayable",
      "type": "function"
    }
  ],
  "bytecode": "0x6080604052600060015534801561001557600080fd5b50611fdc806100256000396000f3fe608060405234801561001057600080fd5b506004361061009e5760003560e01c80638499cfe3116100665780638499cfe31461016d57806384fb60ff14610189578063af03b010146101a5578063b20e820b146101c1578063ca8dedc0146101f15761009e565b806301934a83146100a35780631c1a9f7b146100c1578063424c877c146100f15780634519035f146101215780637aa5c0211461013d575b600080fd5b6100ab610221565b6040516100b89190611de7565b60405180910390f35b6100db60048036036100d69190810190611600565b610227565b6040516100e89190611dc5565b60405180910390f35b61010b60048036036101069190810190611600565b6105f8565b6040516101189190611c73565b60405180910390f35b61013b600480360361013691908101906116a8565b610665565b005b61015760048036036101529190810190611600565b61078f565b6040516101649190611c73565b60405180910390f35b61018760048036036101829190810190611529565b6107fc565b005b6101a3600480360361019e91908101906116e4565b6109bf565b005b6101bf60048036036101ba91908101906116e4565b610d6e565b005b6101db60048036036101d69190810190611600565b61103d565b6040516101e89190611c73565b60405180910390f35b61020b60048036036102069190810190611629565b6110aa565b6040516102189190611c95565b60405180910390f35b60015481565b61022f611382565b6000808381526020019081526020016000206040518061012001604052908160008201548152602001600182018054600181600116156101000203166002900480601f0160208091040260200160405190810160405280929190818152602001828054600181600116156101000203166002900480156102f05780601f106102c5576101008083540402835291602001916102f0565b820191906000526020600020905b8154815290600101906020018083116102d357829003601f168201915b50505050508152602001600282018054600181600116156101000203166002900480601f0160208091040260200160405190810160405280929190818152602001828054600181600116156101000203166002900480156103925780601f1061036757610100808354040283529160200191610392565b820191906000526020600020905b81548152906001019060200180831161037557829003601f168201915b5050505050815260200160038201548152602001600482018054600181600116156101000203166002900480601f01602080910402602001604051908101604052809291908181526020018280546001816001161561010002031660029004801561043e5780601f106104135761010080835404028352916020019161043e565b820191906000526020600020905b81548152906001019060200180831161042157829003601f168201915b50505050508152602001600582018054600181600116156101000203166002900480601f0160208091040260200160405190810160405280929190818152602001828054600181600116156101000203166002900480156104e05780601f106104b5576101008083540402835291602001916104e0565b820191906000526020600020905b8154815290600101906020018083116104c357829003601f168201915b505050505081526020016006820180548060200260200160405190810160405280929190818152602001828054801561053857602002820191906000526020600020905b815481526020019060010190808311610524575b505050505081526020016007820180548060200260200160405190810160405280929190818152602001828054801561059057602002820191906000526020600020905b81548152602001906001019080831161057c575b50505050508152602001600882018054806020026020016040519081016040528092919081815260200182805480156105e857602002820191906000526020600020905b8154815260200190600101908083116105d4575b5050505050815250509050919050565b606060008083815260200190815260200160002060080180548060200260200160405190810160405280929190818152602001828054801561065957602002820191906000526020600020905b815481526020019060010190808311610645575b50505050509050919050565b60008211801561068957508160008084815260200190815260200160002060000154145b1561078b57600081111561078a576000808381526020019081526020016000206006018190806001815401808255809150509060018203906000526020600020016000909192909190915055506000808381526020019081526020016000206008018190806001815401808255809150509060018203906000526020600020016000909192909190915055506000808381526020019081526020016000206007018190806001815401808255809150509060018203906000526020600020016000909192909190915055507f9b77c208fa507cff82a07f7c237730f3daad62f1596d2f1e4674ea8b4cb656a360405161078190611d65565b60405180910390a15b5b5050565b60606000808381526020019081526020016000206007018054806020026020016040519081016040528092919081815260200182805480156107f057602002820191906000526020600020905b8154815260200190600101908083116107dc575b50505050509050919050565b606060016000815480929190600101919050555060015460008060015481526020019081526020016000206000018190555085600080600154815260200190815260200160002060010190805190602001906108599291906113ce565b5084600080600154815260200190815260200160002060020190805190602001906108859291906113ce565b508360008060015481526020019081526020016000206003018190555082600080600154815260200190815260200160002060040190805190602001906108cd9291906113ce565b5081600080600154815260200190815260200160002060050190805190602001906108f99291906113ce565b50806000806001548152602001908152602001600020600601908051906020019061092592919061144e565b50806000806001548152602001908152602001600020600701908051906020019061095192919061144e565b50806000806001548152602001908152602001600020600801908051906020019061097d92919061144e565b507f121ef243ddb4d5428c076edd3c3ebfa0fe0e7810b2408f5245dd5d8ffa1e5c786001546040516109af9190611d17565b60405180910390a1505050505050565b6000831180156109e357508260008085815260200190815260200160002060000154145b15610d325760008090505b60008085815260200190815260200160002060060180549050811015610b6f57816000808681526020019081526020016000206006018281548110610a2f57fe5b90600052602060002001541415610b6257600083118015610a6457508260008085815260200190815260200160002060000154145b15610b27576000821115610aec576000808481526020019081526020016000206007018290806001815401808255809150509060018203906000526020600020016000909192909190915055507f6fc5745462ab3310444243f731f292d9c48421c43cd802237361ee418fb713a2604051610ade90611cb7565b60405180910390a150610d69565b7f6fc5745462ab3310444243f731f292d9c48421c43cd802237361ee418fb713a2604051610b1990611cf7565b60405180910390a150610d69565b7f6fc5745462ab3310444243f731f292d9c48421c43cd802237361ee418fb713a2604051610b5490611d85565b60405180910390a150610d69565b80806001019150506109ee565b5060008090505b60008085815260200190815260200160002060080180549050811015610cf757816000808681526020019081526020016000206008018281548110610bb757fe5b90600052602060002001541415610cea57600083118015610bec57508260008085815260200190815260200160002060000154145b15610caf576000821115610c74576000808481526020019081526020016000206007018290806001815401808255809150509060018203906000526020600020016000909192909190915055507f6fc5745462ab3310444243f731f292d9c48421c43cd802237361ee418fb713a2604051610c6690611cb7565b60405180910390a150610d69565b7f6fc5745462ab3310444243f731f292d9c48421c43cd802237361ee418fb713a2604051610ca190611cf7565b60405180910390a150610d69565b7f6fc5745462ab3310444243f731f292d9c48421c43cd802237361ee418fb713a2604051610cdc90611d85565b60405180910390a150610d69565b8080600101915050610b76565b507f6fc5745462ab3310444243f731f292d9c48421c43cd802237361ee418fb713a2604051610d2590611cd7565b60405180910390a1610d68565b7f6fc5745462ab3310444243f731f292d9c48421c43cd802237361ee418fb713a2604051610d5f90611da5565b60405180910390a15b5b505050565b600083118015610d9257508260008085815260200190815260200160002060000154145b156110015760008090505b60008085815260200190815260200160002060080180549050811015610fc657816000808681526020019081526020016000206008018281548110610dde57fe5b90600052602060002001541415610fb957600083118015610e1357508260008085815260200190815260200160002060000154145b15610f7e576000821115610f43576000808481526020019081526020016000206008018290806001815401808255809150509060018203906000526020600020016000909192909190915055506000808581526020019081526020016000206008016001600080878152602001908152602001600020600801805490500381548110610e9b57fe5b90600052602060002001546000808681526020019081526020016000206008018281548110610ec657fe5b9060005260206000200181905550600080858152602001908152602001600020600801805480610ef257fe5b600190038181906000526020600020016000905590557f788b7c7b4604a4aff213cb46dbbe7b35d1560668f175c91c029fbff74511fd64604051610f3590611d45565b60405180910390a150611038565b7f788b7c7b4604a4aff213cb46dbbe7b35d1560668f175c91c029fbff74511fd64604051610f7090611cf7565b60405180910390a150611038565b7f788b7c7b4604a4aff213cb46dbbe7b35d1560668f175c91c029fbff74511fd64604051610fab90611d85565b60405180910390a150611038565b8080600101915050610d9d565b507f788b7c7b4604a4aff213cb46dbbe7b35d1560668f175c91c029fbff74511fd64604051610ff490611cd7565b60405180910390a1611037565b7f788b7c7b4604a4aff213cb46dbbe7b35d1560668f175c91c029fbff74511fd6460405161102e90611da5565b60405180910390a15b5b505050565b606060008083815260200190815260200160002060060180548060200260200160405190810160405280929190818152602001828054801561109e57602002820191906000526020600020905b81548152602001906001019080831161108a575b50505050509050919050565b60606000841180156110d057508360008086815260200190815260200160002060000154145b1561134257600080858152602001908152602001600020600501805460018160011615610100020316600290049050835114611143576040518060400160405280600d81526020017f496e76616c696420456d61696c00000000000000000000000000000000000000815250905061137b565b6000808581526020019081526020016000206005016040516020016111689190611c5c565b6040516020818303038152906040528051906020012060001c836040516020016111929190611c45565b6040516020818303038152906040528051906020012060001c146111ed576040518060400160405280600d81526020017f496e76616c696420456d61696c00000000000000000000000000000000000000815250905061137b565b60008085815260200190815260200160002060040180546001816001161561010002031660029004905082511461125b576040518060400160405280601081526020017f496e76616c69642050617373776f726400000000000000000000000000000000815250905061137b565b6000808581526020019081526020016000206004016040516020016112809190611c5c565b6040516020818303038152906040528051906020012060001c826040516020016112aa9190611c45565b6040516020818303038152906040528051906020012060001c14611305576040518060400160405280601081526020017f496e76616c69642050617373776f726400000000000000000000000000000000815250905061137b565b6040518060400160405280600981526020017f4c6f6767656420696e0000000000000000000000000000000000000000000000815250905061137b565b6040518060400160405280600a81526020017f496e76616c69642049440000000000000000000000000000000000000000000081525090505b9392505050565b6040518061012001604052806000815260200160608152602001606081526020016000815260200160608152602001606081526020016060815260200160608152602001606081525090565b828054600181600116156101000203166002900490600052602060002090601f016020900481019282601f1061140f57805160ff191683800117855561143d565b8280016001018555821561143d579182015b8281111561143c578251825591602001919060010190611421565b5b50905061144a919061149b565b5090565b82805482825590600052602060002090810192821561148a579160200282015b8281111561148957825182559160200191906001019061146e565b5b509050611497919061149b565b5090565b6114bd91905b808211156114b95760008160009055506001016114a1565b5090565b90565b600082601f8301126114d157600080fd5b81356114e46114df82611e2f565b611e02565b9150808252602083016020830185838301111561150057600080fd5b61150b838284611f2f565b50505092915050565b60008135905061152381611f82565b92915050565b600080600080600060a0868803121561154157600080fd5b600086013567ffffffffffffffff81111561155b57600080fd5b611567888289016114c0565b955050602086013567ffffffffffffffff81111561158457600080fd5b611590888289016114c0565b94505060406115a188828901611514565b935050606086013567ffffffffffffffff8111156115be57600080fd5b6115ca888289016114c0565b925050608086013567ffffffffffffffff8111156115e757600080fd5b6115f3888289016114c0565b9150509295509295909350565b60006020828403121561161257600080fd5b600061162084828501611514565b91505092915050565b60008060006060848603121561163e57600080fd5b600061164c86828701611514565b935050602084013567ffffffffffffffff81111561166957600080fd5b611675868287016114c0565b925050604084013567ffffffffffffffff81111561169257600080fd5b61169e868287016114c0565b9150509250925092565b600080604083850312156116bb57600080fd5b60006116c985828601611514565b92505060206116da85828601611514565b9150509250929050565b6000806000606084860312156116f957600080fd5b600061170786828701611514565b935050602061171886828701611514565b925050604061172986828701611514565b9150509250925092565b600061173f8383611c27565b60208301905092915050565b600061175682611e9b565b6117608185611ee7565b935061176b83611e6b565b8060005b8381101561179c5781516117838882611733565b975061178e83611ec9565b92505060018101905061176f565b5085935050505092915050565b60006117b482611e90565b6117be8185611ed6565b93506117c983611e5b565b8060005b838110156117fa5781516117e18882611733565b97506117ec83611ebc565b9250506001810190506117cd565b5085935050505092915050565b600061181282611eb1565b61181c8185611f09565b935061182c818560208601611f3e565b61183581611f71565b840191505092915050565b600061184b82611eb1565b6118558185611f1a565b9350611865818560208601611f3e565b80840191505092915050565b600061187c82611ea6565b6118868185611ef8565b9350611896818560208601611f3e565b61189f81611f71565b840191505092915050565b6000815460018116600081146118c757600181146118ec57611930565b607f60028304166118d88187611f1a565b955060ff1983168652808601935050611930565b600282046118fa8187611f1a565b955061190585611e7b565b60005b8281101561192757815481890152600182019150602081019050611908565b82880195505050505b505092915050565b6000611945602083611f09565b91507f596f752061726520696e2061757468656e74696361746564206e6574776f726b6000830152602082019050919050565b6000611985600c83611f09565b91507f4e6f206f776e65727368697000000000000000000000000000000000000000006000830152602082019050919050565b60006119c5601283611f09565b91507f4361736520494420697320696e76616c696400000000000000000000000000006000830152602082019050919050565b6000611a05600c83611f09565b91507f55736572204372656174656400000000000000000000000000000000000000006000830152602082019050919050565b6000611a45601583611f09565b91507f4f776e657253686970205472616e7366657272656400000000000000000000006000830152602082019050919050565b6000611a85601583611f09565b91507f4361736520616464656420746f206163636f756e7400000000000000000000006000830152602082019050919050565b6000611ac5601283611f09565b91507f5573657220494420697320696e76616c696400000000000000000000000000006000830152602082019050919050565b6000611b05601383611f09565b91507f4f776e657220494420697320496e76616c6964000000000000000000000000006000830152602082019050919050565b600061012083016000830151611b516000860182611c27565b5060208301518482036020860152611b698282611871565b91505060408301518482036040860152611b838282611871565b9150506060830151611b986060860182611c27565b5060808301518482036080860152611bb08282611871565b91505060a083015184820360a0860152611bca8282611871565b91505060c083015184820360c0860152611be482826117a9565b91505060e083015184820360e0860152611bfe82826117a9565b915050610100830151848203610100860152611c1a82826117a9565b9150508091505092915050565b611c3081611f25565b82525050565b611c3f81611f25565b82525050565b6000611c518284611840565b915081905092915050565b6000611c6882846118aa565b915081905092915050565b60006020820190508181036000830152611c8d818461174b565b905092915050565b60006020820190508181036000830152611caf8184611807565b905092915050565b60006020820190508181036000830152611cd081611938565b9050919050565b60006020820190508181036000830152611cf081611978565b9050919050565b60006020820190508181036000830152611d10816119b8565b9050919050565b60006040820190508181036000830152611d30816119f8565b9050611d3f6020830184611c36565b92915050565b60006020820190508181036000830152611d5e81611a38565b9050919050565b60006020820190508181036000830152611d7e81611a78565b9050919050565b60006020820190508181036000830152611d9e81611ab8565b9050919050565b60006020820190508181036000830152611dbe81611af8565b9050919050565b60006020820190508181036000830152611ddf8184611b38565b905092915050565b6000602082019050611dfc6000830184611c36565b92915050565b6000604051905081810181811067ffffffffffffffff82111715611e2557600080fd5b8060405250919050565b600067ffffffffffffffff821115611e4657600080fd5b601f19601f8301169050602081019050919050565b6000819050602082019050919050565b6000819050602082019050919050565b60008190508160005260206000209050919050565b600081519050919050565b600081519050919050565b600081519050919050565b600081519050919050565b6000602082019050919050565b6000602082019050919050565b600082825260208201905092915050565b600082825260208201905092915050565b600082825260208201905092915050565b600082825260208201905092915050565b600081905092915050565b6000819050919050565b82818337600083830152505050565b60005b83811015611f5c578082015181840152602081019050611f41565b83811115611f6b576000848401525b50505050565b6000601f19601f8301169050919050565b611f8b81611f25565b8114611f9657600080fd5b5056fea365627a7a723158201c17476f1fdf2f5c210b45faac5ab0597ad2ab73f553915020b3f936cef4da716c6578706572696d656e74616cf564736f6c63430005100040",
  "source": "// SPDX-License-Identifier: UNLICENSED\npragma solidity >=0.4.21 <=0.9.0;\npragma experimental ABIEncoderV2;\n\n\ncontract userStorage {\n    struct User {\n        uint256 id;\n        string name;\n        string role;\n        uint256 age;\n        string password;\n        string email;\n        uint256[] createdCases;\n        uint256[] onChainCases;\n        uint256[] ownershipCases;\n    }\n\n    mapping(uint256 => User) users;\n    uint256 public noOfUsers = 0;\n\n    event createUser(string message, uint256);\n\n    function register(string memory _name,string memory _role,uint256 _age,string memory _password,string memory _email) public {\n        uint256[] memory array1;\n        noOfUsers++;\n        users[noOfUsers].id=noOfUsers;\n        users[noOfUsers].name=_name;\n        users[noOfUsers].role=_role;\n        users[noOfUsers].age=_age;\n        users[noOfUsers].password=_password;\n        users[noOfUsers].email=_email;\n        users[noOfUsers].createdCases=array1;\n        users[noOfUsers].onChainCases=array1;\n        users[noOfUsers].ownershipCases=array1;\n        emit createUser(\"User Created\", noOfUsers);\n    }\n\n    function login(uint256 _id,string memory _email,string memory _password) public view returns (string memory) {\n        if (_id > 0 && users[_id].id == _id) {\n            if (bytes(_email).length != bytes(users[_id].email).length) {\n                return (\"Invalid Email\");\n            }\n\n            if (uint(keccak256(abi.encodePacked(_email))) != uint(keccak256(abi.encodePacked(users[_id].email)))) {\n                return (\"Invalid Email\");\n            }\n\n            if (bytes(_password).length != bytes(users[_id].password).length) {\n                return (\"Invalid Password\");\n            }\n\n            if (uint(keccak256(abi.encodePacked(_password))) != uint(keccak256(abi.encodePacked(users[_id].password)))) {\n                return (\"Invalid Password\");\n            }\n\n            return (\"Logged in\");\n        } else {\n            return (\"Invalid ID\");\n        }\n    }\n\n    function getUserDetails(uint256 _id) public view returns (User memory) {\n        return (users[_id]);\n    }\n    function getCreatedCases(uint256 _id) public view returns (uint256 [] memory) {\n        return (users[_id].createdCases);\n    }\n    function getOnChainCases(uint256 _id) public view returns (uint256 [] memory) {\n        return (users[_id].onChainCases);\n    }\n    function getOwnershipCases(uint256 _id) public view returns (uint256 [] memory) {\n        return (users[_id].ownershipCases);\n    }\n\n    // function readName(uint256 _id) public view returns (string memory) {\n    //     if (_id > 0 && users[_id].id == _id) {\n    //         return (users[_id].name);\n    //     } else {\n    //         return (\"null\");\n    //     }\n    // }\n\n    // function readJob(uint256 _id) public view returns (string memory) {\n    //     if (_id > 0 && users[_id].id == _id) {\n    //         return (users[_id].role);\n    //     } else {\n    //         return (\"null\");\n    //     }\n    // }\n\n    // function readAge(uint256 _id) public view returns (uint256) {\n    //     if (_id > 0 && users[_id].id == _id) {\n    //         return (users[_id].age);\n    //     } else {\n    //         // return (\"null\");\n    //         return (0);\n    //     }\n    // }\n\n    // function readEmail(uint256 _id) public view returns (string memory) {\n    //     if (_id > 0 && users[_id].id == _id) {\n    //         return (users[_id].email);\n    //     } else {\n    //         return (\"null\");\n    //     }\n    // }\n\n    event appendChain(string message);\n    function appendIntoChain(uint256 _senderId,uint256 _receiverId,uint256 _caseId) public {\n        if (_senderId > 0 && users[_senderId].id == _senderId) {\n            for (uint256 i = 0; i < users[_senderId].createdCases.length; i++) {\n                if (users[_senderId].createdCases[i] == _caseId) {\n                    if (_receiverId > 0 && users[_receiverId].id == _receiverId) {\n                        if (_caseId > 0) {\n                            users[_receiverId].onChainCases.push(_caseId);\n                            emit appendChain(\"You are in authenticated network\");\n                            return;\n                        } else {\n                            emit appendChain(\"Case ID is invalid\");\n                            return;\n                        }\n                    } else {\n                        emit appendChain(\"User ID is invalid\");\n                        return;\n                    }\n                }\n            }\n\n            for (uint256 i = 0;i < users[_senderId].ownershipCases.length;i++) {\n                if (users[_senderId].ownershipCases[i] == _caseId) {\n                    if (_receiverId > 0 && users[_receiverId].id == _receiverId) {\n                        if (_caseId > 0) {\n                            users[_receiverId].onChainCases.push(_caseId);\n                            emit appendChain(\"You are in authenticated network\");\n                            return;\n                        } else {\n                            emit appendChain(\"Case ID is invalid\");\n                            return;\n                        }\n                    } else {\n                        emit appendChain(\"User ID is invalid\");\n                        return;\n                    }\n                }\n            }\n\n            emit appendChain(\"No ownership\");\n        } else {\n            emit appendChain(\"Owner ID is Invalid\");\n        }\n    }\n\n    event createCaseInfo(string message);\n\n    function createCase(uint256 _id, uint256 _caseId) public {\n        if (_id > 0 && users[_id].id == _id) {\n            if (_caseId > 0) {\n                users[_id].createdCases.push(_caseId);\n                users[_id].ownershipCases.push(_caseId);\n                users[_id].onChainCases.push(_caseId);\n                emit createCaseInfo(\"Case added to account\");\n            }\n        }\n    }\n\n    event transferOwnerShipInfo(string message);\n\n    function transferOwnerShip(uint256 _senderId,uint256 _receiverId,uint256 _caseId\n    ) public {\n        if (_senderId > 0 && users[_senderId].id == _senderId) {\n            for (uint256 i = 0;i < users[_senderId].ownershipCases.length;i++) {\n                if (users[_senderId].ownershipCases[i] == _caseId) {\n                    if (_receiverId > 0 && users[_receiverId].id == _receiverId) {\n                        if (_caseId > 0) {\n                            users[_receiverId].ownershipCases.push(_caseId);\n                            users[_senderId].ownershipCases[i] = users[_senderId].ownershipCases[users[_senderId].ownershipCases.length - 1];\n                            users[_senderId].ownershipCases.pop();\n                            emit transferOwnerShipInfo(\"OwnerShip Transferred\");\n                            return;\n                        } else {\n                            emit transferOwnerShipInfo(\"Case ID is invalid\");\n                            return;\n                        }\n                    } else {\n                        emit transferOwnerShipInfo(\"User ID is invalid\");\n                        return;\n                    }\n                }\n            }\n            emit transferOwnerShipInfo(\"No ownership\");\n        } else {\n            emit transferOwnerShipInfo(\"Owner ID is Invalid\");\n        }\n    }\n\n    // function updateName(uint256 _id, string memory _name) public {\n    //     users[_id - 1].name = _name;\n    // }\n\n    // function updateJob(uint256 _id, string memory _job) public {\n    //     users[_id - 1].role = _job;\n    // }\n\n    // function updateAge(uint256 _id, uint256 _age) public {\n    //     users[_id - 1].age = _age;\n    // }\n\n    // function updateEmail(uint256 _id, string memory _email) public {\n    //     users[_id - 1].name = _email;\n    // }\n\n    // function updateAllInfo(\n    //     uint256 _id,\n    //     string memory _name,\n    //     string memory _job,\n    //     uint256 _age,\n    //     string memory _email\n    // ) public {\n    //     users[_id - 1].name = _name;\n    //     users[_id - 1].role = _job;\n    //     users[_id - 1].age = _age;\n    //     users[_id - 1].email = _email;\n    // }\n\n    // function remove(uint256 _id) public {\n    //     delete users[_id - 1];\n    // }\n}",
  "sourcePath": "C:\\Mini project\\Block-Chain-Minor-Project\\frontend\\contracts\\user.sol",
  "compiler": {
    "name": "solc",
    "version": "0.5.16+commit.9c3226ce.Emscripten.clang"
  },
  "schemaVersion": "3.4.10",
  "updatedAt": "2023-05-02T09:52:06.761Z",
  "networkType": "ethereum",
  "devdoc": {
    "methods": {}
  },
  "userdoc": {
    "methods": {}
  }
}